{
  "abi": [
    {
      "inputs": [],
      "stateMutability": "nonpayable",
      "type": "constructor"
    },
    {
      "anonymous": false,
      "inputs": [
        {
          "indexed": false,
          "internalType": "address",
          "name": "previousAdmin",
          "type": "address"
        },
        {
          "indexed": false,
          "internalType": "address",
          "name": "newAdmin",
          "type": "address"
        }
      ],
      "name": "AdminChanged",
      "type": "event"
    },
    {
      "anonymous": false,
      "inputs": [
        {
          "indexed": true,
          "internalType": "address",
          "name": "beacon",
          "type": "address"
        }
      ],
      "name": "BeaconUpgraded",
      "type": "event"
    },
    {
      "anonymous": false,
      "inputs": [
        {
          "indexed": false,
          "internalType": "uint8",
          "name": "round",
          "type": "uint8"
        },
        {
          "indexed": false,
          "internalType": "address",
          "name": "claimer",
          "type": "address"
        },
        {
          "indexed": false,
          "internalType": "uint256",
          "name": "amount",
          "type": "uint256"
        }
      ],
      "name": "Claim",
      "type": "event"
    },
    {
      "anonymous": false,
      "inputs": [
        {
          "indexed": false,
          "internalType": "uint8",
          "name": "version",
          "type": "uint8"
        }
      ],
      "name": "Initialized",
      "type": "event"
    },
    {
      "anonymous": false,
      "inputs": [
        {
          "indexed": true,
          "internalType": "address",
          "name": "previousOwner",
          "type": "address"
        },
        {
          "indexed": true,
          "internalType": "address",
          "name": "newOwner",
          "type": "address"
        }
      ],
      "name": "OwnershipTransferred",
      "type": "event"
    },
    {
      "anonymous": false,
      "inputs": [
        {
          "indexed": true,
          "internalType": "address",
          "name": "implementation",
          "type": "address"
        }
      ],
      "name": "Upgraded",
      "type": "event"
    },
    {
      "inputs": [
        {
          "internalType": "bytes32[]",
          "name": "_merkleProof",
          "type": "bytes32[]"
        },
        {
          "internalType": "uint256",
          "name": "_amount",
          "type": "uint256"
        }
      ],
      "name": "claim",
      "outputs": [],
      "stateMutability": "nonpayable",
      "type": "function"
    },
    {
      "inputs": [
        {
          "internalType": "address",
          "name": "",
          "type": "address"
        },
        {
          "internalType": "uint8",
          "name": "",
          "type": "uint8"
        }
      ],
      "name": "claimed",
      "outputs": [
        {
          "internalType": "bool",
          "name": "",
          "type": "bool"
        }
      ],
      "stateMutability": "view",
      "type": "function"
    },
    {
      "inputs": [],
      "name": "currRound",
      "outputs": [
        {
          "internalType": "uint8",
          "name": "",
          "type": "uint8"
        }
      ],
      "stateMutability": "view",
      "type": "function"
    },
    {
      "inputs": [],
      "name": "initialize",
      "outputs": [],
      "stateMutability": "nonpayable",
      "type": "function"
    },
    {
      "inputs": [],
      "name": "merkleRoot",
      "outputs": [
        {
          "internalType": "bytes32",
          "name": "",
          "type": "bytes32"
        }
      ],
      "stateMutability": "view",
      "type": "function"
    },
    {
      "inputs": [
        {
          "internalType": "uint256",
          "name": "_star",
          "type": "uint256"
        },
        {
          "internalType": "uint256",
          "name": "_end",
          "type": "uint256"
        }
      ],
      "name": "newRound",
      "outputs": [],
      "stateMutability": "nonpayable",
      "type": "function"
    },
    {
      "inputs": [],
      "name": "owner",
      "outputs": [
        {
          "internalType": "address",
          "name": "",
          "type": "address"
        }
      ],
      "stateMutability": "view",
      "type": "function"
    },
    {
      "inputs": [],
      "name": "proxiableUUID",
      "outputs": [
        {
          "internalType": "bytes32",
          "name": "",
          "type": "bytes32"
        }
      ],
      "stateMutability": "view",
      "type": "function"
    },
    {
      "inputs": [],
      "name": "renounceOwnership",
      "outputs": [],
      "stateMutability": "nonpayable",
      "type": "function"
    },
    {
      "inputs": [
        {
          "internalType": "uint8",
          "name": "",
          "type": "uint8"
        }
      ],
      "name": "roundMap",
      "outputs": [
        {
          "internalType": "uint256",
          "name": "start",
          "type": "uint256"
        },
        {
          "internalType": "uint256",
          "name": "end",
          "type": "uint256"
        }
      ],
      "stateMutability": "view",
      "type": "function"
    },
    {
      "inputs": [
        {
          "internalType": "address",
          "name": "_tokenAddress",
          "type": "address"
        }
      ],
      "name": "setTokenAddr",
      "outputs": [],
      "stateMutability": "nonpayable",
      "type": "function"
    },
    {
      "inputs": [],
      "name": "tokenAddr",
      "outputs": [
        {
          "internalType": "address",
          "name": "",
          "type": "address"
        }
      ],
      "stateMutability": "view",
      "type": "function"
    },
    {
      "inputs": [
        {
          "internalType": "address",
          "name": "_tokenAddr",
          "type": "address"
        },
        {
          "internalType": "address",
          "name": "_receiver",
          "type": "address"
        },
        {
          "internalType": "uint256",
          "name": "_amount",
          "type": "uint256"
        }
      ],
      "name": "tokenClaimBack",
      "outputs": [],
      "stateMutability": "nonpayable",
      "type": "function"
    },
    {
      "inputs": [
        {
          "internalType": "address",
          "name": "newOwner",
          "type": "address"
        }
      ],
      "name": "transferOwnership",
      "outputs": [],
      "stateMutability": "nonpayable",
      "type": "function"
    },
    {
      "inputs": [
        {
          "internalType": "bytes32",
          "name": "_merkleRoot",
          "type": "bytes32"
        }
      ],
      "name": "updateMerkleRoot",
      "outputs": [],
      "stateMutability": "nonpayable",
      "type": "function"
    },
    {
      "inputs": [
        {
          "internalType": "uint256",
          "name": "_start",
          "type": "uint256"
        },
        {
          "internalType": "uint256",
          "name": "_end",
          "type": "uint256"
        }
      ],
      "name": "updateRound",
      "outputs": [],
      "stateMutability": "nonpayable",
      "type": "function"
    },
    {
      "inputs": [
        {
          "internalType": "address",
          "name": "newImplementation",
          "type": "address"
        }
      ],
      "name": "upgradeTo",
      "outputs": [],
      "stateMutability": "nonpayable",
      "type": "function"
    },
    {
      "inputs": [
        {
          "internalType": "address",
          "name": "newImplementation",
          "type": "address"
        },
        {
          "internalType": "bytes",
          "name": "data",
          "type": "bytes"
        }
      ],
      "name": "upgradeToAndCall",
      "outputs": [],
      "stateMutability": "payable",
      "type": "function"
    }
  ],
  "bytecode": {
    "object": "0x60a06040523060805234801561001457600080fd5b5061001d610022565b6100e1565b600054610100900460ff161561008e5760405162461bcd60e51b815260206004820152602760248201527f496e697469616c697a61626c653a20636f6e747261637420697320696e697469604482015266616c697a696e6760c81b606482015260840160405180910390fd5b60005460ff908116146100df576000805460ff191660ff9081179091556040519081527f7f26b83ff96e1f2b6a682f133852f6798a09c465da95921460cefb38474024989060200160405180910390a15b565b60805161186c6101186000396000818161045b0152818161049b0152818161074b0152818161078b015261081e015261186c6000f3fe6080604052600436106101095760003560e01c80635468184711610095578063715018a611610064578063715018a6146102f35780638129fc1c146103085780638da5cb5b1461031d578063f2fde38b1461033b578063fbb905e31461035b57600080fd5b8063546818471461022d5780635f7e47551461024d5780635fbe4d1d146102965780636a5fcfdf146102d357600080fd5b80633b439351116100dc5780633b439351146101995780633f5d8056146101b95780634783f0ef146101e55780634f1ef2861461020557806352d1902d1461021857600080fd5b806310b202741461010e5780632eb4a7ab146101305780632ebd1e28146101595780633659cfe614610179575b600080fd5b34801561011a57600080fd5b5061012e6101293660046113bc565b6103a6565b005b34801561013c57600080fd5b5061014660ca5481565b6040519081526020015b60405180910390f35b34801561016557600080fd5b5061012e6101743660046113f8565b610421565b34801561018557600080fd5b5061012e6101943660046113f8565b610451565b3480156101a557600080fd5b5061012e6101b4366004611413565b610530565b3480156101c557600080fd5b5060c9546101d39060ff1681565b60405160ff9091168152602001610150565b3480156101f157600080fd5b5061012e61020036600461148e565b610734565b61012e6102133660046114bd565b610741565b34801561022457600080fd5b50610146610811565b34801561023957600080fd5b5061012e61024836600461157f565b6108c4565b34801561025957600080fd5b506102816102683660046115b2565b60cb602052600090815260409020805460019091015482565b60408051928352602083019190915201610150565b3480156102a257600080fd5b5060c9546102bb9061010090046001600160a01b031681565b6040516001600160a01b039091168152602001610150565b3480156102df57600080fd5b5061012e6102ee36600461157f565b61099a565b3480156102ff57600080fd5b5061012e610a0e565b34801561031457600080fd5b5061012e610a22565b34801561032957600080fd5b506033546001600160a01b03166102bb565b34801561034757600080fd5b5061012e6103563660046113f8565b610b3a565b34801561036757600080fd5b506103966103763660046115cd565b60cc60209081526000928352604080842090915290825290205460ff1681565b6040519015158152602001610150565b6103ae610bb0565b60c95460ff16600090815260cb602052604090206001015442116104085760405162461bcd60e51b815260206004820152600c60248201526b63616e6e6f7420636c61696d60a01b60448201526064015b60405180910390fd5b61041c6001600160a01b0384168383610c0a565b505050565b610429610bb0565b60c980546001600160a01b0390921661010002610100600160a81b0319909216919091179055565b6001600160a01b037f00000000000000000000000000000000000000000000000000000000000000001630036104995760405162461bcd60e51b81526004016103ff90611600565b7f00000000000000000000000000000000000000000000000000000000000000006001600160a01b03166104e26000805160206117f0833981519152546001600160a01b031690565b6001600160a01b0316146105085760405162461bcd60e51b81526004016103ff9061164c565b61051181610c5c565b6040805160008082526020820190925261052d91839190610c64565b50565b60c95460ff16600090815260cb6020526040902054421080159061056b575060c95460ff16600090815260cb60205260409020600101544211155b6105a45760405162461bcd60e51b815260206004820152600a60248201526977726f6e672074696d6560b01b60448201526064016103ff565b33600090815260cc6020908152604080832060c95460ff908116855292529091205416156106145760405162461bcd60e51b815260206004820152601760248201527f4164647265737320616c726561647920636c61696d656400000000000000000060448201526064016103ff565b60006106203383610dcf565b905061065f81858580806020026020016040519081016040528093929190818152602001838360200280828437600092019190915250610e1792505050565b6106a25760405162461bcd60e51b815260206004820152601460248201527324b73b30b634b21036b2b935b63290383937b7b360611b60448201526064016103ff565b33600081815260cc6020908152604080832060c9805460ff1685529252909120805460ff19166001179055546106e8916101009091046001600160a01b03169084610c0a565b60c9546040805160ff909216825233602083015281018390527f5e608c4a23ae45337ff2643849d5c5476d2cfebef71a51e83dae8bb5123add319060600160405180910390a150505050565b61073c610bb0565b60ca55565b6001600160a01b037f00000000000000000000000000000000000000000000000000000000000000001630036107895760405162461bcd60e51b81526004016103ff90611600565b7f00000000000000000000000000000000000000000000000000000000000000006001600160a01b03166107d26000805160206117f0833981519152546001600160a01b031690565b6001600160a01b0316146107f85760405162461bcd60e51b81526004016103ff9061164c565b61080182610c5c565b61080d82826001610c64565b5050565b6000306001600160a01b037f000000000000000000000000000000000000000000000000000000000000000016146108b15760405162461bcd60e51b815260206004820152603860248201527f555550535570677261646561626c653a206d757374206e6f742062652063616c60448201527f6c6564207468726f7567682064656c656761746563616c6c000000000000000060648201526084016103ff565b506000805160206117f083398151915290565b6108cc610bb0565b60c95460ff16600090815260cb602052604090206001015442116109325760405162461bcd60e51b815260206004820152601760248201527f63616e6e6f7420637265617465206e657720726f756e6400000000000000000060448201526064016103ff565b60c980546001919060009061094b90849060ff166116ae565b82546101009290920a60ff818102199093169183160217909155604080518082018252948552602080860194855260c954909216600090815260cb909252902092518355505160019190910155565b6109a2610bb0565b60c95460ff1682158015906109b657508183105b6109f25760405162461bcd60e51b815260206004820152600d60248201526c1a5b9d985b1a59081c9bdd5b99609a1b60448201526064016103ff565b60ff16600090815260cb60205260409020918255600190910155565b610a16610bb0565b610a206000610e2d565b565b600054610100900460ff1615808015610a425750600054600160ff909116105b80610a5c5750303b158015610a5c575060005460ff166001145b610abf5760405162461bcd60e51b815260206004820152602e60248201527f496e697469616c697a61626c653a20636f6e747261637420697320616c72656160448201526d191e481a5b9a5d1a585b1a5e995960921b60648201526084016103ff565b6000805460ff191660011790558015610ae2576000805461ff0019166101001790555b610aea610e7f565b610af2610eae565b801561052d576000805461ff0019169055604051600181527f7f26b83ff96e1f2b6a682f133852f6798a09c465da95921460cefb38474024989060200160405180910390a150565b610b42610bb0565b6001600160a01b038116610ba75760405162461bcd60e51b815260206004820152602660248201527f4f776e61626c653a206e6577206f776e657220697320746865207a65726f206160448201526564647265737360d01b60648201526084016103ff565b61052d81610e2d565b6033546001600160a01b03163314610a205760405162461bcd60e51b815260206004820181905260248201527f4f776e61626c653a2063616c6c6572206973206e6f7420746865206f776e657260448201526064016103ff565b604080516001600160a01b038416602482015260448082018490528251808303909101815260649091019091526020810180516001600160e01b031663a9059cbb60e01b17905261041c908490610ed5565b61052d610bb0565b7f4910fdfa16fed3260ed0e7147f7cc6da11a60208b5b9406d12a635614ffd91435460ff1615610c975761041c83610faa565b826001600160a01b03166352d1902d6040518163ffffffff1660e01b8152600401602060405180830381865afa925050508015610cf1575060408051601f3d908101601f19168201909252610cee918101906116c7565b60015b610d545760405162461bcd60e51b815260206004820152602e60248201527f45524331393637557067726164653a206e657720696d706c656d656e7461746960448201526d6f6e206973206e6f74205555505360901b60648201526084016103ff565b6000805160206117f08339815191528114610dc35760405162461bcd60e51b815260206004820152602960248201527f45524331393637557067726164653a20756e737570706f727465642070726f786044820152681a58589b195555525160ba1b60648201526084016103ff565b5061041c838383611046565b6040516bffffffffffffffffffffffff19606084901b166020820152603481018290526000906054016040516020818303038152906040528051906020012090505b92915050565b6000610e268260ca5485611071565b9392505050565b603380546001600160a01b038381166001600160a01b0319831681179093556040519116919082907f8be0079c531659141344cd1fd0a4f28419497f9722a3daafe3b4186f6b6457e090600090a35050565b600054610100900460ff16610ea65760405162461bcd60e51b81526004016103ff906116e0565b610a20611087565b600054610100900460ff16610a205760405162461bcd60e51b81526004016103ff906116e0565b6000610f2a826040518060400160405280602081526020017f5361666545524332303a206c6f772d6c6576656c2063616c6c206661696c6564815250856001600160a01b03166110b79092919063ffffffff16565b9050805160001480610f4b575080806020019051810190610f4b919061172b565b61041c5760405162461bcd60e51b815260206004820152602a60248201527f5361666545524332303a204552433230206f7065726174696f6e20646964206e6044820152691bdd081cdd58d8d9595960b21b60648201526084016103ff565b6001600160a01b0381163b6110175760405162461bcd60e51b815260206004820152602d60248201527f455243313936373a206e657720696d706c656d656e746174696f6e206973206e60448201526c1bdd08184818dbdb9d1c9858dd609a1b60648201526084016103ff565b6000805160206117f083398151915280546001600160a01b0319166001600160a01b0392909216919091179055565b61104f836110ce565b60008251118061105c5750805b1561041c5761106b838361110e565b50505050565b60008261107e8584611133565b14949350505050565b600054610100900460ff166110ae5760405162461bcd60e51b81526004016103ff906116e0565b610a2033610e2d565b60606110c68484600085611180565b949350505050565b6110d781610faa565b6040516001600160a01b038216907fbc7cd75a20ee27fd9adebab32041f755214dbc6bffa90cc0225b39da2e5c2d3b90600090a250565b6060610e2683836040518060600160405280602781526020016118106027913961125b565b600081815b845181101561117857611164828683815181106111575761115761174d565b60200260200101516112d3565b91508061117081611763565b915050611138565b509392505050565b6060824710156111e15760405162461bcd60e51b815260206004820152602660248201527f416464726573733a20696e73756666696369656e742062616c616e636520666f6044820152651c8818d85b1b60d21b60648201526084016103ff565b600080866001600160a01b031685876040516111fd91906117a0565b60006040518083038185875af1925050503d806000811461123a576040519150601f19603f3d011682016040523d82523d6000602084013e61123f565b606091505b509150915061125087838387611302565b979650505050505050565b6060600080856001600160a01b03168560405161127891906117a0565b600060405180830381855af49150503d80600081146112b3576040519150601f19603f3d011682016040523d82523d6000602084013e6112b8565b606091505b50915091506112c986838387611302565b9695505050505050565b60008183106112ef576000828152602084905260409020610e26565b6000838152602083905260409020610e26565b6060831561137157825160000361136a576001600160a01b0385163b61136a5760405162461bcd60e51b815260206004820152601d60248201527f416464726573733a2063616c6c20746f206e6f6e2d636f6e747261637400000060448201526064016103ff565b50816110c6565b6110c683838151156113865781518083602001fd5b8060405162461bcd60e51b81526004016103ff91906117bc565b80356001600160a01b03811681146113b757600080fd5b919050565b6000806000606084860312156113d157600080fd5b6113da846113a0565b92506113e8602085016113a0565b9150604084013590509250925092565b60006020828403121561140a57600080fd5b610e26826113a0565b60008060006040848603121561142857600080fd5b833567ffffffffffffffff8082111561144057600080fd5b818601915086601f83011261145457600080fd5b81358181111561146357600080fd5b8760208260051b850101111561147857600080fd5b6020928301989097509590910135949350505050565b6000602082840312156114a057600080fd5b5035919050565b634e487b7160e01b600052604160045260246000fd5b600080604083850312156114d057600080fd5b6114d9836113a0565b9150602083013567ffffffffffffffff808211156114f657600080fd5b818501915085601f83011261150a57600080fd5b81358181111561151c5761151c6114a7565b604051601f8201601f19908116603f01168101908382118183101715611544576115446114a7565b8160405282815288602084870101111561155d57600080fd5b8260208601602083013760006020848301015280955050505050509250929050565b6000806040838503121561159257600080fd5b50508035926020909101359150565b803560ff811681146113b757600080fd5b6000602082840312156115c457600080fd5b610e26826115a1565b600080604083850312156115e057600080fd5b6115e9836113a0565b91506115f7602084016115a1565b90509250929050565b6020808252602c908201527f46756e6374696f6e206d7573742062652063616c6c6564207468726f7567682060408201526b19195b1959d85d1958d85b1b60a21b606082015260800190565b6020808252602c908201527f46756e6374696f6e206d7573742062652063616c6c6564207468726f7567682060408201526b6163746976652070726f787960a01b606082015260800190565b634e487b7160e01b600052601160045260246000fd5b60ff8181168382160190811115610e1157610e11611698565b6000602082840312156116d957600080fd5b5051919050565b6020808252602b908201527f496e697469616c697a61626c653a20636f6e7472616374206973206e6f74206960408201526a6e697469616c697a696e6760a81b606082015260800190565b60006020828403121561173d57600080fd5b81518015158114610e2657600080fd5b634e487b7160e01b600052603260045260246000fd5b60006001820161177557611775611698565b5060010190565b60005b8381101561179757818101518382015260200161177f565b50506000910152565b600082516117b281846020870161177c565b9190910192915050565b60208152600082518060208401526117db81604085016020870161177c565b601f01601f1916919091016040019291505056fe360894a13ba1a3210667c828492db98dca3e2076cc3735a920a3ca505d382bbc416464726573733a206c6f772d6c6576656c2064656c65676174652063616c6c206661696c6564a264697066735822122057358849175b9f8687c9c803473d7c535cb7b195149d13e6b2b0e4ade335803564736f6c63430008100033",
    "linkReferences": {}
  },
  "methodIdentifiers": {
    "claim(bytes32[],uint256)": "3b439351",
    "claimed(address,uint8)": "fbb905e3",
    "currRound()": "3f5d8056",
    "initialize()": "8129fc1c",
    "merkleRoot()": "2eb4a7ab",
    "newRound(uint256,uint256)": "54681847",
    "owner()": "8da5cb5b",
    "proxiableUUID()": "52d1902d",
    "renounceOwnership()": "715018a6",
    "roundMap(uint8)": "5f7e4755",
    "setTokenAddr(address)": "2ebd1e28",
    "tokenAddr()": "5fbe4d1d",
    "tokenClaimBack(address,address,uint256)": "10b20274",
    "transferOwnership(address)": "f2fde38b",
    "updateMerkleRoot(bytes32)": "4783f0ef",
    "updateRound(uint256,uint256)": "6a5fcfdf",
    "upgradeTo(address)": "3659cfe6",
    "upgradeToAndCall(address,bytes)": "4f1ef286"
  },
  "id": 8
}