{
  "abi": [
    {
      "anonymous": false,
      "inputs": [
        {
          "indexed": true,
          "internalType": "address",
          "name": "owner",
          "type": "address"
        },
        {
          "indexed": true,
          "internalType": "address",
          "name": "spender",
          "type": "address"
        },
        {
          "indexed": false,
          "internalType": "uint256",
          "name": "value",
          "type": "uint256"
        }
      ],
      "name": "Approval",
      "type": "event"
    },
    {
      "anonymous": false,
      "inputs": [
        {
          "indexed": true,
          "internalType": "address",
          "name": "caller",
          "type": "address"
        },
        {
          "indexed": false,
          "internalType": "bool",
          "name": "value",
          "type": "bool"
        }
      ],
      "name": "BurnEnabled",
      "type": "event"
    },
    {
      "anonymous": false,
      "inputs": [
        {
          "indexed": false,
          "internalType": "uint8",
          "name": "version",
          "type": "uint8"
        }
      ],
      "name": "Initialized",
      "type": "event"
    },
    {
      "anonymous": false,
      "inputs": [
        {
          "indexed": false,
          "internalType": "address",
          "name": "account",
          "type": "address"
        }
      ],
      "name": "Paused",
      "type": "event"
    },
    {
      "anonymous": false,
      "inputs": [
        {
          "indexed": true,
          "internalType": "bytes32",
          "name": "role",
          "type": "bytes32"
        },
        {
          "indexed": true,
          "internalType": "bytes32",
          "name": "previousAdminRole",
          "type": "bytes32"
        },
        {
          "indexed": true,
          "internalType": "bytes32",
          "name": "newAdminRole",
          "type": "bytes32"
        }
      ],
      "name": "RoleAdminChanged",
      "type": "event"
    },
    {
      "anonymous": false,
      "inputs": [
        {
          "indexed": true,
          "internalType": "bytes32",
          "name": "role",
          "type": "bytes32"
        },
        {
          "indexed": true,
          "internalType": "address",
          "name": "account",
          "type": "address"
        },
        {
          "indexed": true,
          "internalType": "address",
          "name": "sender",
          "type": "address"
        }
      ],
      "name": "RoleGranted",
      "type": "event"
    },
    {
      "anonymous": false,
      "inputs": [
        {
          "indexed": true,
          "internalType": "bytes32",
          "name": "role",
          "type": "bytes32"
        },
        {
          "indexed": true,
          "internalType": "address",
          "name": "account",
          "type": "address"
        },
        {
          "indexed": true,
          "internalType": "address",
          "name": "sender",
          "type": "address"
        }
      ],
      "name": "RoleRevoked",
      "type": "event"
    },
    {
      "anonymous": false,
      "inputs": [
        {
          "indexed": true,
          "internalType": "address",
          "name": "from",
          "type": "address"
        },
        {
          "indexed": true,
          "internalType": "address",
          "name": "to",
          "type": "address"
        },
        {
          "indexed": false,
          "internalType": "uint256",
          "name": "value",
          "type": "uint256"
        }
      ],
      "name": "Transfer",
      "type": "event"
    },
    {
      "anonymous": false,
      "inputs": [
        {
          "indexed": true,
          "internalType": "address",
          "name": "caller",
          "type": "address"
        },
        {
          "indexed": false,
          "internalType": "bool",
          "name": "value",
          "type": "bool"
        }
      ],
      "name": "TransferEnabled",
      "type": "event"
    },
    {
      "anonymous": false,
      "inputs": [
        {
          "indexed": false,
          "internalType": "address",
          "name": "account",
          "type": "address"
        }
      ],
      "name": "Unpaused",
      "type": "event"
    },
    {
      "inputs": [],
      "name": "BURNER_ROLE",
      "outputs": [
        {
          "internalType": "bytes32",
          "name": "",
          "type": "bytes32"
        }
      ],
      "stateMutability": "view",
      "type": "function"
    },
    {
      "inputs": [],
      "name": "DEFAULT_ADMIN_ROLE",
      "outputs": [
        {
          "internalType": "bytes32",
          "name": "",
          "type": "bytes32"
        }
      ],
      "stateMutability": "view",
      "type": "function"
    },
    {
      "inputs": [],
      "name": "MINTER_ROLE",
      "outputs": [
        {
          "internalType": "bytes32",
          "name": "",
          "type": "bytes32"
        }
      ],
      "stateMutability": "view",
      "type": "function"
    },
    {
      "inputs": [],
      "name": "PAUSER_ROLE",
      "outputs": [
        {
          "internalType": "bytes32",
          "name": "",
          "type": "bytes32"
        }
      ],
      "stateMutability": "view",
      "type": "function"
    },
    {
      "inputs": [],
      "name": "TRANSFERRER_ROLE",
      "outputs": [
        {
          "internalType": "bytes32",
          "name": "",
          "type": "bytes32"
        }
      ],
      "stateMutability": "view",
      "type": "function"
    },
    {
      "inputs": [
        {
          "internalType": "uint256",
          "name": "amount",
          "type": "uint256"
        },
        {
          "internalType": "uint256",
          "name": "deadline",
          "type": "uint256"
        }
      ],
      "name": "addTransferLock",
      "outputs": [],
      "stateMutability": "nonpayable",
      "type": "function"
    },
    {
      "inputs": [
        {
          "internalType": "address",
          "name": "owner",
          "type": "address"
        },
        {
          "internalType": "address",
          "name": "spender",
          "type": "address"
        }
      ],
      "name": "allowance",
      "outputs": [
        {
          "internalType": "uint256",
          "name": "",
          "type": "uint256"
        }
      ],
      "stateMutability": "view",
      "type": "function"
    },
    {
      "inputs": [
        {
          "internalType": "address",
          "name": "account",
          "type": "address"
        },
        {
          "internalType": "address",
          "name": "recipient",
          "type": "address"
        }
      ],
      "name": "allowances",
      "outputs": [
        {
          "internalType": "uint8",
          "name": "",
          "type": "uint8"
        }
      ],
      "stateMutability": "view",
      "type": "function"
    },
    {
      "inputs": [
        {
          "internalType": "address",
          "name": "spender",
          "type": "address"
        },
        {
          "internalType": "uint256",
          "name": "amount",
          "type": "uint256"
        }
      ],
      "name": "approve",
      "outputs": [
        {
          "internalType": "bool",
          "name": "",
          "type": "bool"
        }
      ],
      "stateMutability": "nonpayable",
      "type": "function"
    },
    {
      "inputs": [
        {
          "internalType": "address",
          "name": "owner",
          "type": "address"
        }
      ],
      "name": "balanceOf",
      "outputs": [
        {
          "internalType": "uint256",
          "name": "",
          "type": "uint256"
        }
      ],
      "stateMutability": "view",
      "type": "function"
    },
    {
      "inputs": [
        {
          "internalType": "address[]",
          "name": "recipients",
          "type": "address[]"
        },
        {
          "internalType": "uint256[]",
          "name": "amounts",
          "type": "uint256[]"
        },
        {
          "internalType": "uint256[]",
          "name": "deadlines",
          "type": "uint256[]"
        }
      ],
      "name": "batchTransferWithLocks",
      "outputs": [],
      "stateMutability": "nonpayable",
      "type": "function"
    },
    {
      "inputs": [
        {
          "internalType": "uint256",
          "name": "amount",
          "type": "uint256"
        }
      ],
      "name": "burn",
      "outputs": [],
      "stateMutability": "nonpayable",
      "type": "function"
    },
    {
      "inputs": [
        {
          "internalType": "address",
          "name": "account",
          "type": "address"
        },
        {
          "internalType": "uint256",
          "name": "amount",
          "type": "uint256"
        }
      ],
      "name": "burnFrom",
      "outputs": [],
      "stateMutability": "nonpayable",
      "type": "function"
    },
    {
      "inputs": [],
      "name": "burnable",
      "outputs": [
        {
          "internalType": "bool",
          "name": "",
          "type": "bool"
        }
      ],
      "stateMutability": "view",
      "type": "function"
    },
    {
      "inputs": [],
      "name": "cap",
      "outputs": [
        {
          "internalType": "uint256",
          "name": "",
          "type": "uint256"
        }
      ],
      "stateMutability": "view",
      "type": "function"
    },
    {
      "inputs": [],
      "name": "decimals",
      "outputs": [
        {
          "internalType": "uint8",
          "name": "",
          "type": "uint8"
        }
      ],
      "stateMutability": "view",
      "type": "function"
    },
    {
      "inputs": [
        {
          "internalType": "address",
          "name": "spender",
          "type": "address"
        },
        {
          "internalType": "uint256",
          "name": "subtractedValue",
          "type": "uint256"
        }
      ],
      "name": "decreaseAllowance",
      "outputs": [
        {
          "internalType": "bool",
          "name": "",
          "type": "bool"
        }
      ],
      "stateMutability": "nonpayable",
      "type": "function"
    },
    {
      "inputs": [
        {
          "internalType": "address",
          "name": "account",
          "type": "address"
        },
        {
          "internalType": "uint8",
          "name": "amount",
          "type": "uint8"
        }
      ],
      "name": "decreaseTransferLockAllowance",
      "outputs": [],
      "stateMutability": "nonpayable",
      "type": "function"
    },
    {
      "inputs": [],
      "name": "disableBurn",
      "outputs": [],
      "stateMutability": "nonpayable",
      "type": "function"
    },
    {
      "inputs": [],
      "name": "disableTransfer",
      "outputs": [],
      "stateMutability": "nonpayable",
      "type": "function"
    },
    {
      "inputs": [],
      "name": "enableBurn",
      "outputs": [],
      "stateMutability": "nonpayable",
      "type": "function"
    },
    {
      "inputs": [],
      "name": "enableTransfer",
      "outputs": [],
      "stateMutability": "nonpayable",
      "type": "function"
    },
    {
      "inputs": [
        {
          "internalType": "address",
          "name": "account",
          "type": "address"
        }
      ],
      "name": "getAvailableBalance",
      "outputs": [
        {
          "internalType": "uint256",
          "name": "amount",
          "type": "uint256"
        }
      ],
      "stateMutability": "view",
      "type": "function"
    },
    {
      "inputs": [
        {
          "internalType": "address",
          "name": "account",
          "type": "address"
        },
        {
          "internalType": "uint256",
          "name": "timestamp",
          "type": "uint256"
        }
      ],
      "name": "getAvailableBalanceAt",
      "outputs": [
        {
          "internalType": "uint256",
          "name": "amount",
          "type": "uint256"
        }
      ],
      "stateMutability": "view",
      "type": "function"
    },
    {
      "inputs": [
        {
          "internalType": "bytes32",
          "name": "role",
          "type": "bytes32"
        }
      ],
      "name": "getRoleAdmin",
      "outputs": [
        {
          "internalType": "bytes32",
          "name": "",
          "type": "bytes32"
        }
      ],
      "stateMutability": "view",
      "type": "function"
    },
    {
      "inputs": [
        {
          "internalType": "address",
          "name": "account",
          "type": "address"
        }
      ],
      "name": "getTransferLockTotal",
      "outputs": [
        {
          "internalType": "uint256",
          "name": "amount",
          "type": "uint256"
        }
      ],
      "stateMutability": "view",
      "type": "function"
    },
    {
      "inputs": [
        {
          "internalType": "address",
          "name": "account",
          "type": "address"
        },
        {
          "internalType": "uint256",
          "name": "timestamp",
          "type": "uint256"
        }
      ],
      "name": "getTransferLockTotalAt",
      "outputs": [
        {
          "internalType": "uint256",
          "name": "amount",
          "type": "uint256"
        }
      ],
      "stateMutability": "view",
      "type": "function"
    },
    {
      "inputs": [
        {
          "internalType": "bytes32",
          "name": "role",
          "type": "bytes32"
        },
        {
          "internalType": "address",
          "name": "account",
          "type": "address"
        }
      ],
      "name": "grantRole",
      "outputs": [],
      "stateMutability": "nonpayable",
      "type": "function"
    },
    {
      "inputs": [
        {
          "internalType": "bytes32",
          "name": "role",
          "type": "bytes32"
        },
        {
          "internalType": "address",
          "name": "account",
          "type": "address"
        }
      ],
      "name": "hasRole",
      "outputs": [
        {
          "internalType": "bool",
          "name": "",
          "type": "bool"
        }
      ],
      "stateMutability": "view",
      "type": "function"
    },
    {
      "inputs": [
        {
          "internalType": "address",
          "name": "spender",
          "type": "address"
        },
        {
          "internalType": "uint256",
          "name": "addedValue",
          "type": "uint256"
        }
      ],
      "name": "increaseAllowance",
      "outputs": [
        {
          "internalType": "bool",
          "name": "",
          "type": "bool"
        }
      ],
      "stateMutability": "nonpayable",
      "type": "function"
    },
    {
      "inputs": [
        {
          "internalType": "address",
          "name": "account",
          "type": "address"
        },
        {
          "internalType": "uint8",
          "name": "amount",
          "type": "uint8"
        }
      ],
      "name": "increaseTransferLockAllowance",
      "outputs": [],
      "stateMutability": "nonpayable",
      "type": "function"
    },
    {
      "inputs": [
        {
          "internalType": "address",
          "name": "admin",
          "type": "address"
        },
        {
          "internalType": "string",
          "name": "tokenName",
          "type": "string"
        },
        {
          "internalType": "string",
          "name": "tokenSymbol",
          "type": "string"
        },
        {
          "internalType": "uint256",
          "name": "supplyCap",
          "type": "uint256"
        }
      ],
      "name": "initialize",
      "outputs": [],
      "stateMutability": "nonpayable",
      "type": "function"
    },
    {
      "inputs": [
        {
          "internalType": "address",
          "name": "to",
          "type": "address"
        },
        {
          "internalType": "uint256",
          "name": "amount",
          "type": "uint256"
        }
      ],
      "name": "mint",
      "outputs": [],
      "stateMutability": "nonpayable",
      "type": "function"
    },
    {
      "inputs": [],
      "name": "name",
      "outputs": [
        {
          "internalType": "string",
          "name": "",
          "type": "string"
        }
      ],
      "stateMutability": "view",
      "type": "function"
    },
    {
      "inputs": [],
      "name": "pause",
      "outputs": [],
      "stateMutability": "nonpayable",
      "type": "function"
    },
    {
      "inputs": [],
      "name": "paused",
      "outputs": [
        {
          "internalType": "bool",
          "name": "",
          "type": "bool"
        }
      ],
      "stateMutability": "view",
      "type": "function"
    },
    {
      "inputs": [
        {
          "internalType": "bytes32",
          "name": "role",
          "type": "bytes32"
        },
        {
          "internalType": "address",
          "name": "account",
          "type": "address"
        }
      ],
      "name": "renounceRole",
      "outputs": [],
      "stateMutability": "nonpayable",
      "type": "function"
    },
    {
      "inputs": [
        {
          "internalType": "bytes32",
          "name": "role",
          "type": "bytes32"
        },
        {
          "internalType": "address",
          "name": "account",
          "type": "address"
        }
      ],
      "name": "revokeRole",
      "outputs": [],
      "stateMutability": "nonpayable",
      "type": "function"
    },
    {
      "inputs": [
        {
          "internalType": "bytes4",
          "name": "interfaceId",
          "type": "bytes4"
        }
      ],
      "name": "supportsInterface",
      "outputs": [
        {
          "internalType": "bool",
          "name": "",
          "type": "bool"
        }
      ],
      "stateMutability": "view",
      "type": "function"
    },
    {
      "inputs": [],
      "name": "symbol",
      "outputs": [
        {
          "internalType": "string",
          "name": "",
          "type": "string"
        }
      ],
      "stateMutability": "view",
      "type": "function"
    },
    {
      "inputs": [],
      "name": "totalSupply",
      "outputs": [
        {
          "internalType": "uint256",
          "name": "",
          "type": "uint256"
        }
      ],
      "stateMutability": "view",
      "type": "function"
    },
    {
      "inputs": [
        {
          "internalType": "address",
          "name": "to",
          "type": "address"
        },
        {
          "internalType": "uint256",
          "name": "amount",
          "type": "uint256"
        }
      ],
      "name": "transfer",
      "outputs": [
        {
          "internalType": "bool",
          "name": "",
          "type": "bool"
        }
      ],
      "stateMutability": "nonpayable",
      "type": "function"
    },
    {
      "inputs": [
        {
          "internalType": "address",
          "name": "from",
          "type": "address"
        },
        {
          "internalType": "address",
          "name": "to",
          "type": "address"
        },
        {
          "internalType": "uint256",
          "name": "amount",
          "type": "uint256"
        }
      ],
      "name": "transferFrom",
      "outputs": [
        {
          "internalType": "bool",
          "name": "",
          "type": "bool"
        }
      ],
      "stateMutability": "nonpayable",
      "type": "function"
    },
    {
      "inputs": [
        {
          "internalType": "address",
          "name": "recipient",
          "type": "address"
        },
        {
          "internalType": "uint256",
          "name": "amount",
          "type": "uint256"
        },
        {
          "internalType": "uint256",
          "name": "deadline",
          "type": "uint256"
        }
      ],
      "name": "transferWithLock",
      "outputs": [],
      "stateMutability": "nonpayable",
      "type": "function"
    },
    {
      "inputs": [],
      "name": "transferrable",
      "outputs": [
        {
          "internalType": "bool",
          "name": "",
          "type": "bool"
        }
      ],
      "stateMutability": "view",
      "type": "function"
    },
    {
      "inputs": [],
      "name": "unpause",
      "outputs": [],
      "stateMutability": "nonpayable",
      "type": "function"
    }
  ],
  "bytecode": {
    "object": "0x60806040523480156200001157600080fd5b506200001c62000022565b620000e3565b600054610100900460ff16156200008f5760405162461bcd60e51b815260206004820152602760248201527f496e697469616c697a61626c653a20636f6e747261637420697320696e697469604482015266616c697a696e6760c81b606482015260840160405180910390fd5b60005460ff90811614620000e1576000805460ff191660ff9081179091556040519081527f7f26b83ff96e1f2b6a682f133852f6798a09c465da95921460cefb38474024989060200160405180910390a15b565b6130dd80620000f36000396000f3fe608060405234801561001057600080fd5b506004361061028a5760003560e01c80635c975abb1161015c578063a457c2d7116100ce578063dd62ed3e11610087578063dd62ed3e14610561578063de6baccb14610574578063e63ab1e914610587578063e672ce3a1461059c578063e851b720146105af578063f1b50c1d146105c257600080fd5b8063a457c2d7146104e6578063a9059cbb146104f9578063b187984f1461050c578063d539139314610514578063d547741f1461053b578063d90964cd1461054e57600080fd5b806379cc67901161012057806379cc67901461049c5780638456cb59146104af57806391d14854146104b757806395d89b41146104ca578063a07c7ce4146104d2578063a217fddf146104de57600080fd5b80635c975abb146104435780636239d4a31461044e57806363ac5d97146104615780636c24a76f1461047657806370a082311461048957600080fd5b80632f2ff15d116102005780633def6038116101b95780633def6038146103dc5780633f4ba83a146103ef57806340c10f19146103f757806342966c681461040a5780634d12d4b61461041d57806355b6ed5c1461043057600080fd5b80632f2ff15d1461037d578063313ce56714610390578063355274ea146103a557806336568abe146103ae57806339509351146103c15780633b37d1d6146103d457600080fd5b80631f1eb79b116102525780631f1eb79b1461030257806323b872dd146103175780632403c08e1461032a578063248a9ca314610332578063282c51f3146103555780632909ae011461036a57600080fd5b806301ffc9a71461028f578063047a7ef1146102b757806306fdde03146102c8578063095ea7b3146102dd57806318160ddd146102f0575b600080fd5b6102a261029d366004612704565b6105ca565b60405190151581526020015b60405180910390f35b61016054610100900460ff166102a2565b6102d06105f5565b6040516102ae9190612752565b6102a26102eb3660046127a1565b610604565b6035545b6040519081526020016102ae565b6103156103103660046127cb565b61061c565b005b6102a2610325366004612808565b61065c565b6103156106b8565b6102f4610340366004612844565b600090815260fb602052604090206001015490565b6102f460008051602061302883398151915281565b6102f461037836600461285d565b610760565b61031561038b366004612878565b61076c565b60125b60405160ff90911681526020016102ae565b61012d546102f4565b6103156103bc366004612878565b610796565b6102a26103cf3660046127a1565b610810565b610315610832565b6103156103ea3660046128f0565b6108a6565b610315610a17565b6103156104053660046127a1565b610a3a565b610315610418366004612844565b610a6e565b61031561042b366004612a2d565b610ab9565b61039361043e366004612aa9565b610dd6565b60975460ff166102a2565b61031561045c3660046127cb565b610e28565b6102f460008051602061306883398151915281565b6102f461048436600461285d565b610e5b565b6102f461049736600461285d565b610e67565b6103156104aa3660046127a1565b610e85565b610315610ed1565b6102a26104c5366004612878565b610ef1565b6102d0610f1c565b6101605460ff166102a2565b6102f4600081565b6102a26104f43660046127a1565b610fae565b6102a26105073660046127a1565b611034565b610315611087565b6102f47f9f2df0fed2c77648de5860a4cc508cd0818c85b8b8a1ab4ceeef8d981c8956a681565b610315610549366004612878565b611133565b6102f461055c3660046127a1565b611158565b6102f461056f366004612aa9565b611164565b610315610582366004612ad3565b61118f565b6102f460008051602061308883398151915281565b6103156105aa366004612b06565b611288565b6102f46105bd3660046127a1565b611303565b610315611326565b60006001600160e01b03198216632c892b1760e11b14806105ef57506105ef826113ad565b92915050565b60606105ff6113b8565b905090565b6000336106128185856113c7565b5060019392505050565b336001600160a01b0383160361064d5760405162461bcd60e51b815260040161064490612b28565b60405180910390fd5b6106583383836114eb565b5050565b600061067660008051602061306883398151915233610ef1565b80610689575061016054610100900460ff165b6106a55760405162461bcd60e51b815260040161064490612b85565b6106b0848484611644565b949350505050565b60006106c38161165d565b6106db60008051602061302883398151915233610ef1565b806106e957506101605460ff165b6107055760405162461bcd60e51b815260040161064490612bca565b610160805460ff19169055335b6101605460405160ff909116151581526001600160a01b0391909116907f373d051cc9c39a097512f5befac8840dd3395ef720e43a8d0f62d1756e0bb924906020015b60405180910390a250565b60006105ef8242611667565b600082815260fb60205260409020600101546107878161165d565b610791838361174e565b505050565b6001600160a01b03811633146108065760405162461bcd60e51b815260206004820152602f60248201527f416363657373436f6e74726f6c3a2063616e206f6e6c792072656e6f756e636560448201526e103937b632b9903337b91039b2b63360891b6064820152608401610644565b61065882826117d4565b6000336106128185856108238383611164565b61082d9190612c17565b6113c7565b600061083d8161165d565b6101605460ff16156108915760405162461bcd60e51b815260206004820152601c60248201527f4275726e61626c653a206275726e696e6720697320656e61626c6564000000006044820152606401610644565b610160805460ff191660011790556107123390565b84831461091b5760405162461bcd60e51b815260206004820152603c60248201527f5472616e736665724c6f636b3a20726563697069656e747320616e6420616d6f60448201527f756e7473206d757374206265207468652073616d65206c656e677468000000006064820152608401610644565b8481146109905760405162461bcd60e51b815260206004820152603e60248201527f5472616e736665724c6f636b3a20726563697069656e747320616e642064656160448201527f646c696e6573206d757374206265207468652073616d65206c656e67746800006064820152608401610644565b60005b85811015610a0e576109fc8787838181106109b0576109b0612c2a565b90506020020160208101906109c5919061285d565b8686848181106109d7576109d7612c2a565b905060200201358585858181106109f0576109f0612c2a565b9050602002013561118f565b80610a0681612c40565b915050610993565b50505050505050565b600080516020613088833981519152610a2f8161165d565b610a3761183b565b50565b7f9f2df0fed2c77648de5860a4cc508cd0818c85b8b8a1ab4ceeef8d981c8956a6610a648161165d565b610791838361188d565b610a8660008051602061302883398151915233610ef1565b80610a9457506101605460ff165b610ab05760405162461bcd60e51b815260040161064490612bca565b610a3781611897565b600054610100900460ff1615808015610ad95750600054600160ff909116105b80610af35750303b158015610af3575060005460ff166001145b610b565760405162461bcd60e51b815260206004820152602e60248201527f496e697469616c697a61626c653a20636f6e747261637420697320616c72656160448201526d191e481a5b9a5d1a585b1a5e995960921b6064820152608401610644565b6000805460ff191660011790558015610b79576000805461ff0019166101001790555b6001600160a01b038516610bcf5760405162461bcd60e51b815260206004820152601c60248201527f41646d696e20616464726573732063616e6e6f74206265207a65726f000000006044820152606401610644565b6040805160208082015260009181018290526060016040516020818303038152906040528051906020012090508085604051602001610c0e9190612752565b6040516020818303038152906040528051906020012003610c7f5760405162461bcd60e51b815260206004820152602560248201527f4552433230426173653a20546f6b656e206e616d652063616e6e6f7420626520604482015264656d70747960d81b6064820152608401610644565b8084604051602001610c919190612752565b6040516020818303038152906040528051906020012003610d045760405162461bcd60e51b815260206004820152602760248201527f4552433230426173653a20546f6b656e2073796d626f6c2063616e6e6f7420626044820152666520656d70747960c81b6064820152608401610644565b610d0c6118a1565b610d146118a1565b610d1d836118ca565b610d2785856118fa565b610d2f61192b565b610d3a60008761174e565b610d647f9f2df0fed2c77648de5860a4cc508cd0818c85b8b8a1ab4ceeef8d981c8956a68761174e565b610d7c6000805160206130888339815191528761174e565b50610160805461ffff191690558015610dcf576000805461ff0019169055604051600181527f7f26b83ff96e1f2b6a682f133852f6798a09c465da95921460cefb38474024989060200160405180910390a15b5050505050565b6001600160a01b0380831660009081527fde59cf009759767a48aa56366ad77af93d2a112ef08516a1a2a182a8146539116020908152604080832093851683529290529081205460ff165b9392505050565b336001600160a01b03831603610e505760405162461bcd60e51b815260040161064490612b28565b61065833838361195a565b60006105ef8242611303565b6001600160a01b0381166000908152603360205260408120546105ef565b610e9d60008051602061302883398151915233610ef1565b80610eab57506101605460ff165b610ec75760405162461bcd60e51b815260040161064490612bca565b6106588282611a91565b600080516020613088833981519152610ee98161165d565b610a37611aa6565b600091825260fb602090815260408084206001600160a01b0393909316845291905290205460ff1690565b606060378054610f2b90612c59565b80601f0160208091040260200160405190810160405280929190818152602001828054610f5790612c59565b8015610fa45780601f10610f7957610100808354040283529160200191610fa4565b820191906000526020600020905b815481529060010190602001808311610f8757829003601f168201915b5050505050905090565b60003381610fbc8286611164565b90508381101561101c5760405162461bcd60e51b815260206004820152602560248201527f45524332303a2064656372656173656420616c6c6f77616e63652062656c6f77604482015264207a65726f60d81b6064820152608401610644565b61102982868684036113c7565b506001949350505050565b600061104e60008051602061306883398151915233610ef1565b80611061575061016054610100900460ff165b61107d5760405162461bcd60e51b815260040161064490612b85565b610e218383611ae3565b60006110928161165d565b6110aa60008051602061306883398151915233610ef1565b806110bd575061016054610100900460ff165b6110d95760405162461bcd60e51b815260040161064490612b85565b610160805461ff0019169055335b6001600160a01b03167f750bc2ec2b9643783080f064b960113af5a2a708345c7e3cf509ca7fec55e24461016060019054906101000a900460ff16604051610755911515815260200190565b600082815260fb602052604090206001015461114e8161165d565b61079183836117d4565b6000610e218383611667565b6001600160a01b03918216600090815260346020908152604080832093909416825291909152205490565b8181600082116111b15760405162461bcd60e51b815260040161064490612c93565b4281116111d05760405162461bcd60e51b815260040161064490612ce1565b6111da3342611303565b8211156111f95760405162461bcd60e51b815260040161064490612d2d565b6001600160a01b0385161580159061121a57506001600160a01b0385163314155b6112665760405162461bcd60e51b815260206004820152601f60248201527f5472616e736665724c6f636b3a20696e76616c696420726563697069656e74006044820152606401610644565b611272853360016114eb565b61127d338686611aed565b610dcf858585611ca3565b8181600082116112aa5760405162461bcd60e51b815260040161064490612c93565b4281116112c95760405162461bcd60e51b815260040161064490612ce1565b6112d33342611303565b8211156112f25760405162461bcd60e51b815260040161064490612d2d565b6112fd338585611ca3565b50505050565b6000806113108484611667565b90508061131c85610e67565b6106b09190612d81565b60006113318161165d565b61016054610100900460ff16156113965760405162461bcd60e51b8152602060048201526024808201527f5472616e736665727261626c653a207472616e73666572732061726520656e61604482015263189b195960e21b6064820152608401610644565b610160805461ff0019166101001790556110e73390565b60006105ef82611fa7565b606060368054610f2b90612c59565b6001600160a01b0383166114295760405162461bcd60e51b8152602060048201526024808201527f45524332303a20617070726f76652066726f6d20746865207a65726f206164646044820152637265737360e01b6064820152608401610644565b6001600160a01b03821661148a5760405162461bcd60e51b815260206004820152602260248201527f45524332303a20617070726f766520746f20746865207a65726f206164647265604482015261737360f01b6064820152608401610644565b6001600160a01b0383811660008181526034602090815260408083209487168084529482529182902085905590518481527f8c5be1e5ebec7d5bd14f71427d1e84f3dd0314c0f7b2291e5b200ac8c7c3b925910160405180910390a3505050565b6001600160a01b0383811660009081527fde59cf009759767a48aa56366ad77af93d2a112ef08516a1a2a182a81465391160209081526040808320938616835292905220546000805160206130488339815191529060ff838116911610156115a35760405162461bcd60e51b815260206004820152602560248201527f5472616e736665724c6f636b733a20696e73756666696369656e7420616c6c6f60448201526477616e636560d81b6064820152608401610644565b6001600160a01b0384166000908152600382016020526040812080548492906115d090849060ff16612d94565b82546101009290920a60ff8181021990931691831602179091556001600160a01b038681166000908152600185016020908152604080832093891683529290529081208054869450909261162691859116612d94565b92506101000a81548160ff021916908360ff16021790555050505050565b600033611652858285611fdc565b611029858585611aed565b610a378133612050565b6001600160a01b03821660009081527fde59cf009759767a48aa56366ad77af93d2a112ef08516a1a2a182a814653914602052604081205460008051602061304883398151915290829060ff165b6001600160a01b038616600090815260058401602052604090205460ff168111611745576001600160a01b0386166000908152602084815260408083208484529091529020600101548511611733576001600160a01b0386166000908152602084815260408083208484529091529020546117309083612c17565b91505b8061173d81612c40565b9150506116b5565b50949350505050565b6117588282610ef1565b61065857600082815260fb602090815260408083206001600160a01b03851684529091529020805460ff191660011790556117903390565b6001600160a01b0316816001600160a01b0316837f2f8788117e7eff1d82e926ec794901d17c78024a50270940304540a733656f0d60405160405180910390a45050565b6117de8282610ef1565b1561065857600082815260fb602090815260408083206001600160a01b0385168085529252808320805460ff1916905551339285917ff6391f5c32d9c69d2a47ea670b442974b53935d1edc7fd64eb21e047a839171b9190a45050565b6118436120a9565b6097805460ff191690557f5db9ee0a495bf2e6ff9c91a7834c1ba4fdd244a5e8aa4e537bd38aeae4b073aa335b6040516001600160a01b03909116815260200160405180910390a1565b61065882826120f2565b610a373382612162565b600054610100900460ff166118c85760405162461bcd60e51b815260040161064490612dad565b565b600054610100900460ff166118f15760405162461bcd60e51b815260040161064490612dad565b610a37816122a2565b600054610100900460ff166119215760405162461bcd60e51b815260040161064490612dad565b6106588282612317565b600054610100900460ff166119525760405162461bcd60e51b815260040161064490612dad565b6118c8612357565b6001600160a01b03831660009081527fde59cf009759767a48aa56366ad77af93d2a112ef08516a1a2a182a81465391360209081526040808320547fde59cf009759767a48aa56366ad77af93d2a112ef08516a1a2a182a81465391290925290912054600080516020613048833981519152916119dd9160ff9182169116612df8565b60ff168260ff6119ed9190612d94565b60ff161015611a0e5760405162461bcd60e51b815260040161064490612e11565b6001600160a01b038416600090815260038201602052604081208054849290611a3b90849060ff16612df8565b82546101009290920a60ff8181021990931691831602179091556001600160a01b038681166000908152600185016020908152604080832093891683529290529081208054869450909261162691859116612df8565b611a9c823383611fdc565b6106588282612162565b611aae61238a565b6097805460ff191660011790557f62e78cea01bee320cd4e420270b5ea74000d11b0c9f74754ebdbfc544b05a2586118703390565b6000336106128185855b6001600160a01b038316611b515760405162461bcd60e51b815260206004820152602560248201527f45524332303a207472616e736665722066726f6d20746865207a65726f206164604482015264647265737360d81b6064820152608401610644565b6001600160a01b038216611bb35760405162461bcd60e51b815260206004820152602360248201527f45524332303a207472616e7366657220746f20746865207a65726f206164647260448201526265737360e81b6064820152608401610644565b611bbe8383836123d0565b6001600160a01b03831660009081526033602052604090205481811015611c365760405162461bcd60e51b815260206004820152602660248201527f45524332303a207472616e7366657220616d6f756e7420657863656564732062604482015265616c616e636560d01b6064820152608401610644565b6001600160a01b0380851660008181526033602052604080822086860390559286168082529083902080548601905591517fddf252ad1be2c89b69c2b068fc378daa952ba7f163c4a11628f55a4df523b3ef90611c969086815260200190565b60405180910390a36112fd565b6000805160206130488339815191525b6001600160a01b038416600090815260028201602052604090205460ff1615801590611d0e57506001600160a01b0384166000908152602082815260408083206004850183528184205460ff16845290915290206001015442115b15611ddb576001600160a01b03841660008181526020838152604080832060048601808452828520805460ff908116875292855292852085815560018181018790556002820187905560039091018690559585529092528054909291611d7691859116612df8565b82546101009290920a60ff8181021990931691831602179091556001600160a01b038616600090815260028401602052604081208054600194509092611dbe91859116612d94565b92506101000a81548160ff021916908360ff160217905550611cb3565b6001600160a01b03841660009081526003820160209081526040808320546002850190925290912054611e149160ff9081169116612df8565b60ff16600160ff611e259190612d94565b60ff161015611e465760405162461bcd60e51b815260040161064490612e11565b6001600160a01b03841660008181526002808401602090815260408084205481516080810183528981528084018981528184018781526060830188815298885289865284882060ff9094168089529390955292862090518155915160018301559151928101929092559251600390910155819003611efc576001600160a01b03851660009081526004830160209081526040808320805460ff199081169091556005860190925290912080549091169055611f5a565b6001600160a01b03851660008181526005840160208181526040808420805488845282862060ff898116808952828752858920938216600390940193909355835416875284529185206002018290559490935252815460ff19161790555b6001600160a01b03851660009081526002830160205260408120805460019290611f8890849060ff16612df8565b92506101000a81548160ff021916908360ff1602179055505050505050565b60006001600160e01b03198216637965db0b60e01b14806105ef57506301ffc9a760e01b6001600160e01b03198316146105ef565b6000611fe88484611164565b905060001981146112fd57818110156120435760405162461bcd60e51b815260206004820152601d60248201527f45524332303a20696e73756666696369656e7420616c6c6f77616e63650000006044820152606401610644565b6112fd84848484036113c7565b61205a8282610ef1565b6106585761206781612481565b612072836020612493565b604051602001612083929190612e6e565b60408051601f198184030181529082905262461bcd60e51b825261064491600401612752565b60975460ff166118c85760405162461bcd60e51b815260206004820152601460248201527314185d5cd8589b194e881b9bdd081c185d5cd95960621b6044820152606401610644565b61012d548161210060355490565b61210a9190612c17565b11156121585760405162461bcd60e51b815260206004820152601960248201527f45524332304361707065643a20636170206578636565646564000000000000006044820152606401610644565b610658828261262f565b6001600160a01b0382166121c25760405162461bcd60e51b815260206004820152602160248201527f45524332303a206275726e2066726f6d20746865207a65726f206164647265736044820152607360f81b6064820152608401610644565b6121ce826000836123d0565b6001600160a01b038216600090815260336020526040902054818110156122425760405162461bcd60e51b815260206004820152602260248201527f45524332303a206275726e20616d6f756e7420657863656564732062616c616e604482015261636560f01b6064820152608401610644565b6001600160a01b03831660008181526033602090815260408083208686039055603580548790039055518581529192917fddf252ad1be2c89b69c2b068fc378daa952ba7f163c4a11628f55a4df523b3ef910160405180910390a3505050565b600054610100900460ff166122c95760405162461bcd60e51b815260040161064490612dad565b600081116123115760405162461bcd60e51b8152602060048201526015602482015274045524332304361707065643a20636170206973203605c1b6044820152606401610644565b61012d55565b600054610100900460ff1661233e5760405162461bcd60e51b815260040161064490612dad565b603661234a8382612f31565b5060376107918282612f31565b600054610100900460ff1661237e5760405162461bcd60e51b815260040161064490612dad565b6097805460ff19169055565b60975460ff16156118c85760405162461bcd60e51b815260206004820152601060248201526f14185d5cd8589b194e881c185d5cd95960821b6044820152606401610644565b60006123db84610760565b90506000811180156123f55750816123f285610e67565b10155b1561247657808261240586610e67565b61240f9190612d81565b10156124765760405162461bcd60e51b815260206004820152603060248201527f5472616e736665724c6f636b3a2074686973206578636565647320796f75722060448201526f756e6c6f636b65642062616c616e636560801b6064820152608401610644565b6112fd8484846126fc565b60606105ef6001600160a01b03831660145b606060006124a2836002612ff1565b6124ad906002612c17565b67ffffffffffffffff8111156124c5576124c561298a565b6040519080825280601f01601f1916602001820160405280156124ef576020820181803683370190505b509050600360fc1b8160008151811061250a5761250a612c2a565b60200101906001600160f81b031916908160001a905350600f60fb1b8160018151811061253957612539612c2a565b60200101906001600160f81b031916908160001a905350600061255d846002612ff1565b612568906001612c17565b90505b60018111156125e0576f181899199a1a9b1b9c1cb0b131b232b360811b85600f166010811061259c5761259c612c2a565b1a60f81b8282815181106125b2576125b2612c2a565b60200101906001600160f81b031916908160001a90535060049490941c936125d981613010565b905061256b565b508315610e215760405162461bcd60e51b815260206004820181905260248201527f537472696e67733a20686578206c656e67746820696e73756666696369656e746044820152606401610644565b6001600160a01b0382166126855760405162461bcd60e51b815260206004820152601f60248201527f45524332303a206d696e7420746f20746865207a65726f2061646472657373006044820152606401610644565b612691600083836123d0565b80603560008282546126a39190612c17565b90915550506001600160a01b0382166000818152603360209081526040808320805486019055518481527fddf252ad1be2c89b69c2b068fc378daa952ba7f163c4a11628f55a4df523b3ef910160405180910390a35050565b61079161238a565b60006020828403121561271657600080fd5b81356001600160e01b031981168114610e2157600080fd5b60005b83811015612749578181015183820152602001612731565b50506000910152565b602081526000825180602084015261277181604085016020870161272e565b601f01601f19169190910160400192915050565b80356001600160a01b038116811461279c57600080fd5b919050565b600080604083850312156127b457600080fd5b6127bd83612785565b946020939093013593505050565b600080604083850312156127de57600080fd5b6127e783612785565b9150602083013560ff811681146127fd57600080fd5b809150509250929050565b60008060006060848603121561281d57600080fd5b61282684612785565b925061283460208501612785565b9150604084013590509250925092565b60006020828403121561285657600080fd5b5035919050565b60006020828403121561286f57600080fd5b610e2182612785565b6000806040838503121561288b57600080fd5b8235915061289b60208401612785565b90509250929050565b60008083601f8401126128b657600080fd5b50813567ffffffffffffffff8111156128ce57600080fd5b6020830191508360208260051b85010111156128e957600080fd5b9250929050565b6000806000806000806060878903121561290957600080fd5b863567ffffffffffffffff8082111561292157600080fd5b61292d8a838b016128a4565b9098509650602089013591508082111561294657600080fd5b6129528a838b016128a4565b9096509450604089013591508082111561296b57600080fd5b5061297889828a016128a4565b979a9699509497509295939492505050565b634e487b7160e01b600052604160045260246000fd5b600082601f8301126129b157600080fd5b813567ffffffffffffffff808211156129cc576129cc61298a565b604051601f8301601f19908116603f011681019082821181831017156129f4576129f461298a565b81604052838152866020858801011115612a0d57600080fd5b836020870160208301376000602085830101528094505050505092915050565b60008060008060808587031215612a4357600080fd5b612a4c85612785565b9350602085013567ffffffffffffffff80821115612a6957600080fd5b612a75888389016129a0565b94506040870135915080821115612a8b57600080fd5b50612a98878288016129a0565b949793965093946060013593505050565b60008060408385031215612abc57600080fd5b612ac583612785565b915061289b60208401612785565b600080600060608486031215612ae857600080fd5b612af184612785565b95602085013595506040909401359392505050565b60008060408385031215612b1957600080fd5b50508035926020909101359150565b60208082526038908201527f5472616e736665724c6f636b3a206163636f756e747320646f206e6f74206e6560408201527f656420746f20617070726f7665207468656d73656c7665730000000000000000606082015260800190565b60208082526025908201527f5472616e736665727261626c653a207472616e7366657273206172652064697360408201526418589b195960da1b606082015260800190565b6020808252601d908201527f4275726e61626c653a206275726e696e672069732064697361626c6564000000604082015260600190565b634e487b7160e01b600052601160045260246000fd5b808201808211156105ef576105ef612c01565b634e487b7160e01b600052603260045260246000fd5b600060018201612c5257612c52612c01565b5060010190565b600181811c90821680612c6d57607f821691505b602082108103612c8d57634e487b7160e01b600052602260045260246000fd5b50919050565b6020808252602e908201527f5472616e736665724c6f636b3a20616d6f756e74206d7573742062652067726560408201526d61746572207468616e207a65726f60901b606082015260800190565b6020808252602c908201527f5472616e736665724c6f636b3a20646561646c696e65206d757374206265206960408201526b6e207468652066757475726560a01b606082015260800190565b60208082526034908201527f5472616e736665724c6f636b3a20616d6f756e742063616e6e6f742065786365604082015273656420617661696c61626c652062616c616e636560601b606082015260800190565b818103818111156105ef576105ef612c01565b60ff82811682821603908111156105ef576105ef612c01565b6020808252602b908201527f496e697469616c697a61626c653a20636f6e7472616374206973206e6f74206960408201526a6e697469616c697a696e6760a81b606082015260800190565b60ff81811683821601908111156105ef576105ef612c01565b6020808252603d908201527f5472616e736665724c6f636b733a2063616e6e6f7420657863656564206d617860408201527f206163636f756e74206c6f636b7320616e6420616c6c6f77616e636573000000606082015260800190565b7f416363657373436f6e74726f6c3a206163636f756e7420000000000000000000815260008351612ea681601785016020880161272e565b7001034b99036b4b9b9b4b733903937b6329607d1b6017918401918201528351612ed781602884016020880161272e565b01602801949350505050565b601f82111561079157600081815260208120601f850160051c81016020861015612f0a5750805b601f850160051c820191505b81811015612f2957828155600101612f16565b505050505050565b815167ffffffffffffffff811115612f4b57612f4b61298a565b612f5f81612f598454612c59565b84612ee3565b602080601f831160018114612f945760008415612f7c5750858301515b600019600386901b1c1916600185901b178555612f29565b600085815260208120601f198616915b82811015612fc357888601518255948401946001909101908401612fa4565b5085821015612fe15787850151600019600388901b60f8161c191681555b5050505050600190811b01905550565b600081600019048311821515161561300b5761300b612c01565b500290565b60008161301f5761301f612c01565b50600019019056fe3c11d16cbaffd01df69ce1c404f6340ee057498f5f00246190ea54220576a848de59cf009759767a48aa56366ad77af93d2a112ef08516a1a2a182a8146539109c0b3a9882e11a6bfb8283b46d1e79513afb8024ee864cd3a5b3a9050c42a7d765d7a28e3265b37a6474929f336521b332c1681b933f6cb9f3376673440d862aa2646970667358221220d8a7188cd55f7469417b2443aca3c058828f7ff97c61ba059c574e6b7201855564736f6c63430008100033",
    "linkReferences": {}
  },
  "methodIdentifiers": {
    "BURNER_ROLE()": "282c51f3",
    "DEFAULT_ADMIN_ROLE()": "a217fddf",
    "MINTER_ROLE()": "d5391393",
    "PAUSER_ROLE()": "e63ab1e9",
    "TRANSFERRER_ROLE()": "63ac5d97",
    "addTransferLock(uint256,uint256)": "e672ce3a",
    "allowance(address,address)": "dd62ed3e",
    "allowances(address,address)": "55b6ed5c",
    "approve(address,uint256)": "095ea7b3",
    "balanceOf(address)": "70a08231",
    "batchTransferWithLocks(address[],uint256[],uint256[])": "3def6038",
    "burn(uint256)": "42966c68",
    "burnFrom(address,uint256)": "79cc6790",
    "burnable()": "a07c7ce4",
    "cap()": "355274ea",
    "decimals()": "313ce567",
    "decreaseAllowance(address,uint256)": "a457c2d7",
    "decreaseTransferLockAllowance(address,uint8)": "1f1eb79b",
    "disableBurn()": "2403c08e",
    "disableTransfer()": "b187984f",
    "enableBurn()": "3b37d1d6",
    "enableTransfer()": "f1b50c1d",
    "getAvailableBalance(address)": "6c24a76f",
    "getAvailableBalanceAt(address,uint256)": "e851b720",
    "getRoleAdmin(bytes32)": "248a9ca3",
    "getTransferLockTotal(address)": "2909ae01",
    "getTransferLockTotalAt(address,uint256)": "d90964cd",
    "grantRole(bytes32,address)": "2f2ff15d",
    "hasRole(bytes32,address)": "91d14854",
    "increaseAllowance(address,uint256)": "39509351",
    "increaseTransferLockAllowance(address,uint8)": "6239d4a3",
    "initialize(address,string,string,uint256)": "4d12d4b6",
    "mint(address,uint256)": "40c10f19",
    "name()": "06fdde03",
    "pause()": "8456cb59",
    "paused()": "5c975abb",
    "renounceRole(bytes32,address)": "36568abe",
    "revokeRole(bytes32,address)": "d547741f",
    "supportsInterface(bytes4)": "01ffc9a7",
    "symbol()": "95d89b41",
    "totalSupply()": "18160ddd",
    "transfer(address,uint256)": "a9059cbb",
    "transferFrom(address,address,uint256)": "23b872dd",
    "transferWithLock(address,uint256,uint256)": "de6baccb",
    "transferrable()": "047a7ef1",
    "unpause()": "3f4ba83a"
  },
  "id": 30
}