{
  "abi": [
    {
      "inputs": [],
      "stateMutability": "nonpayable",
      "type": "constructor"
    },
    {
      "anonymous": false,
      "inputs": [
        {
          "indexed": true,
          "internalType": "address",
          "name": "owner",
          "type": "address"
        },
        {
          "indexed": true,
          "internalType": "address",
          "name": "spender",
          "type": "address"
        },
        {
          "indexed": false,
          "internalType": "uint256",
          "name": "value",
          "type": "uint256"
        }
      ],
      "name": "Approval",
      "type": "event"
    },
    {
      "anonymous": false,
      "inputs": [
        {
          "indexed": true,
          "internalType": "address",
          "name": "caller",
          "type": "address"
        },
        {
          "indexed": false,
          "internalType": "bool",
          "name": "value",
          "type": "bool"
        }
      ],
      "name": "BurnEnabled",
      "type": "event"
    },
    {
      "anonymous": false,
      "inputs": [
        {
          "indexed": false,
          "internalType": "uint8",
          "name": "version",
          "type": "uint8"
        }
      ],
      "name": "Initialized",
      "type": "event"
    },
    {
      "anonymous": false,
      "inputs": [
        {
          "indexed": false,
          "internalType": "address",
          "name": "account",
          "type": "address"
        }
      ],
      "name": "Paused",
      "type": "event"
    },
    {
      "anonymous": false,
      "inputs": [
        {
          "indexed": true,
          "internalType": "bytes32",
          "name": "role",
          "type": "bytes32"
        },
        {
          "indexed": true,
          "internalType": "bytes32",
          "name": "previousAdminRole",
          "type": "bytes32"
        },
        {
          "indexed": true,
          "internalType": "bytes32",
          "name": "newAdminRole",
          "type": "bytes32"
        }
      ],
      "name": "RoleAdminChanged",
      "type": "event"
    },
    {
      "anonymous": false,
      "inputs": [
        {
          "indexed": true,
          "internalType": "bytes32",
          "name": "role",
          "type": "bytes32"
        },
        {
          "indexed": true,
          "internalType": "address",
          "name": "account",
          "type": "address"
        },
        {
          "indexed": true,
          "internalType": "address",
          "name": "sender",
          "type": "address"
        }
      ],
      "name": "RoleGranted",
      "type": "event"
    },
    {
      "anonymous": false,
      "inputs": [
        {
          "indexed": true,
          "internalType": "bytes32",
          "name": "role",
          "type": "bytes32"
        },
        {
          "indexed": true,
          "internalType": "address",
          "name": "account",
          "type": "address"
        },
        {
          "indexed": true,
          "internalType": "address",
          "name": "sender",
          "type": "address"
        }
      ],
      "name": "RoleRevoked",
      "type": "event"
    },
    {
      "anonymous": false,
      "inputs": [
        {
          "indexed": true,
          "internalType": "address",
          "name": "from",
          "type": "address"
        },
        {
          "indexed": true,
          "internalType": "address",
          "name": "to",
          "type": "address"
        },
        {
          "indexed": false,
          "internalType": "uint256",
          "name": "value",
          "type": "uint256"
        }
      ],
      "name": "Transfer",
      "type": "event"
    },
    {
      "anonymous": false,
      "inputs": [
        {
          "indexed": true,
          "internalType": "address",
          "name": "caller",
          "type": "address"
        },
        {
          "indexed": false,
          "internalType": "bool",
          "name": "value",
          "type": "bool"
        }
      ],
      "name": "TransferEnabled",
      "type": "event"
    },
    {
      "anonymous": false,
      "inputs": [
        {
          "indexed": false,
          "internalType": "address",
          "name": "account",
          "type": "address"
        }
      ],
      "name": "Unpaused",
      "type": "event"
    },
    {
      "inputs": [],
      "name": "BURNER_ROLE",
      "outputs": [
        {
          "internalType": "bytes32",
          "name": "",
          "type": "bytes32"
        }
      ],
      "stateMutability": "view",
      "type": "function"
    },
    {
      "inputs": [],
      "name": "DEFAULT_ADMIN_ROLE",
      "outputs": [
        {
          "internalType": "bytes32",
          "name": "",
          "type": "bytes32"
        }
      ],
      "stateMutability": "view",
      "type": "function"
    },
    {
      "inputs": [],
      "name": "MINTER_ROLE",
      "outputs": [
        {
          "internalType": "bytes32",
          "name": "",
          "type": "bytes32"
        }
      ],
      "stateMutability": "view",
      "type": "function"
    },
    {
      "inputs": [],
      "name": "PAUSER_ROLE",
      "outputs": [
        {
          "internalType": "bytes32",
          "name": "",
          "type": "bytes32"
        }
      ],
      "stateMutability": "view",
      "type": "function"
    },
    {
      "inputs": [],
      "name": "TRANSFERRER_ROLE",
      "outputs": [
        {
          "internalType": "bytes32",
          "name": "",
          "type": "bytes32"
        }
      ],
      "stateMutability": "view",
      "type": "function"
    },
    {
      "inputs": [
        {
          "internalType": "address",
          "name": "owner",
          "type": "address"
        },
        {
          "internalType": "address",
          "name": "spender",
          "type": "address"
        }
      ],
      "name": "allowance",
      "outputs": [
        {
          "internalType": "uint256",
          "name": "",
          "type": "uint256"
        }
      ],
      "stateMutability": "view",
      "type": "function"
    },
    {
      "inputs": [
        {
          "internalType": "address",
          "name": "spender",
          "type": "address"
        },
        {
          "internalType": "uint256",
          "name": "amount",
          "type": "uint256"
        }
      ],
      "name": "approve",
      "outputs": [
        {
          "internalType": "bool",
          "name": "",
          "type": "bool"
        }
      ],
      "stateMutability": "nonpayable",
      "type": "function"
    },
    {
      "inputs": [
        {
          "internalType": "address",
          "name": "owner",
          "type": "address"
        }
      ],
      "name": "balanceOf",
      "outputs": [
        {
          "internalType": "uint256",
          "name": "",
          "type": "uint256"
        }
      ],
      "stateMutability": "view",
      "type": "function"
    },
    {
      "inputs": [
        {
          "internalType": "uint256",
          "name": "amount",
          "type": "uint256"
        }
      ],
      "name": "burn",
      "outputs": [],
      "stateMutability": "nonpayable",
      "type": "function"
    },
    {
      "inputs": [
        {
          "internalType": "address",
          "name": "account",
          "type": "address"
        },
        {
          "internalType": "uint256",
          "name": "amount",
          "type": "uint256"
        }
      ],
      "name": "burnFrom",
      "outputs": [],
      "stateMutability": "nonpayable",
      "type": "function"
    },
    {
      "inputs": [],
      "name": "burnable",
      "outputs": [
        {
          "internalType": "bool",
          "name": "",
          "type": "bool"
        }
      ],
      "stateMutability": "view",
      "type": "function"
    },
    {
      "inputs": [],
      "name": "cap",
      "outputs": [
        {
          "internalType": "uint256",
          "name": "",
          "type": "uint256"
        }
      ],
      "stateMutability": "view",
      "type": "function"
    },
    {
      "inputs": [],
      "name": "decimals",
      "outputs": [
        {
          "internalType": "uint8",
          "name": "",
          "type": "uint8"
        }
      ],
      "stateMutability": "view",
      "type": "function"
    },
    {
      "inputs": [
        {
          "internalType": "address",
          "name": "spender",
          "type": "address"
        },
        {
          "internalType": "uint256",
          "name": "subtractedValue",
          "type": "uint256"
        }
      ],
      "name": "decreaseAllowance",
      "outputs": [
        {
          "internalType": "bool",
          "name": "",
          "type": "bool"
        }
      ],
      "stateMutability": "nonpayable",
      "type": "function"
    },
    {
      "inputs": [],
      "name": "disableBurn",
      "outputs": [],
      "stateMutability": "nonpayable",
      "type": "function"
    },
    {
      "inputs": [],
      "name": "disableTransfer",
      "outputs": [],
      "stateMutability": "nonpayable",
      "type": "function"
    },
    {
      "inputs": [],
      "name": "enableBurn",
      "outputs": [],
      "stateMutability": "nonpayable",
      "type": "function"
    },
    {
      "inputs": [],
      "name": "enableTransfer",
      "outputs": [],
      "stateMutability": "nonpayable",
      "type": "function"
    },
    {
      "inputs": [
        {
          "internalType": "bytes32",
          "name": "role",
          "type": "bytes32"
        }
      ],
      "name": "getRoleAdmin",
      "outputs": [
        {
          "internalType": "bytes32",
          "name": "",
          "type": "bytes32"
        }
      ],
      "stateMutability": "view",
      "type": "function"
    },
    {
      "inputs": [
        {
          "internalType": "bytes32",
          "name": "role",
          "type": "bytes32"
        },
        {
          "internalType": "address",
          "name": "account",
          "type": "address"
        }
      ],
      "name": "grantRole",
      "outputs": [],
      "stateMutability": "nonpayable",
      "type": "function"
    },
    {
      "inputs": [
        {
          "internalType": "bytes32",
          "name": "role",
          "type": "bytes32"
        },
        {
          "internalType": "address",
          "name": "account",
          "type": "address"
        }
      ],
      "name": "hasRole",
      "outputs": [
        {
          "internalType": "bool",
          "name": "",
          "type": "bool"
        }
      ],
      "stateMutability": "view",
      "type": "function"
    },
    {
      "inputs": [
        {
          "internalType": "address",
          "name": "spender",
          "type": "address"
        },
        {
          "internalType": "uint256",
          "name": "addedValue",
          "type": "uint256"
        }
      ],
      "name": "increaseAllowance",
      "outputs": [
        {
          "internalType": "bool",
          "name": "",
          "type": "bool"
        }
      ],
      "stateMutability": "nonpayable",
      "type": "function"
    },
    {
      "inputs": [
        {
          "internalType": "address",
          "name": "admin",
          "type": "address"
        },
        {
          "internalType": "string",
          "name": "tokenName",
          "type": "string"
        },
        {
          "internalType": "string",
          "name": "tokenSymbol",
          "type": "string"
        },
        {
          "internalType": "uint256",
          "name": "supplyCap",
          "type": "uint256"
        }
      ],
      "name": "initialize",
      "outputs": [],
      "stateMutability": "nonpayable",
      "type": "function"
    },
    {
      "inputs": [
        {
          "internalType": "address",
          "name": "to",
          "type": "address"
        },
        {
          "internalType": "uint256",
          "name": "amount",
          "type": "uint256"
        }
      ],
      "name": "mint",
      "outputs": [],
      "stateMutability": "nonpayable",
      "type": "function"
    },
    {
      "inputs": [],
      "name": "name",
      "outputs": [
        {
          "internalType": "string",
          "name": "",
          "type": "string"
        }
      ],
      "stateMutability": "view",
      "type": "function"
    },
    {
      "inputs": [],
      "name": "pause",
      "outputs": [],
      "stateMutability": "nonpayable",
      "type": "function"
    },
    {
      "inputs": [],
      "name": "paused",
      "outputs": [
        {
          "internalType": "bool",
          "name": "",
          "type": "bool"
        }
      ],
      "stateMutability": "view",
      "type": "function"
    },
    {
      "inputs": [
        {
          "internalType": "bytes32",
          "name": "role",
          "type": "bytes32"
        },
        {
          "internalType": "address",
          "name": "account",
          "type": "address"
        }
      ],
      "name": "renounceRole",
      "outputs": [],
      "stateMutability": "nonpayable",
      "type": "function"
    },
    {
      "inputs": [
        {
          "internalType": "bytes32",
          "name": "role",
          "type": "bytes32"
        },
        {
          "internalType": "address",
          "name": "account",
          "type": "address"
        }
      ],
      "name": "revokeRole",
      "outputs": [],
      "stateMutability": "nonpayable",
      "type": "function"
    },
    {
      "inputs": [
        {
          "internalType": "bytes4",
          "name": "interfaceId",
          "type": "bytes4"
        }
      ],
      "name": "supportsInterface",
      "outputs": [
        {
          "internalType": "bool",
          "name": "",
          "type": "bool"
        }
      ],
      "stateMutability": "view",
      "type": "function"
    },
    {
      "inputs": [],
      "name": "symbol",
      "outputs": [
        {
          "internalType": "string",
          "name": "",
          "type": "string"
        }
      ],
      "stateMutability": "view",
      "type": "function"
    },
    {
      "inputs": [],
      "name": "totalSupply",
      "outputs": [
        {
          "internalType": "uint256",
          "name": "",
          "type": "uint256"
        }
      ],
      "stateMutability": "view",
      "type": "function"
    },
    {
      "inputs": [
        {
          "internalType": "address",
          "name": "to",
          "type": "address"
        },
        {
          "internalType": "uint256",
          "name": "amount",
          "type": "uint256"
        }
      ],
      "name": "transfer",
      "outputs": [
        {
          "internalType": "bool",
          "name": "",
          "type": "bool"
        }
      ],
      "stateMutability": "nonpayable",
      "type": "function"
    },
    {
      "inputs": [
        {
          "internalType": "address",
          "name": "from",
          "type": "address"
        },
        {
          "internalType": "address",
          "name": "to",
          "type": "address"
        },
        {
          "internalType": "uint256",
          "name": "amount",
          "type": "uint256"
        }
      ],
      "name": "transferFrom",
      "outputs": [
        {
          "internalType": "bool",
          "name": "",
          "type": "bool"
        }
      ],
      "stateMutability": "nonpayable",
      "type": "function"
    },
    {
      "inputs": [],
      "name": "transferrable",
      "outputs": [
        {
          "internalType": "bool",
          "name": "",
          "type": "bool"
        }
      ],
      "stateMutability": "view",
      "type": "function"
    },
    {
      "inputs": [],
      "name": "unpause",
      "outputs": [],
      "stateMutability": "nonpayable",
      "type": "function"
    }
  ],
  "bytecode": {
    "object": "0x608060405234801561001057600080fd5b5061001961001e565b6100dd565b600054610100900460ff161561008a5760405162461bcd60e51b815260206004820152602760248201527f496e697469616c697a61626c653a20636f6e747261637420697320696e697469604482015266616c697a696e6760c81b606482015260840160405180910390fd5b60005460ff908116146100db576000805460ff191660ff9081179091556040519081527f7f26b83ff96e1f2b6a682f133852f6798a09c465da95921460cefb38474024989060200160405180910390a15b565b6120e980620000ed6000396000f3fe608060405234801561001057600080fd5b506004361061021c5760003560e01c80634d12d4b611610125578063a217fddf116100ad578063d53913931161007c578063d53913931461042e578063d547741f14610455578063dd62ed3e14610468578063e63ab1e91461047b578063f1b50c1d1461049057600080fd5b8063a217fddf146103f8578063a457c2d714610400578063a9059cbb14610413578063b187984f1461042657600080fd5b806379cc6790116100f457806379cc6790146103b65780638456cb59146103c957806391d14854146103d157806395d89b41146103e4578063a07c7ce4146103ec57600080fd5b80634d12d4b6146103705780635c975abb1461038357806363ac5d971461038e57806370a08231146103a357600080fd5b80632f2ff15d116101a8578063395093511161017757806339509351146103275780633b37d1d61461033a5780633f4ba83a1461034257806340c10f191461034a57806342966c681461035d57600080fd5b80632f2ff15d146102e9578063313ce567146102fc578063355274ea1461030b57806336568abe1461031457600080fd5b806318160ddd116101ef57806318160ddd1461028257806323b872dd146102945780632403c08e146102a7578063248a9ca3146102b1578063282c51f3146102d457600080fd5b806301ffc9a714610221578063047a7ef11461024957806306fdde031461025a578063095ea7b31461026f575b600080fd5b61023461022f366004611aae565b610498565b60405190151581526020015b60405180910390f35b61016054610100900460ff16610234565b6102626104a9565b6040516102409190611afc565b61023461027d366004611b4b565b6104b8565b6035545b604051908152602001610240565b6102346102a2366004611b75565b6104d0565b6102af610535565b005b6102866102bf366004611bb1565b600090815260fb602052604090206001015490565b61028660008051602061205483398151915281565b6102af6102f7366004611bca565b6105dd565b60405160128152602001610240565b61012d54610286565b6102af610322366004611bca565b610607565b610234610335366004611b4b565b610685565b6102af6106a7565b6102af61071b565b6102af610358366004611b4b565b61073e565b6102af61036b366004611bb1565b610772565b6102af61037e366004611c99565b6107bd565b60975460ff16610234565b61028660008051602061207483398151915281565b6102866103b1366004611d15565b610ada565b6102af6103c4366004611b4b565b610af8565b6102af610b44565b6102346103df366004611bca565b610b64565b610262610b8f565b6101605460ff16610234565b610286600081565b61023461040e366004611b4b565b610c21565b610234610421366004611b4b565b610ca7565b6102af610d01565b6102867f9f2df0fed2c77648de5860a4cc508cd0818c85b8b8a1ab4ceeef8d981c8956a681565b6102af610463366004611bca565b610dad565b610286610476366004611d30565b610dd2565b61028660008051602061209483398151915281565b6102af610dfd565b60006104a382610e84565b92915050565b60606104b3610eb9565b905090565b6000336104c6818585610ec8565b5060019392505050565b60006104ea60008051602061207483398151915233610b64565b806104fd575061016054610100900460ff165b6105225760405162461bcd60e51b815260040161051990611d5a565b60405180910390fd5b61052d848484610fec565b949350505050565b600061054081611005565b61055860008051602061205483398151915233610b64565b8061056657506101605460ff165b6105825760405162461bcd60e51b815260040161051990611d9f565b610160805460ff19169055335b6101605460405160ff909116151581526001600160a01b0391909116907f373d051cc9c39a097512f5befac8840dd3395ef720e43a8d0f62d1756e0bb924906020015b60405180910390a250565b600082815260fb60205260409020600101546105f881611005565b610602838361100f565b505050565b6001600160a01b03811633146106775760405162461bcd60e51b815260206004820152602f60248201527f416363657373436f6e74726f6c3a2063616e206f6e6c792072656e6f756e636560448201526e103937b632b9903337b91039b2b63360891b6064820152608401610519565b6106818282611095565b5050565b6000336104c68185856106988383610dd2565b6106a29190611dec565b610ec8565b60006106b281611005565b6101605460ff16156107065760405162461bcd60e51b815260206004820152601c60248201527f4275726e61626c653a206275726e696e6720697320656e61626c6564000000006044820152606401610519565b610160805460ff1916600117905561058f3390565b60008051602061209483398151915261073381611005565b61073b6110fc565b50565b7f9f2df0fed2c77648de5860a4cc508cd0818c85b8b8a1ab4ceeef8d981c8956a661076881611005565b610602838361114e565b61078a60008051602061205483398151915233610b64565b8061079857506101605460ff165b6107b45760405162461bcd60e51b815260040161051990611d9f565b61073b81611158565b600054610100900460ff16158080156107dd5750600054600160ff909116105b806107f75750303b1580156107f7575060005460ff166001145b61085a5760405162461bcd60e51b815260206004820152602e60248201527f496e697469616c697a61626c653a20636f6e747261637420697320616c72656160448201526d191e481a5b9a5d1a585b1a5e995960921b6064820152608401610519565b6000805460ff19166001179055801561087d576000805461ff0019166101001790555b6001600160a01b0385166108d35760405162461bcd60e51b815260206004820152601c60248201527f41646d696e20616464726573732063616e6e6f74206265207a65726f000000006044820152606401610519565b60408051602080820152600091810182905260600160405160208183030381529060405280519060200120905080856040516020016109129190611afc565b60405160208183030381529060405280519060200120036109835760405162461bcd60e51b815260206004820152602560248201527f4552433230426173653a20546f6b656e206e616d652063616e6e6f7420626520604482015264656d70747960d81b6064820152608401610519565b80846040516020016109959190611afc565b6040516020818303038152906040528051906020012003610a085760405162461bcd60e51b815260206004820152602760248201527f4552433230426173653a20546f6b656e2073796d626f6c2063616e6e6f7420626044820152666520656d70747960c81b6064820152608401610519565b610a10611162565b610a18611162565b610a218361118b565b610a2b85856111bb565b610a336111ec565b610a3e60008761100f565b610a687f9f2df0fed2c77648de5860a4cc508cd0818c85b8b8a1ab4ceeef8d981c8956a68761100f565b610a806000805160206120948339815191528761100f565b50610160805461ffff191690558015610ad3576000805461ff0019169055604051600181527f7f26b83ff96e1f2b6a682f133852f6798a09c465da95921460cefb38474024989060200160405180910390a15b5050505050565b6001600160a01b0381166000908152603360205260408120546104a3565b610b1060008051602061205483398151915233610b64565b80610b1e57506101605460ff165b610b3a5760405162461bcd60e51b815260040161051990611d9f565b610681828261121b565b600080516020612094833981519152610b5c81611005565b61073b611230565b600091825260fb602090815260408084206001600160a01b0393909316845291905290205460ff1690565b606060378054610b9e90611dff565b80601f0160208091040260200160405190810160405280929190818152602001828054610bca90611dff565b8015610c175780601f10610bec57610100808354040283529160200191610c17565b820191906000526020600020905b815481529060010190602001808311610bfa57829003601f168201915b5050505050905090565b60003381610c2f8286610dd2565b905083811015610c8f5760405162461bcd60e51b815260206004820152602560248201527f45524332303a2064656372656173656420616c6c6f77616e63652062656c6f77604482015264207a65726f60d81b6064820152608401610519565b610c9c8286868403610ec8565b506001949350505050565b6000610cc160008051602061207483398151915233610b64565b80610cd4575061016054610100900460ff165b610cf05760405162461bcd60e51b815260040161051990611d5a565b610cfa838361126d565b9392505050565b6000610d0c81611005565b610d2460008051602061207483398151915233610b64565b80610d37575061016054610100900460ff165b610d535760405162461bcd60e51b815260040161051990611d5a565b610160805461ff0019169055335b6001600160a01b03167f750bc2ec2b9643783080f064b960113af5a2a708345c7e3cf509ca7fec55e24461016060019054906101000a900460ff166040516105d2911515815260200190565b600082815260fb6020526040902060010154610dc881611005565b6106028383611095565b6001600160a01b03918216600090815260346020908152604080832093909416825291909152205490565b6000610e0881611005565b61016054610100900460ff1615610e6d5760405162461bcd60e51b8152602060048201526024808201527f5472616e736665727261626c653a207472616e73666572732061726520656e61604482015263189b195960e21b6064820152608401610519565b610160805461ff001916610100179055610d613390565b60006001600160e01b03198216637965db0b60e01b14806104a357506301ffc9a760e01b6001600160e01b03198316146104a3565b606060368054610b9e90611dff565b6001600160a01b038316610f2a5760405162461bcd60e51b8152602060048201526024808201527f45524332303a20617070726f76652066726f6d20746865207a65726f206164646044820152637265737360e01b6064820152608401610519565b6001600160a01b038216610f8b5760405162461bcd60e51b815260206004820152602260248201527f45524332303a20617070726f766520746f20746865207a65726f206164647265604482015261737360f01b6064820152608401610519565b6001600160a01b0383811660008181526034602090815260408083209487168084529482529182902085905590518481527f8c5be1e5ebec7d5bd14f71427d1e84f3dd0314c0f7b2291e5b200ac8c7c3b925910160405180910390a3505050565b600033610ffa85828561127b565b610c9c8585856112f5565b61073b81336114ab565b6110198282610b64565b61068157600082815260fb602090815260408083206001600160a01b03851684529091529020805460ff191660011790556110513390565b6001600160a01b0316816001600160a01b0316837f2f8788117e7eff1d82e926ec794901d17c78024a50270940304540a733656f0d60405160405180910390a45050565b61109f8282610b64565b1561068157600082815260fb602090815260408083206001600160a01b0385168085529252808320805460ff1916905551339285917ff6391f5c32d9c69d2a47ea670b442974b53935d1edc7fd64eb21e047a839171b9190a45050565b611104611504565b6097805460ff191690557f5db9ee0a495bf2e6ff9c91a7834c1ba4fdd244a5e8aa4e537bd38aeae4b073aa335b6040516001600160a01b03909116815260200160405180910390a1565b610681828261154d565b61073b33826115bd565b600054610100900460ff166111895760405162461bcd60e51b815260040161051990611e39565b565b600054610100900460ff166111b25760405162461bcd60e51b815260040161051990611e39565b61073b816116fd565b600054610100900460ff166111e25760405162461bcd60e51b815260040161051990611e39565b6106818282611772565b600054610100900460ff166112135760405162461bcd60e51b815260040161051990611e39565b6111896117b2565b61122682338361127b565b61068182826115bd565b6112386117e5565b6097805460ff191660011790557f62e78cea01bee320cd4e420270b5ea74000d11b0c9f74754ebdbfc544b05a2586111313390565b6000336104c68185856112f5565b60006112878484610dd2565b905060001981146112ef57818110156112e25760405162461bcd60e51b815260206004820152601d60248201527f45524332303a20696e73756666696369656e7420616c6c6f77616e63650000006044820152606401610519565b6112ef8484848403610ec8565b50505050565b6001600160a01b0383166113595760405162461bcd60e51b815260206004820152602560248201527f45524332303a207472616e736665722066726f6d20746865207a65726f206164604482015264647265737360d81b6064820152608401610519565b6001600160a01b0382166113bb5760405162461bcd60e51b815260206004820152602360248201527f45524332303a207472616e7366657220746f20746865207a65726f206164647260448201526265737360e81b6064820152608401610519565b6113c683838361182b565b6001600160a01b0383166000908152603360205260409020548181101561143e5760405162461bcd60e51b815260206004820152602660248201527f45524332303a207472616e7366657220616d6f756e7420657863656564732062604482015265616c616e636560d01b6064820152608401610519565b6001600160a01b0380851660008181526033602052604080822086860390559286168082529083902080548601905591517fddf252ad1be2c89b69c2b068fc378daa952ba7f163c4a11628f55a4df523b3ef9061149e9086815260200190565b60405180910390a36112ef565b6114b58282610b64565b610681576114c281611833565b6114cd836020611845565b6040516020016114de929190611e84565b60408051601f198184030181529082905262461bcd60e51b825261051991600401611afc565b60975460ff166111895760405162461bcd60e51b815260206004820152601460248201527314185d5cd8589b194e881b9bdd081c185d5cd95960621b6044820152606401610519565b61012d548161155b60355490565b6115659190611dec565b11156115b35760405162461bcd60e51b815260206004820152601960248201527f45524332304361707065643a20636170206578636565646564000000000000006044820152606401610519565b61068182826119e1565b6001600160a01b03821661161d5760405162461bcd60e51b815260206004820152602160248201527f45524332303a206275726e2066726f6d20746865207a65726f206164647265736044820152607360f81b6064820152608401610519565b6116298260008361182b565b6001600160a01b0382166000908152603360205260409020548181101561169d5760405162461bcd60e51b815260206004820152602260248201527f45524332303a206275726e20616d6f756e7420657863656564732062616c616e604482015261636560f01b6064820152608401610519565b6001600160a01b03831660008181526033602090815260408083208686039055603580548790039055518581529192917fddf252ad1be2c89b69c2b068fc378daa952ba7f163c4a11628f55a4df523b3ef910160405180910390a3505050565b600054610100900460ff166117245760405162461bcd60e51b815260040161051990611e39565b6000811161176c5760405162461bcd60e51b8152602060048201526015602482015274045524332304361707065643a20636170206973203605c1b6044820152606401610519565b61012d55565b600054610100900460ff166117995760405162461bcd60e51b815260040161051990611e39565b60366117a58382611f47565b5060376106028282611f47565b600054610100900460ff166117d95760405162461bcd60e51b815260040161051990611e39565b6097805460ff19169055565b60975460ff16156111895760405162461bcd60e51b815260206004820152601060248201526f14185d5cd8589b194e881c185d5cd95960821b6044820152606401610519565b6106026117e5565b60606104a36001600160a01b03831660145b60606000611854836002612007565b61185f906002611dec565b67ffffffffffffffff81111561187757611877611bf6565b6040519080825280601f01601f1916602001820160405280156118a1576020820181803683370190505b509050600360fc1b816000815181106118bc576118bc612026565b60200101906001600160f81b031916908160001a905350600f60fb1b816001815181106118eb576118eb612026565b60200101906001600160f81b031916908160001a905350600061190f846002612007565b61191a906001611dec565b90505b6001811115611992576f181899199a1a9b1b9c1cb0b131b232b360811b85600f166010811061194e5761194e612026565b1a60f81b82828151811061196457611964612026565b60200101906001600160f81b031916908160001a90535060049490941c9361198b8161203c565b905061191d565b508315610cfa5760405162461bcd60e51b815260206004820181905260248201527f537472696e67733a20686578206c656e67746820696e73756666696369656e746044820152606401610519565b6001600160a01b038216611a375760405162461bcd60e51b815260206004820152601f60248201527f45524332303a206d696e7420746f20746865207a65726f2061646472657373006044820152606401610519565b611a436000838361182b565b8060356000828254611a559190611dec565b90915550506001600160a01b0382166000818152603360209081526040808320805486019055518481527fddf252ad1be2c89b69c2b068fc378daa952ba7f163c4a11628f55a4df523b3ef910160405180910390a35050565b600060208284031215611ac057600080fd5b81356001600160e01b031981168114610cfa57600080fd5b60005b83811015611af3578181015183820152602001611adb565b50506000910152565b6020815260008251806020840152611b1b816040850160208701611ad8565b601f01601f19169190910160400192915050565b80356001600160a01b0381168114611b4657600080fd5b919050565b60008060408385031215611b5e57600080fd5b611b6783611b2f565b946020939093013593505050565b600080600060608486031215611b8a57600080fd5b611b9384611b2f565b9250611ba160208501611b2f565b9150604084013590509250925092565b600060208284031215611bc357600080fd5b5035919050565b60008060408385031215611bdd57600080fd5b82359150611bed60208401611b2f565b90509250929050565b634e487b7160e01b600052604160045260246000fd5b600082601f830112611c1d57600080fd5b813567ffffffffffffffff80821115611c3857611c38611bf6565b604051601f8301601f19908116603f01168101908282118183101715611c6057611c60611bf6565b81604052838152866020858801011115611c7957600080fd5b836020870160208301376000602085830101528094505050505092915050565b60008060008060808587031215611caf57600080fd5b611cb885611b2f565b9350602085013567ffffffffffffffff80821115611cd557600080fd5b611ce188838901611c0c565b94506040870135915080821115611cf757600080fd5b50611d0487828801611c0c565b949793965093946060013593505050565b600060208284031215611d2757600080fd5b610cfa82611b2f565b60008060408385031215611d4357600080fd5b611d4c83611b2f565b9150611bed60208401611b2f565b60208082526025908201527f5472616e736665727261626c653a207472616e7366657273206172652064697360408201526418589b195960da1b606082015260800190565b6020808252601d908201527f4275726e61626c653a206275726e696e672069732064697361626c6564000000604082015260600190565b634e487b7160e01b600052601160045260246000fd5b808201808211156104a3576104a3611dd6565b600181811c90821680611e1357607f821691505b602082108103611e3357634e487b7160e01b600052602260045260246000fd5b50919050565b6020808252602b908201527f496e697469616c697a61626c653a20636f6e7472616374206973206e6f74206960408201526a6e697469616c697a696e6760a81b606082015260800190565b7f416363657373436f6e74726f6c3a206163636f756e7420000000000000000000815260008351611ebc816017850160208801611ad8565b7001034b99036b4b9b9b4b733903937b6329607d1b6017918401918201528351611eed816028840160208801611ad8565b01602801949350505050565b601f82111561060257600081815260208120601f850160051c81016020861015611f205750805b601f850160051c820191505b81811015611f3f57828155600101611f2c565b505050505050565b815167ffffffffffffffff811115611f6157611f61611bf6565b611f7581611f6f8454611dff565b84611ef9565b602080601f831160018114611faa5760008415611f925750858301515b600019600386901b1c1916600185901b178555611f3f565b600085815260208120601f198616915b82811015611fd957888601518255948401946001909101908401611fba565b5085821015611ff75787850151600019600388901b60f8161c191681555b5050505050600190811b01905550565b600081600019048311821515161561202157612021611dd6565b500290565b634e487b7160e01b600052603260045260246000fd5b60008161204b5761204b611dd6565b50600019019056fe3c11d16cbaffd01df69ce1c404f6340ee057498f5f00246190ea54220576a8489c0b3a9882e11a6bfb8283b46d1e79513afb8024ee864cd3a5b3a9050c42a7d765d7a28e3265b37a6474929f336521b332c1681b933f6cb9f3376673440d862aa264697066735822122055dbf53e9ba8095b004d7e912e61f012eaab4df108ae5003fb68ba1a7d479bc164736f6c63430008100033",
    "linkReferences": {}
  },
  "methodIdentifiers": {
    "BURNER_ROLE()": "282c51f3",
    "DEFAULT_ADMIN_ROLE()": "a217fddf",
    "MINTER_ROLE()": "d5391393",
    "PAUSER_ROLE()": "e63ab1e9",
    "TRANSFERRER_ROLE()": "63ac5d97",
    "allowance(address,address)": "dd62ed3e",
    "approve(address,uint256)": "095ea7b3",
    "balanceOf(address)": "70a08231",
    "burn(uint256)": "42966c68",
    "burnFrom(address,uint256)": "79cc6790",
    "burnable()": "a07c7ce4",
    "cap()": "355274ea",
    "decimals()": "313ce567",
    "decreaseAllowance(address,uint256)": "a457c2d7",
    "disableBurn()": "2403c08e",
    "disableTransfer()": "b187984f",
    "enableBurn()": "3b37d1d6",
    "enableTransfer()": "f1b50c1d",
    "getRoleAdmin(bytes32)": "248a9ca3",
    "grantRole(bytes32,address)": "2f2ff15d",
    "hasRole(bytes32,address)": "91d14854",
    "increaseAllowance(address,uint256)": "39509351",
    "initialize(address,string,string,uint256)": "4d12d4b6",
    "mint(address,uint256)": "40c10f19",
    "name()": "06fdde03",
    "pause()": "8456cb59",
    "paused()": "5c975abb",
    "renounceRole(bytes32,address)": "36568abe",
    "revokeRole(bytes32,address)": "d547741f",
    "supportsInterface(bytes4)": "01ffc9a7",
    "symbol()": "95d89b41",
    "totalSupply()": "18160ddd",
    "transfer(address,uint256)": "a9059cbb",
    "transferFrom(address,address,uint256)": "23b872dd",
    "transferrable()": "047a7ef1",
    "unpause()": "3f4ba83a"
  },
  "id": 7
}