{
  "abi": [
    {
      "anonymous": false,
      "inputs": [
        {
          "indexed": true,
          "internalType": "address",
          "name": "delegator",
          "type": "address"
        },
        {
          "indexed": true,
          "internalType": "address",
          "name": "fromDelegate",
          "type": "address"
        },
        {
          "indexed": true,
          "internalType": "address",
          "name": "toDelegate",
          "type": "address"
        }
      ],
      "name": "DelegateChanged",
      "type": "event"
    },
    {
      "anonymous": false,
      "inputs": [
        {
          "indexed": true,
          "internalType": "address",
          "name": "delegatee",
          "type": "address"
        },
        {
          "indexed": false,
          "internalType": "uint256",
          "name": "previousBalance",
          "type": "uint256"
        },
        {
          "indexed": false,
          "internalType": "uint256",
          "name": "newBalance",
          "type": "uint256"
        }
      ],
      "name": "DelegateVotesChanged",
      "type": "event"
    },
    {
      "inputs": [],
      "name": "CHECKPOINT_STORAGE_POSITION",
      "outputs": [
        {
          "internalType": "bytes32",
          "name": "",
          "type": "bytes32"
        }
      ],
      "stateMutability": "view",
      "type": "function"
    },
    {
      "inputs": [],
      "name": "DELEGATE_STORAGE_POSITION",
      "outputs": [
        {
          "internalType": "bytes32",
          "name": "",
          "type": "bytes32"
        }
      ],
      "stateMutability": "view",
      "type": "function"
    }
  ],
  "bytecode": {
    "object": "0x60d6610039600b82828239805160001a60731461002c57634e487b7160e01b600052600060045260246000fd5b30600052607381538281f3fe7300000000000000000000000000000000000000003014608060405260043610603d5760003560e01c80639343745f146042578063e8c2417414607a575b600080fd5b60687fee4ae5af77c122a0dd9754efb22d3c0c090d029d2b3ef538a7acea090eeece4f81565b60405190815260200160405180910390f35b60687f9445b0664c72f3ea82b4b0b66945b3e984dc3f563e04a52fd810eae883d2840e8156fea2646970667358221220c5991a21dba47dde710c2703d36ee84537f70c74232ad315dac11c4d5ea852dd64736f6c63430008100033",
    "linkReferences": {}
  },
  "methodIdentifiers": {
    "CHECKPOINT_STORAGE_POSITION()": "9343745f",
    "DELEGATE_STORAGE_POSITION()": "e8c24174"
  },
  "id": 28
}