{
  "abi": [
    {
      "anonymous": false,
      "inputs": [
        {
          "indexed": true,
          "internalType": "address",
          "name": "owner",
          "type": "address"
        },
        {
          "indexed": true,
          "internalType": "address",
          "name": "spender",
          "type": "address"
        },
        {
          "indexed": false,
          "internalType": "uint256",
          "name": "value",
          "type": "uint256"
        }
      ],
      "name": "Approval",
      "type": "event"
    },
    {
      "anonymous": false,
      "inputs": [
        {
          "indexed": true,
          "internalType": "address",
          "name": "_account",
          "type": "address"
        },
        {
          "indexed": false,
          "internalType": "uint256",
          "name": "_amount",
          "type": "uint256"
        }
      ],
      "name": "Burn",
      "type": "event"
    },
    {
      "anonymous": false,
      "inputs": [
        {
          "indexed": true,
          "internalType": "address",
          "name": "caller",
          "type": "address"
        },
        {
          "indexed": false,
          "internalType": "bool",
          "name": "value",
          "type": "bool"
        }
      ],
      "name": "BurnEnabled",
      "type": "event"
    },
    {
      "anonymous": false,
      "inputs": [
        {
          "indexed": false,
          "internalType": "uint8",
          "name": "version",
          "type": "uint8"
        }
      ],
      "name": "Initialized",
      "type": "event"
    },
    {
      "anonymous": false,
      "inputs": [
        {
          "indexed": true,
          "internalType": "address",
          "name": "oldL1Token",
          "type": "address"
        },
        {
          "indexed": true,
          "internalType": "address",
          "name": "newL1Token",
          "type": "address"
        }
      ],
      "name": "L1TokenUpdated",
      "type": "event"
    },
    {
      "anonymous": false,
      "inputs": [
        {
          "indexed": true,
          "internalType": "address",
          "name": "oldL2Bridge",
          "type": "address"
        },
        {
          "indexed": true,
          "internalType": "address",
          "name": "newL2Bridge",
          "type": "address"
        }
      ],
      "name": "L2BridgeUpdated",
      "type": "event"
    },
    {
      "anonymous": false,
      "inputs": [
        {
          "indexed": true,
          "internalType": "address",
          "name": "_account",
          "type": "address"
        },
        {
          "indexed": false,
          "internalType": "uint256",
          "name": "_amount",
          "type": "uint256"
        }
      ],
      "name": "Mint",
      "type": "event"
    },
    {
      "anonymous": false,
      "inputs": [
        {
          "indexed": false,
          "internalType": "address",
          "name": "account",
          "type": "address"
        }
      ],
      "name": "Paused",
      "type": "event"
    },
    {
      "anonymous": false,
      "inputs": [
        {
          "indexed": true,
          "internalType": "bytes32",
          "name": "role",
          "type": "bytes32"
        },
        {
          "indexed": true,
          "internalType": "bytes32",
          "name": "previousAdminRole",
          "type": "bytes32"
        },
        {
          "indexed": true,
          "internalType": "bytes32",
          "name": "newAdminRole",
          "type": "bytes32"
        }
      ],
      "name": "RoleAdminChanged",
      "type": "event"
    },
    {
      "anonymous": false,
      "inputs": [
        {
          "indexed": true,
          "internalType": "bytes32",
          "name": "role",
          "type": "bytes32"
        },
        {
          "indexed": true,
          "internalType": "address",
          "name": "account",
          "type": "address"
        },
        {
          "indexed": true,
          "internalType": "address",
          "name": "sender",
          "type": "address"
        }
      ],
      "name": "RoleGranted",
      "type": "event"
    },
    {
      "anonymous": false,
      "inputs": [
        {
          "indexed": true,
          "internalType": "bytes32",
          "name": "role",
          "type": "bytes32"
        },
        {
          "indexed": true,
          "internalType": "address",
          "name": "account",
          "type": "address"
        },
        {
          "indexed": true,
          "internalType": "address",
          "name": "sender",
          "type": "address"
        }
      ],
      "name": "RoleRevoked",
      "type": "event"
    },
    {
      "anonymous": false,
      "inputs": [
        {
          "indexed": true,
          "internalType": "address",
          "name": "from",
          "type": "address"
        },
        {
          "indexed": true,
          "internalType": "address",
          "name": "to",
          "type": "address"
        },
        {
          "indexed": false,
          "internalType": "uint256",
          "name": "value",
          "type": "uint256"
        }
      ],
      "name": "Transfer",
      "type": "event"
    },
    {
      "anonymous": false,
      "inputs": [
        {
          "indexed": true,
          "internalType": "address",
          "name": "caller",
          "type": "address"
        },
        {
          "indexed": false,
          "internalType": "bool",
          "name": "value",
          "type": "bool"
        }
      ],
      "name": "TransferEnabled",
      "type": "event"
    },
    {
      "anonymous": false,
      "inputs": [
        {
          "indexed": false,
          "internalType": "address",
          "name": "account",
          "type": "address"
        }
      ],
      "name": "Unpaused",
      "type": "event"
    },
    {
      "inputs": [],
      "name": "BURNER_ROLE",
      "outputs": [
        {
          "internalType": "bytes32",
          "name": "",
          "type": "bytes32"
        }
      ],
      "stateMutability": "view",
      "type": "function"
    },
    {
      "inputs": [],
      "name": "DEFAULT_ADMIN_ROLE",
      "outputs": [
        {
          "internalType": "bytes32",
          "name": "",
          "type": "bytes32"
        }
      ],
      "stateMutability": "view",
      "type": "function"
    },
    {
      "inputs": [],
      "name": "L2BRIDGE_INFO_STORAGE_POSITION",
      "outputs": [
        {
          "internalType": "bytes32",
          "name": "",
          "type": "bytes32"
        }
      ],
      "stateMutability": "view",
      "type": "function"
    },
    {
      "inputs": [],
      "name": "MINTER_ROLE",
      "outputs": [
        {
          "internalType": "bytes32",
          "name": "",
          "type": "bytes32"
        }
      ],
      "stateMutability": "view",
      "type": "function"
    },
    {
      "inputs": [],
      "name": "PAUSER_ROLE",
      "outputs": [
        {
          "internalType": "bytes32",
          "name": "",
          "type": "bytes32"
        }
      ],
      "stateMutability": "view",
      "type": "function"
    },
    {
      "inputs": [],
      "name": "TRANSFERRER_ROLE",
      "outputs": [
        {
          "internalType": "bytes32",
          "name": "",
          "type": "bytes32"
        }
      ],
      "stateMutability": "view",
      "type": "function"
    },
    {
      "inputs": [
        {
          "internalType": "address",
          "name": "owner",
          "type": "address"
        },
        {
          "internalType": "address",
          "name": "spender",
          "type": "address"
        }
      ],
      "name": "allowance",
      "outputs": [
        {
          "internalType": "uint256",
          "name": "",
          "type": "uint256"
        }
      ],
      "stateMutability": "view",
      "type": "function"
    },
    {
      "inputs": [
        {
          "internalType": "address",
          "name": "spender",
          "type": "address"
        },
        {
          "internalType": "uint256",
          "name": "amount",
          "type": "uint256"
        }
      ],
      "name": "approve",
      "outputs": [
        {
          "internalType": "bool",
          "name": "",
          "type": "bool"
        }
      ],
      "stateMutability": "nonpayable",
      "type": "function"
    },
    {
      "inputs": [
        {
          "internalType": "address",
          "name": "owner",
          "type": "address"
        }
      ],
      "name": "balanceOf",
      "outputs": [
        {
          "internalType": "uint256",
          "name": "",
          "type": "uint256"
        }
      ],
      "stateMutability": "view",
      "type": "function"
    },
    {
      "inputs": [
        {
          "internalType": "uint256",
          "name": "amount",
          "type": "uint256"
        }
      ],
      "name": "burn",
      "outputs": [],
      "stateMutability": "nonpayable",
      "type": "function"
    },
    {
      "inputs": [
        {
          "internalType": "address",
          "name": "account",
          "type": "address"
        },
        {
          "internalType": "uint256",
          "name": "amount",
          "type": "uint256"
        }
      ],
      "name": "burn",
      "outputs": [],
      "stateMutability": "nonpayable",
      "type": "function"
    },
    {
      "inputs": [
        {
          "internalType": "address",
          "name": "account",
          "type": "address"
        },
        {
          "internalType": "uint256",
          "name": "amount",
          "type": "uint256"
        }
      ],
      "name": "burnFrom",
      "outputs": [],
      "stateMutability": "nonpayable",
      "type": "function"
    },
    {
      "inputs": [],
      "name": "burnable",
      "outputs": [
        {
          "internalType": "bool",
          "name": "",
          "type": "bool"
        }
      ],
      "stateMutability": "view",
      "type": "function"
    },
    {
      "inputs": [],
      "name": "cap",
      "outputs": [
        {
          "internalType": "uint256",
          "name": "",
          "type": "uint256"
        }
      ],
      "stateMutability": "view",
      "type": "function"
    },
    {
      "inputs": [],
      "name": "decimals",
      "outputs": [
        {
          "internalType": "uint8",
          "name": "",
          "type": "uint8"
        }
      ],
      "stateMutability": "view",
      "type": "function"
    },
    {
      "inputs": [
        {
          "internalType": "address",
          "name": "spender",
          "type": "address"
        },
        {
          "internalType": "uint256",
          "name": "subtractedValue",
          "type": "uint256"
        }
      ],
      "name": "decreaseAllowance",
      "outputs": [
        {
          "internalType": "bool",
          "name": "",
          "type": "bool"
        }
      ],
      "stateMutability": "nonpayable",
      "type": "function"
    },
    {
      "inputs": [],
      "name": "disableBurn",
      "outputs": [],
      "stateMutability": "nonpayable",
      "type": "function"
    },
    {
      "inputs": [],
      "name": "disableTransfer",
      "outputs": [],
      "stateMutability": "nonpayable",
      "type": "function"
    },
    {
      "inputs": [],
      "name": "enableBurn",
      "outputs": [],
      "stateMutability": "nonpayable",
      "type": "function"
    },
    {
      "inputs": [],
      "name": "enableTransfer",
      "outputs": [],
      "stateMutability": "nonpayable",
      "type": "function"
    },
    {
      "inputs": [
        {
          "internalType": "bytes32",
          "name": "role",
          "type": "bytes32"
        }
      ],
      "name": "getRoleAdmin",
      "outputs": [
        {
          "internalType": "bytes32",
          "name": "",
          "type": "bytes32"
        }
      ],
      "stateMutability": "view",
      "type": "function"
    },
    {
      "inputs": [
        {
          "internalType": "bytes32",
          "name": "role",
          "type": "bytes32"
        },
        {
          "internalType": "address",
          "name": "account",
          "type": "address"
        }
      ],
      "name": "grantRole",
      "outputs": [],
      "stateMutability": "nonpayable",
      "type": "function"
    },
    {
      "inputs": [
        {
          "internalType": "bytes32",
          "name": "role",
          "type": "bytes32"
        },
        {
          "internalType": "address",
          "name": "account",
          "type": "address"
        }
      ],
      "name": "hasRole",
      "outputs": [
        {
          "internalType": "bool",
          "name": "",
          "type": "bool"
        }
      ],
      "stateMutability": "view",
      "type": "function"
    },
    {
      "inputs": [
        {
          "internalType": "address",
          "name": "spender",
          "type": "address"
        },
        {
          "internalType": "uint256",
          "name": "addedValue",
          "type": "uint256"
        }
      ],
      "name": "increaseAllowance",
      "outputs": [
        {
          "internalType": "bool",
          "name": "",
          "type": "bool"
        }
      ],
      "stateMutability": "nonpayable",
      "type": "function"
    },
    {
      "inputs": [
        {
          "internalType": "address",
          "name": "admin",
          "type": "address"
        },
        {
          "internalType": "string",
          "name": "tokenName",
          "type": "string"
        },
        {
          "internalType": "string",
          "name": "tokenSymbol",
          "type": "string"
        },
        {
          "internalType": "uint256",
          "name": "supplyCap",
          "type": "uint256"
        }
      ],
      "name": "initialize",
      "outputs": [],
      "stateMutability": "nonpayable",
      "type": "function"
    },
    {
      "inputs": [],
      "name": "l1Token",
      "outputs": [
        {
          "internalType": "address",
          "name": "",
          "type": "address"
        }
      ],
      "stateMutability": "view",
      "type": "function"
    },
    {
      "inputs": [],
      "name": "l2Bridge",
      "outputs": [
        {
          "internalType": "address",
          "name": "",
          "type": "address"
        }
      ],
      "stateMutability": "view",
      "type": "function"
    },
    {
      "inputs": [
        {
          "internalType": "address",
          "name": "account",
          "type": "address"
        },
        {
          "internalType": "uint256",
          "name": "amount",
          "type": "uint256"
        }
      ],
      "name": "mint",
      "outputs": [],
      "stateMutability": "nonpayable",
      "type": "function"
    },
    {
      "inputs": [],
      "name": "name",
      "outputs": [
        {
          "internalType": "string",
          "name": "",
          "type": "string"
        }
      ],
      "stateMutability": "view",
      "type": "function"
    },
    {
      "inputs": [],
      "name": "pause",
      "outputs": [],
      "stateMutability": "nonpayable",
      "type": "function"
    },
    {
      "inputs": [],
      "name": "paused",
      "outputs": [
        {
          "internalType": "bool",
          "name": "",
          "type": "bool"
        }
      ],
      "stateMutability": "view",
      "type": "function"
    },
    {
      "inputs": [
        {
          "internalType": "bytes32",
          "name": "role",
          "type": "bytes32"
        },
        {
          "internalType": "address",
          "name": "account",
          "type": "address"
        }
      ],
      "name": "renounceRole",
      "outputs": [],
      "stateMutability": "nonpayable",
      "type": "function"
    },
    {
      "inputs": [
        {
          "internalType": "bytes32",
          "name": "role",
          "type": "bytes32"
        },
        {
          "internalType": "address",
          "name": "account",
          "type": "address"
        }
      ],
      "name": "revokeRole",
      "outputs": [],
      "stateMutability": "nonpayable",
      "type": "function"
    },
    {
      "inputs": [
        {
          "internalType": "address",
          "name": "newL1Token",
          "type": "address"
        }
      ],
      "name": "setL1Token",
      "outputs": [],
      "stateMutability": "nonpayable",
      "type": "function"
    },
    {
      "inputs": [
        {
          "internalType": "address",
          "name": "newL2Bridge",
          "type": "address"
        }
      ],
      "name": "setL2Bridge",
      "outputs": [],
      "stateMutability": "nonpayable",
      "type": "function"
    },
    {
      "inputs": [
        {
          "internalType": "bytes4",
          "name": "interfaceId",
          "type": "bytes4"
        }
      ],
      "name": "supportsInterface",
      "outputs": [
        {
          "internalType": "bool",
          "name": "",
          "type": "bool"
        }
      ],
      "stateMutability": "view",
      "type": "function"
    },
    {
      "inputs": [],
      "name": "symbol",
      "outputs": [
        {
          "internalType": "string",
          "name": "",
          "type": "string"
        }
      ],
      "stateMutability": "view",
      "type": "function"
    },
    {
      "inputs": [],
      "name": "totalSupply",
      "outputs": [
        {
          "internalType": "uint256",
          "name": "",
          "type": "uint256"
        }
      ],
      "stateMutability": "view",
      "type": "function"
    },
    {
      "inputs": [
        {
          "internalType": "address",
          "name": "to",
          "type": "address"
        },
        {
          "internalType": "uint256",
          "name": "amount",
          "type": "uint256"
        }
      ],
      "name": "transfer",
      "outputs": [
        {
          "internalType": "bool",
          "name": "",
          "type": "bool"
        }
      ],
      "stateMutability": "nonpayable",
      "type": "function"
    },
    {
      "inputs": [
        {
          "internalType": "address",
          "name": "from",
          "type": "address"
        },
        {
          "internalType": "address",
          "name": "to",
          "type": "address"
        },
        {
          "internalType": "uint256",
          "name": "amount",
          "type": "uint256"
        }
      ],
      "name": "transferFrom",
      "outputs": [
        {
          "internalType": "bool",
          "name": "",
          "type": "bool"
        }
      ],
      "stateMutability": "nonpayable",
      "type": "function"
    },
    {
      "inputs": [],
      "name": "transferrable",
      "outputs": [
        {
          "internalType": "bool",
          "name": "",
          "type": "bool"
        }
      ],
      "stateMutability": "view",
      "type": "function"
    },
    {
      "inputs": [],
      "name": "unpause",
      "outputs": [],
      "stateMutability": "nonpayable",
      "type": "function"
    }
  ],
  "bytecode": {
    "object": "0x60806040523480156200001157600080fd5b506200001c62000022565b620000e3565b600054610100900460ff16156200008f5760405162461bcd60e51b815260206004820152602760248201527f496e697469616c697a61626c653a20636f6e747261637420697320696e697469604482015266616c697a696e6760c81b606482015260840160405180910390fd5b60005460ff90811614620000e1576000805460ff191660ff9081179091556040519081527f7f26b83ff96e1f2b6a682f133852f6798a09c465da95921460cefb38474024989060200160405180910390a15b565b6125d580620000f36000396000f3fe608060405234801561001057600080fd5b506004361061025e5760003560e01c806363ac5d9711610146578063a457c2d7116100c3578063d539139311610087578063d53913931461050b578063d547741f14610532578063dd62ed3e14610545578063e055704514610558578063e63ab1e91461056d578063f1b50c1d1461058257600080fd5b8063a457c2d71461047b578063a9059cbb1461048e578063ae1f6aaf146104a1578063b187984f146104e5578063c01e1bd6146104ed57600080fd5b806394c36f991161010a57806394c36f991461043957806395d89b411461044c5780639dc29fac14610454578063a07c7ce414610467578063a217fddf1461047357600080fd5b806363ac5d97146103e357806370a08231146103f857806379cc67901461040b5780638456cb591461041e57806391d148541461042657600080fd5b8063313ce567116101df5780633d36d971116101a35780633d36d971146103845780633f4ba83a1461039757806340c10f191461039f57806342966c68146103b25780634d12d4b6146103c55780635c975abb146103d857600080fd5b8063313ce5671461033e578063355274ea1461034d57806336568abe1461035657806339509351146103695780633b37d1d61461037c57600080fd5b806323b872dd1161022657806323b872dd146102d65780632403c08e146102e9578063248a9ca3146102f3578063282c51f3146103165780632f2ff15d1461032b57600080fd5b806301ffc9a714610263578063047a7ef11461028b57806306fdde031461029c578063095ea7b3146102b157806318160ddd146102c4575b600080fd5b610276610271366004611f7a565b61058a565b60405190151581526020015b60405180910390f35b61016054610100900460ff16610276565b6102a46105eb565b6040516102829190611fc8565b6102766102bf366004612017565b6105fa565b6035545b604051908152602001610282565b6102766102e4366004612041565b610612565b6102f1610677565b005b6102c861030136600461207d565b600090815260fb602052604090206001015490565b6102c860008051602061252083398151915281565b6102f1610339366004612096565b61071f565b60405160128152602001610282565b61012d546102c8565b6102f1610364366004612096565b610749565b610276610377366004612017565b6107c7565b6102f16107e9565b6102f16103923660046120c2565b61085d565b6102f16109dd565b6102f16103ad366004612017565b610a00565b6102f16103c036600461207d565b610a7c565b6102f16103d3366004612180565b610ac7565b60975460ff16610276565b6102c860008051602061254083398151915281565b6102c86104063660046120c2565b610de4565b6102f1610419366004612017565b610e02565b6102f1610e4e565b610276610434366004612096565b610e6e565b6102f16104473660046120c2565b610e99565b6102a4610ff3565b6102f1610462366004612017565b611085565b6101605460ff16610276565b6102c8600081565b610276610489366004612017565b6110e2565b61027661049c366004612017565b611168565b7f28cb24054e210488ccd16d253d841d8a5ddb99cc6014fbe4ad307e7eaff5b6e3546001600160a01b03165b6040516001600160a01b039091168152602001610282565b6102f16111c2565b600080516020612580833981519152546001600160a01b03166104cd565b6102c87f9f2df0fed2c77648de5860a4cc508cd0818c85b8b8a1ab4ceeef8d981c8956a681565b6102f1610540366004612096565b61126e565b6102c86105533660046121fc565b611293565b6102c860008051602061258083398151915281565b6102c860008051602061256083398151915281565b6102f16112be565b60006001600160e01b03198216631d1d8b6360e01b14806105bb57506001600160e01b031982166301ffc9a760e01b145b806105d657506001600160e01b0319821663ae1f6aaf60e01b145b806105e557506105e582611345565b92915050565b60606105f5611350565b905090565b60003361060881858561135f565b5060019392505050565b600061062c60008051602061254083398151915233610e6e565b8061063f575061016054610100900460ff165b6106645760405162461bcd60e51b815260040161065b90612226565b60405180910390fd5b61066f848484611483565b949350505050565b60006106828161149c565b61069a60008051602061252083398151915233610e6e565b806106a857506101605460ff165b6106c45760405162461bcd60e51b815260040161065b9061226b565b610160805460ff19169055335b6101605460405160ff909116151581526001600160a01b0391909116907f373d051cc9c39a097512f5befac8840dd3395ef720e43a8d0f62d1756e0bb924906020015b60405180910390a250565b600082815260fb602052604090206001015461073a8161149c565b61074483836114a6565b505050565b6001600160a01b03811633146107b95760405162461bcd60e51b815260206004820152602f60248201527f416363657373436f6e74726f6c3a2063616e206f6e6c792072656e6f756e636560448201526e103937b632b9903337b91039b2b63360891b606482015260840161065b565b6107c3828261152c565b5050565b6000336106088185856107da8383611293565b6107e491906122b8565b61135f565b60006107f48161149c565b6101605460ff16156108485760405162461bcd60e51b815260206004820152601c60248201527f4275726e61626c653a206275726e696e6720697320656e61626c656400000000604482015260640161065b565b610160805460ff191660011790556106d13390565b60006108688161149c565b7f28cb24054e210488ccd16d253d841d8a5ddb99cc6014fbe4ad307e7eaff5b6e3546001600160a01b039081169083168190036108fc5760405162461bcd60e51b815260206004820152602c60248201527f4c325374616e6461726445524332303a204c32206272696467652076616c756560448201526b206d757374206368616e676560a01b606482015260840161065b565b6001600160a01b03831661096c5760405162461bcd60e51b815260206004820152603160248201527f4c325374616e6461726445524332303a204c32206272696467652063616e6e6f60448201527074206265207a65726f206164647265737360781b606482015260840161065b565b7f28cb24054e210488ccd16d253d841d8a5ddb99cc6014fbe4ad307e7eaff5b6e380546001600160a01b0319166001600160a01b0385811691821790925560405190918316907ffbeaf70015f6ad12833bc6726f03af9bb91a7ee52827c6413c6c250c77854c9590600090a3505050565b6000805160206125608339815191526109f58161149c565b6109fd611593565b50565b7f9f2df0fed2c77648de5860a4cc508cd0818c85b8b8a1ab4ceeef8d981c8956a6610a2a8161149c565b610a3483836115e5565b826001600160a01b03167f0f6798a560793a54c3bcfe86a93cde1e73087d944c0ea20544137d412139688583604051610a6f91815260200190565b60405180910390a2505050565b610a9460008051602061252083398151915233610e6e565b80610aa257506101605460ff165b610abe5760405162461bcd60e51b815260040161065b9061226b565b6109fd816115ef565b600054610100900460ff1615808015610ae75750600054600160ff909116105b80610b015750303b158015610b01575060005460ff166001145b610b645760405162461bcd60e51b815260206004820152602e60248201527f496e697469616c697a61626c653a20636f6e747261637420697320616c72656160448201526d191e481a5b9a5d1a585b1a5e995960921b606482015260840161065b565b6000805460ff191660011790558015610b87576000805461ff0019166101001790555b6001600160a01b038516610bdd5760405162461bcd60e51b815260206004820152601c60248201527f41646d696e20616464726573732063616e6e6f74206265207a65726f00000000604482015260640161065b565b6040805160208082015260009181018290526060016040516020818303038152906040528051906020012090508085604051602001610c1c9190611fc8565b6040516020818303038152906040528051906020012003610c8d5760405162461bcd60e51b815260206004820152602560248201527f4552433230426173653a20546f6b656e206e616d652063616e6e6f7420626520604482015264656d70747960d81b606482015260840161065b565b8084604051602001610c9f9190611fc8565b6040516020818303038152906040528051906020012003610d125760405162461bcd60e51b815260206004820152602760248201527f4552433230426173653a20546f6b656e2073796d626f6c2063616e6e6f7420626044820152666520656d70747960c81b606482015260840161065b565b610d1a6115f9565b610d226115f9565b610d2b83611622565b610d358585611652565b610d3d611683565b610d486000876114a6565b610d727f9f2df0fed2c77648de5860a4cc508cd0818c85b8b8a1ab4ceeef8d981c8956a6876114a6565b610d8a600080516020612560833981519152876114a6565b50610160805461ffff191690558015610ddd576000805461ff0019169055604051600181527f7f26b83ff96e1f2b6a682f133852f6798a09c465da95921460cefb38474024989060200160405180910390a15b5050505050565b6001600160a01b0381166000908152603360205260408120546105e5565b610e1a60008051602061252083398151915233610e6e565b80610e2857506101605460ff165b610e445760405162461bcd60e51b815260040161065b9061226b565b6107c382826116b2565b600080516020612560833981519152610e668161149c565b6109fd6116c7565b600091825260fb602090815260408084206001600160a01b0393909316845291905290205460ff1690565b6000610ea48161149c565b600080516020612580833981519152546001600160a01b03908116908316819003610f255760405162461bcd60e51b815260206004820152602b60248201527f4c325374616e6461726445524332303a204c3120746f6b656e2076616c75652060448201526a6d757374206368616e676560a81b606482015260840161065b565b6001600160a01b038316610f945760405162461bcd60e51b815260206004820152603060248201527f4c325374616e6461726445524332303a204c3120746f6b656e2063616e6e6f7460448201526f206265207a65726f206164647265737360801b606482015260840161065b565b8260008051602061258083398151915280546001600160a01b0319166001600160a01b03928316179055604051848216918316907f2c718543b67feaa6cc2f7d2e8a80d03b83ac2441e0d84ee2defc766f137e234590600090a3505050565b606060378054611002906122cb565b80601f016020809104026020016040519081016040528092919081815260200182805461102e906122cb565b801561107b5780601f106110505761010080835404028352916020019161107b565b820191906000526020600020905b81548152906001019060200180831161105e57829003601f168201915b5050505050905090565b60008051602061252083398151915261109d8161149c565b6110a78383611704565b826001600160a01b03167fcc16f5dbb4873280815c1ee09dbd06736cffcc184412cf7a71a0fdb75d397ca583604051610a6f91815260200190565b600033816110f08286611293565b9050838110156111505760405162461bcd60e51b815260206004820152602560248201527f45524332303a2064656372656173656420616c6c6f77616e63652062656c6f77604482015264207a65726f60d81b606482015260840161065b565b61115d828686840361135f565b506001949350505050565b600061118260008051602061254083398151915233610e6e565b80611195575061016054610100900460ff165b6111b15760405162461bcd60e51b815260040161065b90612226565b6111bb8383611844565b9392505050565b60006111cd8161149c565b6111e560008051602061254083398151915233610e6e565b806111f8575061016054610100900460ff165b6112145760405162461bcd60e51b815260040161065b90612226565b610160805461ff0019169055335b6001600160a01b03167f750bc2ec2b9643783080f064b960113af5a2a708345c7e3cf509ca7fec55e24461016060019054906101000a900460ff16604051610714911515815260200190565b600082815260fb60205260409020600101546112898161149c565b610744838361152c565b6001600160a01b03918216600090815260346020908152604080832093909416825291909152205490565b60006112c98161149c565b61016054610100900460ff161561132e5760405162461bcd60e51b8152602060048201526024808201527f5472616e736665727261626c653a207472616e73666572732061726520656e61604482015263189b195960e21b606482015260840161065b565b610160805461ff0019166101001790556112223390565b60006105e582611852565b606060368054611002906122cb565b6001600160a01b0383166113c15760405162461bcd60e51b8152602060048201526024808201527f45524332303a20617070726f76652066726f6d20746865207a65726f206164646044820152637265737360e01b606482015260840161065b565b6001600160a01b0382166114225760405162461bcd60e51b815260206004820152602260248201527f45524332303a20617070726f766520746f20746865207a65726f206164647265604482015261737360f01b606482015260840161065b565b6001600160a01b0383811660008181526034602090815260408083209487168084529482529182902085905590518481527f8c5be1e5ebec7d5bd14f71427d1e84f3dd0314c0f7b2291e5b200ac8c7c3b925910160405180910390a3505050565b600033611491858285611887565b61115d858585611901565b6109fd8133611ab7565b6114b08282610e6e565b6107c357600082815260fb602090815260408083206001600160a01b03851684529091529020805460ff191660011790556114e83390565b6001600160a01b0316816001600160a01b0316837f2f8788117e7eff1d82e926ec794901d17c78024a50270940304540a733656f0d60405160405180910390a45050565b6115368282610e6e565b156107c357600082815260fb602090815260408083206001600160a01b0385168085529252808320805460ff1916905551339285917ff6391f5c32d9c69d2a47ea670b442974b53935d1edc7fd64eb21e047a839171b9190a45050565b61159b611b10565b6097805460ff191690557f5db9ee0a495bf2e6ff9c91a7834c1ba4fdd244a5e8aa4e537bd38aeae4b073aa335b6040516001600160a01b03909116815260200160405180910390a1565b6107c38282611b59565b6109fd3382611704565b600054610100900460ff166116205760405162461bcd60e51b815260040161065b90612305565b565b600054610100900460ff166116495760405162461bcd60e51b815260040161065b90612305565b6109fd81611bc9565b600054610100900460ff166116795760405162461bcd60e51b815260040161065b90612305565b6107c38282611c3e565b600054610100900460ff166116aa5760405162461bcd60e51b815260040161065b90612305565b611620611c7e565b6116bd823383611887565b6107c38282611704565b6116cf611cb1565b6097805460ff191660011790557f62e78cea01bee320cd4e420270b5ea74000d11b0c9f74754ebdbfc544b05a2586115c83390565b6001600160a01b0382166117645760405162461bcd60e51b815260206004820152602160248201527f45524332303a206275726e2066726f6d20746865207a65726f206164647265736044820152607360f81b606482015260840161065b565b61177082600083611cf7565b6001600160a01b038216600090815260336020526040902054818110156117e45760405162461bcd60e51b815260206004820152602260248201527f45524332303a206275726e20616d6f756e7420657863656564732062616c616e604482015261636560f01b606482015260840161065b565b6001600160a01b03831660008181526033602090815260408083208686039055603580548790039055518581529192917fddf252ad1be2c89b69c2b068fc378daa952ba7f163c4a11628f55a4df523b3ef910160405180910390a3505050565b600033610608818585611901565b60006001600160e01b03198216637965db0b60e01b14806105e557506301ffc9a760e01b6001600160e01b03198316146105e5565b60006118938484611293565b905060001981146118fb57818110156118ee5760405162461bcd60e51b815260206004820152601d60248201527f45524332303a20696e73756666696369656e7420616c6c6f77616e6365000000604482015260640161065b565b6118fb848484840361135f565b50505050565b6001600160a01b0383166119655760405162461bcd60e51b815260206004820152602560248201527f45524332303a207472616e736665722066726f6d20746865207a65726f206164604482015264647265737360d81b606482015260840161065b565b6001600160a01b0382166119c75760405162461bcd60e51b815260206004820152602360248201527f45524332303a207472616e7366657220746f20746865207a65726f206164647260448201526265737360e81b606482015260840161065b565b6119d2838383611cf7565b6001600160a01b03831660009081526033602052604090205481811015611a4a5760405162461bcd60e51b815260206004820152602660248201527f45524332303a207472616e7366657220616d6f756e7420657863656564732062604482015265616c616e636560d01b606482015260840161065b565b6001600160a01b0380851660008181526033602052604080822086860390559286168082529083902080548601905591517fddf252ad1be2c89b69c2b068fc378daa952ba7f163c4a11628f55a4df523b3ef90611aaa9086815260200190565b60405180910390a36118fb565b611ac18282610e6e565b6107c357611ace81611cff565b611ad9836020611d11565b604051602001611aea929190612350565b60408051601f198184030181529082905262461bcd60e51b825261065b91600401611fc8565b60975460ff166116205760405162461bcd60e51b815260206004820152601460248201527314185d5cd8589b194e881b9bdd081c185d5cd95960621b604482015260640161065b565b61012d5481611b6760355490565b611b7191906122b8565b1115611bbf5760405162461bcd60e51b815260206004820152601960248201527f45524332304361707065643a2063617020657863656564656400000000000000604482015260640161065b565b6107c38282611ead565b600054610100900460ff16611bf05760405162461bcd60e51b815260040161065b90612305565b60008111611c385760405162461bcd60e51b8152602060048201526015602482015274045524332304361707065643a20636170206973203605c1b604482015260640161065b565b61012d55565b600054610100900460ff16611c655760405162461bcd60e51b815260040161065b90612305565b6036611c718382612413565b5060376107448282612413565b600054610100900460ff16611ca55760405162461bcd60e51b815260040161065b90612305565b6097805460ff19169055565b60975460ff16156116205760405162461bcd60e51b815260206004820152601060248201526f14185d5cd8589b194e881c185d5cd95960821b604482015260640161065b565b610744611cb1565b60606105e56001600160a01b03831660145b60606000611d208360026124d3565b611d2b9060026122b8565b67ffffffffffffffff811115611d4357611d436120dd565b6040519080825280601f01601f191660200182016040528015611d6d576020820181803683370190505b509050600360fc1b81600081518110611d8857611d886124f2565b60200101906001600160f81b031916908160001a905350600f60fb1b81600181518110611db757611db76124f2565b60200101906001600160f81b031916908160001a9053506000611ddb8460026124d3565b611de69060016122b8565b90505b6001811115611e5e576f181899199a1a9b1b9c1cb0b131b232b360811b85600f1660108110611e1a57611e1a6124f2565b1a60f81b828281518110611e3057611e306124f2565b60200101906001600160f81b031916908160001a90535060049490941c93611e5781612508565b9050611de9565b5083156111bb5760405162461bcd60e51b815260206004820181905260248201527f537472696e67733a20686578206c656e67746820696e73756666696369656e74604482015260640161065b565b6001600160a01b038216611f035760405162461bcd60e51b815260206004820152601f60248201527f45524332303a206d696e7420746f20746865207a65726f206164647265737300604482015260640161065b565b611f0f60008383611cf7565b8060356000828254611f2191906122b8565b90915550506001600160a01b0382166000818152603360209081526040808320805486019055518481527fddf252ad1be2c89b69c2b068fc378daa952ba7f163c4a11628f55a4df523b3ef910160405180910390a35050565b600060208284031215611f8c57600080fd5b81356001600160e01b0319811681146111bb57600080fd5b60005b83811015611fbf578181015183820152602001611fa7565b50506000910152565b6020815260008251806020840152611fe7816040850160208701611fa4565b601f01601f19169190910160400192915050565b80356001600160a01b038116811461201257600080fd5b919050565b6000806040838503121561202a57600080fd5b61203383611ffb565b946020939093013593505050565b60008060006060848603121561205657600080fd5b61205f84611ffb565b925061206d60208501611ffb565b9150604084013590509250925092565b60006020828403121561208f57600080fd5b5035919050565b600080604083850312156120a957600080fd5b823591506120b960208401611ffb565b90509250929050565b6000602082840312156120d457600080fd5b6111bb82611ffb565b634e487b7160e01b600052604160045260246000fd5b600082601f83011261210457600080fd5b813567ffffffffffffffff8082111561211f5761211f6120dd565b604051601f8301601f19908116603f01168101908282118183101715612147576121476120dd565b8160405283815286602085880101111561216057600080fd5b836020870160208301376000602085830101528094505050505092915050565b6000806000806080858703121561219657600080fd5b61219f85611ffb565b9350602085013567ffffffffffffffff808211156121bc57600080fd5b6121c8888389016120f3565b945060408701359150808211156121de57600080fd5b506121eb878288016120f3565b949793965093946060013593505050565b6000806040838503121561220f57600080fd5b61221883611ffb565b91506120b960208401611ffb565b60208082526025908201527f5472616e736665727261626c653a207472616e7366657273206172652064697360408201526418589b195960da1b606082015260800190565b6020808252601d908201527f4275726e61626c653a206275726e696e672069732064697361626c6564000000604082015260600190565b634e487b7160e01b600052601160045260246000fd5b808201808211156105e5576105e56122a2565b600181811c908216806122df57607f821691505b6020821081036122ff57634e487b7160e01b600052602260045260246000fd5b50919050565b6020808252602b908201527f496e697469616c697a61626c653a20636f6e7472616374206973206e6f74206960408201526a6e697469616c697a696e6760a81b606082015260800190565b7f416363657373436f6e74726f6c3a206163636f756e7420000000000000000000815260008351612388816017850160208801611fa4565b7001034b99036b4b9b9b4b733903937b6329607d1b60179184019182015283516123b9816028840160208801611fa4565b01602801949350505050565b601f82111561074457600081815260208120601f850160051c810160208610156123ec5750805b601f850160051c820191505b8181101561240b578281556001016123f8565b505050505050565b815167ffffffffffffffff81111561242d5761242d6120dd565b6124418161243b84546122cb565b846123c5565b602080601f831160018114612476576000841561245e5750858301515b600019600386901b1c1916600185901b17855561240b565b600085815260208120601f198616915b828110156124a557888601518255948401946001909101908401612486565b50858210156124c35787850151600019600388901b60f8161c191681555b5050505050600190811b01905550565b60008160001904831182151516156124ed576124ed6122a2565b500290565b634e487b7160e01b600052603260045260246000fd5b600081612517576125176122a2565b50600019019056fe3c11d16cbaffd01df69ce1c404f6340ee057498f5f00246190ea54220576a8489c0b3a9882e11a6bfb8283b46d1e79513afb8024ee864cd3a5b3a9050c42a7d765d7a28e3265b37a6474929f336521b332c1681b933f6cb9f3376673440d862a28cb24054e210488ccd16d253d841d8a5ddb99cc6014fbe4ad307e7eaff5b6e2a2646970667358221220e2b5374844a7d7b18502a07dfb184522a87be7c28347761e3bc6f38808c1d4e064736f6c63430008100033",
    "linkReferences": {}
  },
  "methodIdentifiers": {
    "BURNER_ROLE()": "282c51f3",
    "DEFAULT_ADMIN_ROLE()": "a217fddf",
    "L2BRIDGE_INFO_STORAGE_POSITION()": "e0557045",
    "MINTER_ROLE()": "d5391393",
    "PAUSER_ROLE()": "e63ab1e9",
    "TRANSFERRER_ROLE()": "63ac5d97",
    "allowance(address,address)": "dd62ed3e",
    "approve(address,uint256)": "095ea7b3",
    "balanceOf(address)": "70a08231",
    "burn(address,uint256)": "9dc29fac",
    "burn(uint256)": "42966c68",
    "burnFrom(address,uint256)": "79cc6790",
    "burnable()": "a07c7ce4",
    "cap()": "355274ea",
    "decimals()": "313ce567",
    "decreaseAllowance(address,uint256)": "a457c2d7",
    "disableBurn()": "2403c08e",
    "disableTransfer()": "b187984f",
    "enableBurn()": "3b37d1d6",
    "enableTransfer()": "f1b50c1d",
    "getRoleAdmin(bytes32)": "248a9ca3",
    "grantRole(bytes32,address)": "2f2ff15d",
    "hasRole(bytes32,address)": "91d14854",
    "increaseAllowance(address,uint256)": "39509351",
    "initialize(address,string,string,uint256)": "4d12d4b6",
    "l1Token()": "c01e1bd6",
    "l2Bridge()": "ae1f6aaf",
    "mint(address,uint256)": "40c10f19",
    "name()": "06fdde03",
    "pause()": "8456cb59",
    "paused()": "5c975abb",
    "renounceRole(bytes32,address)": "36568abe",
    "revokeRole(bytes32,address)": "d547741f",
    "setL1Token(address)": "94c36f99",
    "setL2Bridge(address)": "3d36d971",
    "supportsInterface(bytes4)": "01ffc9a7",
    "symbol()": "95d89b41",
    "totalSupply()": "18160ddd",
    "transfer(address,uint256)": "a9059cbb",
    "transferFrom(address,address,uint256)": "23b872dd",
    "transferrable()": "047a7ef1",
    "unpause()": "3f4ba83a"
  },
  "id": 29
}