{
  "abi": [
    {
      "inputs": [],
      "stateMutability": "nonpayable",
      "type": "constructor"
    },
    {
      "anonymous": false,
      "inputs": [
        {
          "indexed": true,
          "internalType": "address",
          "name": "owner",
          "type": "address"
        },
        {
          "indexed": true,
          "internalType": "address",
          "name": "spender",
          "type": "address"
        },
        {
          "indexed": false,
          "internalType": "uint256",
          "name": "value",
          "type": "uint256"
        }
      ],
      "name": "Approval",
      "type": "event"
    },
    {
      "anonymous": false,
      "inputs": [
        {
          "indexed": true,
          "internalType": "address",
          "name": "_account",
          "type": "address"
        },
        {
          "indexed": false,
          "internalType": "uint256",
          "name": "_amount",
          "type": "uint256"
        }
      ],
      "name": "Burn",
      "type": "event"
    },
    {
      "anonymous": false,
      "inputs": [
        {
          "indexed": true,
          "internalType": "address",
          "name": "caller",
          "type": "address"
        },
        {
          "indexed": false,
          "internalType": "bool",
          "name": "value",
          "type": "bool"
        }
      ],
      "name": "BurnEnabled",
      "type": "event"
    },
    {
      "anonymous": false,
      "inputs": [
        {
          "indexed": true,
          "internalType": "address",
          "name": "delegator",
          "type": "address"
        },
        {
          "indexed": true,
          "internalType": "address",
          "name": "fromDelegate",
          "type": "address"
        },
        {
          "indexed": true,
          "internalType": "address",
          "name": "toDelegate",
          "type": "address"
        }
      ],
      "name": "DelegateChanged",
      "type": "event"
    },
    {
      "anonymous": false,
      "inputs": [
        {
          "indexed": true,
          "internalType": "address",
          "name": "delegatee",
          "type": "address"
        },
        {
          "indexed": false,
          "internalType": "uint256",
          "name": "previousBalance",
          "type": "uint256"
        },
        {
          "indexed": false,
          "internalType": "uint256",
          "name": "newBalance",
          "type": "uint256"
        }
      ],
      "name": "DelegateVotesChanged",
      "type": "event"
    },
    {
      "anonymous": false,
      "inputs": [
        {
          "indexed": false,
          "internalType": "uint8",
          "name": "version",
          "type": "uint8"
        }
      ],
      "name": "Initialized",
      "type": "event"
    },
    {
      "anonymous": false,
      "inputs": [
        {
          "indexed": true,
          "internalType": "address",
          "name": "oldL1Token",
          "type": "address"
        },
        {
          "indexed": true,
          "internalType": "address",
          "name": "newL1Token",
          "type": "address"
        }
      ],
      "name": "L1TokenUpdated",
      "type": "event"
    },
    {
      "anonymous": false,
      "inputs": [
        {
          "indexed": true,
          "internalType": "address",
          "name": "oldL2Bridge",
          "type": "address"
        },
        {
          "indexed": true,
          "internalType": "address",
          "name": "newL2Bridge",
          "type": "address"
        }
      ],
      "name": "L2BridgeUpdated",
      "type": "event"
    },
    {
      "anonymous": false,
      "inputs": [
        {
          "indexed": true,
          "internalType": "address",
          "name": "_account",
          "type": "address"
        },
        {
          "indexed": false,
          "internalType": "uint256",
          "name": "_amount",
          "type": "uint256"
        }
      ],
      "name": "Mint",
      "type": "event"
    },
    {
      "anonymous": false,
      "inputs": [
        {
          "indexed": false,
          "internalType": "address",
          "name": "account",
          "type": "address"
        }
      ],
      "name": "Paused",
      "type": "event"
    },
    {
      "anonymous": false,
      "inputs": [
        {
          "indexed": true,
          "internalType": "bytes32",
          "name": "role",
          "type": "bytes32"
        },
        {
          "indexed": true,
          "internalType": "bytes32",
          "name": "previousAdminRole",
          "type": "bytes32"
        },
        {
          "indexed": true,
          "internalType": "bytes32",
          "name": "newAdminRole",
          "type": "bytes32"
        }
      ],
      "name": "RoleAdminChanged",
      "type": "event"
    },
    {
      "anonymous": false,
      "inputs": [
        {
          "indexed": true,
          "internalType": "bytes32",
          "name": "role",
          "type": "bytes32"
        },
        {
          "indexed": true,
          "internalType": "address",
          "name": "account",
          "type": "address"
        },
        {
          "indexed": true,
          "internalType": "address",
          "name": "sender",
          "type": "address"
        }
      ],
      "name": "RoleGranted",
      "type": "event"
    },
    {
      "anonymous": false,
      "inputs": [
        {
          "indexed": true,
          "internalType": "bytes32",
          "name": "role",
          "type": "bytes32"
        },
        {
          "indexed": true,
          "internalType": "address",
          "name": "account",
          "type": "address"
        },
        {
          "indexed": true,
          "internalType": "address",
          "name": "sender",
          "type": "address"
        }
      ],
      "name": "RoleRevoked",
      "type": "event"
    },
    {
      "anonymous": false,
      "inputs": [
        {
          "indexed": true,
          "internalType": "address",
          "name": "from",
          "type": "address"
        },
        {
          "indexed": true,
          "internalType": "address",
          "name": "to",
          "type": "address"
        },
        {
          "indexed": false,
          "internalType": "uint256",
          "name": "value",
          "type": "uint256"
        }
      ],
      "name": "Transfer",
      "type": "event"
    },
    {
      "anonymous": false,
      "inputs": [
        {
          "indexed": true,
          "internalType": "address",
          "name": "caller",
          "type": "address"
        },
        {
          "indexed": false,
          "internalType": "bool",
          "name": "value",
          "type": "bool"
        }
      ],
      "name": "TransferEnabled",
      "type": "event"
    },
    {
      "anonymous": false,
      "inputs": [
        {
          "indexed": false,
          "internalType": "address",
          "name": "account",
          "type": "address"
        }
      ],
      "name": "Unpaused",
      "type": "event"
    },
    {
      "inputs": [],
      "name": "BURNER_ROLE",
      "outputs": [
        {
          "internalType": "bytes32",
          "name": "",
          "type": "bytes32"
        }
      ],
      "stateMutability": "view",
      "type": "function"
    },
    {
      "inputs": [],
      "name": "DEFAULT_ADMIN_ROLE",
      "outputs": [
        {
          "internalType": "bytes32",
          "name": "",
          "type": "bytes32"
        }
      ],
      "stateMutability": "view",
      "type": "function"
    },
    {
      "inputs": [],
      "name": "DELEGATION_TYPEHASH",
      "outputs": [
        {
          "internalType": "bytes32",
          "name": "",
          "type": "bytes32"
        }
      ],
      "stateMutability": "view",
      "type": "function"
    },
    {
      "inputs": [],
      "name": "EIP712_TYPEHASH",
      "outputs": [
        {
          "internalType": "bytes32",
          "name": "",
          "type": "bytes32"
        }
      ],
      "stateMutability": "view",
      "type": "function"
    },
    {
      "inputs": [],
      "name": "L2BRIDGE_INFO_STORAGE_POSITION",
      "outputs": [
        {
          "internalType": "bytes32",
          "name": "",
          "type": "bytes32"
        }
      ],
      "stateMutability": "view",
      "type": "function"
    },
    {
      "inputs": [],
      "name": "MINTER_ROLE",
      "outputs": [
        {
          "internalType": "bytes32",
          "name": "",
          "type": "bytes32"
        }
      ],
      "stateMutability": "view",
      "type": "function"
    },
    {
      "inputs": [],
      "name": "PAUSER_ROLE",
      "outputs": [
        {
          "internalType": "bytes32",
          "name": "",
          "type": "bytes32"
        }
      ],
      "stateMutability": "view",
      "type": "function"
    },
    {
      "inputs": [],
      "name": "TRANSFERRER_ROLE",
      "outputs": [
        {
          "internalType": "bytes32",
          "name": "",
          "type": "bytes32"
        }
      ],
      "stateMutability": "view",
      "type": "function"
    },
    {
      "inputs": [
        {
          "internalType": "uint256",
          "name": "amount",
          "type": "uint256"
        },
        {
          "internalType": "uint256",
          "name": "deadline",
          "type": "uint256"
        }
      ],
      "name": "addTransferLock",
      "outputs": [],
      "stateMutability": "nonpayable",
      "type": "function"
    },
    {
      "inputs": [
        {
          "internalType": "address",
          "name": "owner",
          "type": "address"
        },
        {
          "internalType": "address",
          "name": "spender",
          "type": "address"
        }
      ],
      "name": "allowance",
      "outputs": [
        {
          "internalType": "uint256",
          "name": "",
          "type": "uint256"
        }
      ],
      "stateMutability": "view",
      "type": "function"
    },
    {
      "inputs": [
        {
          "internalType": "address",
          "name": "account",
          "type": "address"
        },
        {
          "internalType": "address",
          "name": "recipient",
          "type": "address"
        }
      ],
      "name": "allowances",
      "outputs": [
        {
          "internalType": "uint8",
          "name": "",
          "type": "uint8"
        }
      ],
      "stateMutability": "view",
      "type": "function"
    },
    {
      "inputs": [
        {
          "internalType": "address",
          "name": "spender",
          "type": "address"
        },
        {
          "internalType": "uint256",
          "name": "amount",
          "type": "uint256"
        }
      ],
      "name": "approve",
      "outputs": [
        {
          "internalType": "bool",
          "name": "",
          "type": "bool"
        }
      ],
      "stateMutability": "nonpayable",
      "type": "function"
    },
    {
      "inputs": [
        {
          "internalType": "address",
          "name": "owner",
          "type": "address"
        }
      ],
      "name": "balanceOf",
      "outputs": [
        {
          "internalType": "uint256",
          "name": "",
          "type": "uint256"
        }
      ],
      "stateMutability": "view",
      "type": "function"
    },
    {
      "inputs": [
        {
          "internalType": "address[]",
          "name": "recipients",
          "type": "address[]"
        },
        {
          "internalType": "uint256[]",
          "name": "amounts",
          "type": "uint256[]"
        },
        {
          "internalType": "uint256[]",
          "name": "deadlines",
          "type": "uint256[]"
        }
      ],
      "name": "batchTransferWithLocks",
      "outputs": [],
      "stateMutability": "nonpayable",
      "type": "function"
    },
    {
      "inputs": [
        {
          "internalType": "uint256",
          "name": "amount",
          "type": "uint256"
        }
      ],
      "name": "burn",
      "outputs": [],
      "stateMutability": "nonpayable",
      "type": "function"
    },
    {
      "inputs": [
        {
          "internalType": "address",
          "name": "account",
          "type": "address"
        },
        {
          "internalType": "uint256",
          "name": "amount",
          "type": "uint256"
        }
      ],
      "name": "burn",
      "outputs": [],
      "stateMutability": "nonpayable",
      "type": "function"
    },
    {
      "inputs": [
        {
          "internalType": "address",
          "name": "account",
          "type": "address"
        },
        {
          "internalType": "uint256",
          "name": "amount",
          "type": "uint256"
        }
      ],
      "name": "burnFrom",
      "outputs": [],
      "stateMutability": "nonpayable",
      "type": "function"
    },
    {
      "inputs": [],
      "name": "burnable",
      "outputs": [
        {
          "internalType": "bool",
          "name": "",
          "type": "bool"
        }
      ],
      "stateMutability": "view",
      "type": "function"
    },
    {
      "inputs": [],
      "name": "cap",
      "outputs": [
        {
          "internalType": "uint256",
          "name": "",
          "type": "uint256"
        }
      ],
      "stateMutability": "view",
      "type": "function"
    },
    {
      "inputs": [],
      "name": "clearDelegation",
      "outputs": [],
      "stateMutability": "nonpayable",
      "type": "function"
    },
    {
      "inputs": [],
      "name": "decimals",
      "outputs": [
        {
          "internalType": "uint8",
          "name": "",
          "type": "uint8"
        }
      ],
      "stateMutability": "view",
      "type": "function"
    },
    {
      "inputs": [
        {
          "internalType": "address",
          "name": "spender",
          "type": "address"
        },
        {
          "internalType": "uint256",
          "name": "subtractedValue",
          "type": "uint256"
        }
      ],
      "name": "decreaseAllowance",
      "outputs": [
        {
          "internalType": "bool",
          "name": "",
          "type": "bool"
        }
      ],
      "stateMutability": "nonpayable",
      "type": "function"
    },
    {
      "inputs": [
        {
          "internalType": "address",
          "name": "account",
          "type": "address"
        },
        {
          "internalType": "uint8",
          "name": "amount",
          "type": "uint8"
        }
      ],
      "name": "decreaseTransferLockAllowance",
      "outputs": [],
      "stateMutability": "nonpayable",
      "type": "function"
    },
    {
      "inputs": [
        {
          "internalType": "address",
          "name": "delegatee",
          "type": "address"
        }
      ],
      "name": "delegate",
      "outputs": [],
      "stateMutability": "nonpayable",
      "type": "function"
    },
    {
      "inputs": [
        {
          "internalType": "address",
          "name": "delegatee",
          "type": "address"
        },
        {
          "internalType": "uint256",
          "name": "nonce",
          "type": "uint256"
        },
        {
          "internalType": "uint256",
          "name": "expiry",
          "type": "uint256"
        },
        {
          "internalType": "uint8",
          "name": "v",
          "type": "uint8"
        },
        {
          "internalType": "bytes32",
          "name": "r",
          "type": "bytes32"
        },
        {
          "internalType": "bytes32",
          "name": "s",
          "type": "bytes32"
        }
      ],
      "name": "delegateBySig",
      "outputs": [],
      "stateMutability": "nonpayable",
      "type": "function"
    },
    {
      "inputs": [
        {
          "internalType": "address",
          "name": "delegator",
          "type": "address"
        }
      ],
      "name": "delegates",
      "outputs": [
        {
          "internalType": "address",
          "name": "",
          "type": "address"
        }
      ],
      "stateMutability": "view",
      "type": "function"
    },
    {
      "inputs": [],
      "name": "disableBurn",
      "outputs": [],
      "stateMutability": "nonpayable",
      "type": "function"
    },
    {
      "inputs": [],
      "name": "disableTransfer",
      "outputs": [],
      "stateMutability": "nonpayable",
      "type": "function"
    },
    {
      "inputs": [],
      "name": "domainSeparatorV4",
      "outputs": [
        {
          "internalType": "bytes32",
          "name": "",
          "type": "bytes32"
        }
      ],
      "stateMutability": "view",
      "type": "function"
    },
    {
      "inputs": [],
      "name": "enableBurn",
      "outputs": [],
      "stateMutability": "nonpayable",
      "type": "function"
    },
    {
      "inputs": [],
      "name": "enableTransfer",
      "outputs": [],
      "stateMutability": "nonpayable",
      "type": "function"
    },
    {
      "inputs": [
        {
          "internalType": "address",
          "name": "account",
          "type": "address"
        }
      ],
      "name": "getAvailableBalance",
      "outputs": [
        {
          "internalType": "uint256",
          "name": "amount",
          "type": "uint256"
        }
      ],
      "stateMutability": "view",
      "type": "function"
    },
    {
      "inputs": [
        {
          "internalType": "address",
          "name": "account",
          "type": "address"
        },
        {
          "internalType": "uint256",
          "name": "timestamp",
          "type": "uint256"
        }
      ],
      "name": "getAvailableBalanceAt",
      "outputs": [
        {
          "internalType": "uint256",
          "name": "amount",
          "type": "uint256"
        }
      ],
      "stateMutability": "view",
      "type": "function"
    },
    {
      "inputs": [
        {
          "internalType": "address",
          "name": "delegator",
          "type": "address"
        }
      ],
      "name": "getDelegatorNonce",
      "outputs": [
        {
          "internalType": "uint256",
          "name": "",
          "type": "uint256"
        }
      ],
      "stateMutability": "view",
      "type": "function"
    },
    {
      "inputs": [
        {
          "internalType": "uint256",
          "name": "timestamp",
          "type": "uint256"
        }
      ],
      "name": "getPastTotalSupply",
      "outputs": [
        {
          "internalType": "uint256",
          "name": "",
          "type": "uint256"
        }
      ],
      "stateMutability": "view",
      "type": "function"
    },
    {
      "inputs": [
        {
          "internalType": "address",
          "name": "account",
          "type": "address"
        },
        {
          "internalType": "uint256",
          "name": "timestamp",
          "type": "uint256"
        }
      ],
      "name": "getPastVotes",
      "outputs": [
        {
          "internalType": "uint256",
          "name": "",
          "type": "uint256"
        }
      ],
      "stateMutability": "view",
      "type": "function"
    },
    {
      "inputs": [
        {
          "internalType": "bytes32",
          "name": "role",
          "type": "bytes32"
        }
      ],
      "name": "getRoleAdmin",
      "outputs": [
        {
          "internalType": "bytes32",
          "name": "",
          "type": "bytes32"
        }
      ],
      "stateMutability": "view",
      "type": "function"
    },
    {
      "inputs": [
        {
          "internalType": "address",
          "name": "account",
          "type": "address"
        }
      ],
      "name": "getTransferLockTotal",
      "outputs": [
        {
          "internalType": "uint256",
          "name": "amount",
          "type": "uint256"
        }
      ],
      "stateMutability": "view",
      "type": "function"
    },
    {
      "inputs": [
        {
          "internalType": "address",
          "name": "account",
          "type": "address"
        },
        {
          "internalType": "uint256",
          "name": "timestamp",
          "type": "uint256"
        }
      ],
      "name": "getTransferLockTotalAt",
      "outputs": [
        {
          "internalType": "uint256",
          "name": "amount",
          "type": "uint256"
        }
      ],
      "stateMutability": "view",
      "type": "function"
    },
    {
      "inputs": [
        {
          "internalType": "address",
          "name": "account",
          "type": "address"
        }
      ],
      "name": "getVotes",
      "outputs": [
        {
          "internalType": "uint256",
          "name": "",
          "type": "uint256"
        }
      ],
      "stateMutability": "view",
      "type": "function"
    },
    {
      "inputs": [
        {
          "internalType": "bytes32",
          "name": "role",
          "type": "bytes32"
        },
        {
          "internalType": "address",
          "name": "account",
          "type": "address"
        }
      ],
      "name": "grantRole",
      "outputs": [],
      "stateMutability": "nonpayable",
      "type": "function"
    },
    {
      "inputs": [
        {
          "internalType": "bytes32",
          "name": "role",
          "type": "bytes32"
        },
        {
          "internalType": "address",
          "name": "account",
          "type": "address"
        }
      ],
      "name": "hasRole",
      "outputs": [
        {
          "internalType": "bool",
          "name": "",
          "type": "bool"
        }
      ],
      "stateMutability": "view",
      "type": "function"
    },
    {
      "inputs": [
        {
          "internalType": "address",
          "name": "spender",
          "type": "address"
        },
        {
          "internalType": "uint256",
          "name": "addedValue",
          "type": "uint256"
        }
      ],
      "name": "increaseAllowance",
      "outputs": [
        {
          "internalType": "bool",
          "name": "",
          "type": "bool"
        }
      ],
      "stateMutability": "nonpayable",
      "type": "function"
    },
    {
      "inputs": [
        {
          "internalType": "address",
          "name": "account",
          "type": "address"
        },
        {
          "internalType": "uint8",
          "name": "amount",
          "type": "uint8"
        }
      ],
      "name": "increaseTransferLockAllowance",
      "outputs": [],
      "stateMutability": "nonpayable",
      "type": "function"
    },
    {
      "inputs": [
        {
          "internalType": "address",
          "name": "admin",
          "type": "address"
        },
        {
          "internalType": "string",
          "name": "tokenName",
          "type": "string"
        },
        {
          "internalType": "string",
          "name": "tokenSymbol",
          "type": "string"
        },
        {
          "internalType": "uint256",
          "name": "supplyCap",
          "type": "uint256"
        }
      ],
      "name": "initialize",
      "outputs": [],
      "stateMutability": "nonpayable",
      "type": "function"
    },
    {
      "inputs": [],
      "name": "l1Token",
      "outputs": [
        {
          "internalType": "address",
          "name": "",
          "type": "address"
        }
      ],
      "stateMutability": "view",
      "type": "function"
    },
    {
      "inputs": [],
      "name": "l2Bridge",
      "outputs": [
        {
          "internalType": "address",
          "name": "",
          "type": "address"
        }
      ],
      "stateMutability": "view",
      "type": "function"
    },
    {
      "inputs": [
        {
          "internalType": "address",
          "name": "to",
          "type": "address"
        },
        {
          "internalType": "uint256",
          "name": "amount",
          "type": "uint256"
        }
      ],
      "name": "mint",
      "outputs": [],
      "stateMutability": "nonpayable",
      "type": "function"
    },
    {
      "inputs": [],
      "name": "name",
      "outputs": [
        {
          "internalType": "string",
          "name": "",
          "type": "string"
        }
      ],
      "stateMutability": "view",
      "type": "function"
    },
    {
      "inputs": [],
      "name": "pause",
      "outputs": [],
      "stateMutability": "nonpayable",
      "type": "function"
    },
    {
      "inputs": [],
      "name": "paused",
      "outputs": [
        {
          "internalType": "bool",
          "name": "",
          "type": "bool"
        }
      ],
      "stateMutability": "view",
      "type": "function"
    },
    {
      "inputs": [
        {
          "internalType": "bytes32",
          "name": "role",
          "type": "bytes32"
        },
        {
          "internalType": "address",
          "name": "account",
          "type": "address"
        }
      ],
      "name": "renounceRole",
      "outputs": [],
      "stateMutability": "nonpayable",
      "type": "function"
    },
    {
      "inputs": [
        {
          "internalType": "bytes32",
          "name": "role",
          "type": "bytes32"
        },
        {
          "internalType": "address",
          "name": "account",
          "type": "address"
        }
      ],
      "name": "revokeRole",
      "outputs": [],
      "stateMutability": "nonpayable",
      "type": "function"
    },
    {
      "inputs": [
        {
          "internalType": "address",
          "name": "newL1Token",
          "type": "address"
        }
      ],
      "name": "setL1Token",
      "outputs": [],
      "stateMutability": "nonpayable",
      "type": "function"
    },
    {
      "inputs": [
        {
          "internalType": "address",
          "name": "newL2Bridge",
          "type": "address"
        }
      ],
      "name": "setL2Bridge",
      "outputs": [],
      "stateMutability": "nonpayable",
      "type": "function"
    },
    {
      "inputs": [
        {
          "internalType": "bytes4",
          "name": "interfaceId",
          "type": "bytes4"
        }
      ],
      "name": "supportsInterface",
      "outputs": [
        {
          "internalType": "bool",
          "name": "",
          "type": "bool"
        }
      ],
      "stateMutability": "view",
      "type": "function"
    },
    {
      "inputs": [],
      "name": "symbol",
      "outputs": [
        {
          "internalType": "string",
          "name": "",
          "type": "string"
        }
      ],
      "stateMutability": "view",
      "type": "function"
    },
    {
      "inputs": [],
      "name": "totalSupply",
      "outputs": [
        {
          "internalType": "uint256",
          "name": "",
          "type": "uint256"
        }
      ],
      "stateMutability": "view",
      "type": "function"
    },
    {
      "inputs": [
        {
          "internalType": "address",
          "name": "to",
          "type": "address"
        },
        {
          "internalType": "uint256",
          "name": "amount",
          "type": "uint256"
        }
      ],
      "name": "transfer",
      "outputs": [
        {
          "internalType": "bool",
          "name": "",
          "type": "bool"
        }
      ],
      "stateMutability": "nonpayable",
      "type": "function"
    },
    {
      "inputs": [
        {
          "internalType": "address",
          "name": "from",
          "type": "address"
        },
        {
          "internalType": "address",
          "name": "to",
          "type": "address"
        },
        {
          "internalType": "uint256",
          "name": "amount",
          "type": "uint256"
        }
      ],
      "name": "transferFrom",
      "outputs": [
        {
          "internalType": "bool",
          "name": "",
          "type": "bool"
        }
      ],
      "stateMutability": "nonpayable",
      "type": "function"
    },
    {
      "inputs": [
        {
          "internalType": "address",
          "name": "recipient",
          "type": "address"
        },
        {
          "internalType": "uint256",
          "name": "amount",
          "type": "uint256"
        },
        {
          "internalType": "uint256",
          "name": "deadline",
          "type": "uint256"
        }
      ],
      "name": "transferWithLock",
      "outputs": [],
      "stateMutability": "nonpayable",
      "type": "function"
    },
    {
      "inputs": [],
      "name": "transferrable",
      "outputs": [
        {
          "internalType": "bool",
          "name": "",
          "type": "bool"
        }
      ],
      "stateMutability": "view",
      "type": "function"
    },
    {
      "inputs": [],
      "name": "unpause",
      "outputs": [],
      "stateMutability": "nonpayable",
      "type": "function"
    },
    {
      "inputs": [],
      "name": "version",
      "outputs": [
        {
          "internalType": "string",
          "name": "",
          "type": "string"
        }
      ],
      "stateMutability": "pure",
      "type": "function"
    }
  ],
  "bytecode": {
    "object": "0x60806040523480156200001157600080fd5b506200001c6200002c565b620000266200002c565b620000ed565b600054610100900460ff1615620000995760405162461bcd60e51b815260206004820152602760248201527f496e697469616c697a61626c653a20636f6e747261637420697320696e697469604482015266616c697a696e6760c81b606482015260840160405180910390fd5b60005460ff90811614620000eb576000805460ff191660ff9081179091556040519081527f7f26b83ff96e1f2b6a682f133852f6798a09c465da95921460cefb38474024989060200160405180910390a15b565b6149cf80620000fd6000396000f3fe608060405234801561001057600080fd5b50600436106103d05760003560e01c806363ac5d97116101ff578063a9059cbb1161011a578063dd62ed3e116100ad578063e672ce3a1161007c578063e672ce3a14610896578063e7a324dc146108a9578063e851b720146108d0578063f1b50c1d146108e357600080fd5b8063dd62ed3e14610846578063de6baccb14610859578063e05570451461086c578063e63ab1e91461088157600080fd5b8063c3cda520116100e9578063c3cda520146107f8578063d53913931461080b578063d547741f14610820578063d90964cd1461083357600080fd5b8063a9059cbb1461078f578063ae1f6aaf146107a2578063b187984f146107d2578063c01e1bd6146107da57600080fd5b806391d14854116101925780639dc29fac116101615780639dc29fac14610755578063a07c7ce414610768578063a217fddf14610774578063a457c2d71461077c57600080fd5b806391d148541461071457806394c36f991461072757806395d89b411461073a5780639ab24eb01461074257600080fd5b806378e890ba116101ce57806378e890ba146106de57806379cc6790146106e65780638456cb59146106f95780638e539e8c1461070157600080fd5b806363ac5d971461065b5780636ab6cd6c146106705780636c24a76f146106b857806370a08231146106cb57600080fd5b806339509351116102ef57806342966c6811610282578063587cde1e11610251578063587cde1e146105ff5780635c19a95c1461062a5780635c975abb1461063d5780636239d4a31461064857600080fd5b806342966c68146105a55780634d12d4b6146105b857806354fd4d50146105cb57806355b6ed5c146105ec57600080fd5b80633d36d971116102be5780633d36d971146105645780633def6038146105775780633f4ba83a1461058a57806340c10f191461059257600080fd5b8063395093511461052e5780633a46b1a8146105415780633b37d1d6146105545780633b632bb91461055c57600080fd5b8063248a9ca3116103675780632f2ff15d116103365780632f2ff15d146104ea578063313ce567146104fd578063355274ea1461051257806336568abe1461051b57600080fd5b8063248a9ca314610478578063253d2c7d1461049b578063282c51f3146104c25780632909ae01146104d757600080fd5b806318160ddd116103a357806318160ddd146104365780631f1eb79b1461044857806323b872dd1461045d5780632403c08e1461047057600080fd5b806301ffc9a7146103d5578063047a7ef1146103fd57806306fdde031461040e578063095ea7b314610423575b600080fd5b6103e86103e3366004613def565b6108eb565b60405190151581526020015b60405180910390f35b61016054610100900460ff166103e8565b610416610916565b6040516103f49190613e3d565b6103e8610431366004613e8c565b610925565b6035545b6040519081526020016103f4565b61045b610456366004613ec7565b61093d565b005b6103e861046b366004613efa565b61097d565b61045b6109db565b61043a610486366004613f36565b600090815260fb602052604090206001015490565b61043a7f8b73c3c69bb8fe3d512ecc4cf759cc79239f7b179b0ffacaa9a75d522b39400f81565b61043a60008051602061489a83398151915281565b61043a6104e5366004613f4f565b610a83565b61045b6104f8366004613f6a565b610a8f565b60125b60405160ff90911681526020016103f4565b61012d5461043a565b61045b610529366004613f6a565b610ab9565b6103e861053c366004613e8c565b610b33565b61043a61054f366004613e8c565b610b55565b61045b610b61565b61045b610bd5565b61045b610572366004613f4f565b610cf9565b61045b610585366004613fd9565b610e79565b61045b610fea565b61045b6105a0366004613e8c565b61100d565b61045b6105b3366004613f36565b61102f565b61045b6105c6366004614138565b61107a565b6040805180820190915260058152640312e302e360dc1b6020820152610416565b6105006105fa3660046141b4565b611385565b61061261060d366004613f4f565b6113d4565b6040516001600160a01b0390911681526020016103f4565b61045b610638366004613f4f565b6113df565b60975460ff166103e8565b61045b610656366004613ec7565b6113e9565b61043a6000805160206148da83398151915281565b61043a61067e366004613f4f565b6001600160a01b031660009081527f9445b0664c72f3ea82b4b0b66945b3e984dc3f563e04a52fd810eae883d2840f602052604090205490565b61043a6106c6366004613f4f565b61141c565b61043a6106d9366004613f4f565b611428565b61043a611433565b61045b6106f4366004613e8c565b611575565b61045b6115c1565b61043a61070f366004613f36565b6115e1565b6103e8610722366004613f6a565b6115ec565b61045b610735366004613f4f565b611617565b610416611771565b61043a610750366004613f4f565b611803565b61045b610763366004613e8c565b61180e565b6101605460ff166103e8565b61043a600081565b6103e861078a366004613e8c565b611878565b6103e861079d366004613e8c565b6118fe565b7f28cb24054e210488ccd16d253d841d8a5ddb99cc6014fbe4ad307e7eaff5b6e3546001600160a01b0316610612565b61045b611951565b60008051602061493a833981519152546001600160a01b0316610612565b61045b6108063660046141de565b6119fd565b61043a60008051602061495a83398151915281565b61045b61082e366004613f6a565b611b84565b61043a610841366004613e8c565b611ba9565b61043a6108543660046141b4565b611bb5565b61045b610867366004614236565b611be0565b61043a60008051602061493a83398151915281565b61043a60008051602061491a83398151915281565b61045b6108a4366004614269565b611cd9565b61043a7fe48329057bfd03d55e49b547132e39cffd9c1820ad7b9d4c5307691425d15adf81565b61043a6108de366004613e8c565b611d54565b61045b611d7f565b60006001600160e01b031982166307da8f7160e51b1480610910575061091082611e06565b92915050565b6060610920611e61565b905090565b600033610933818585611e6b565b5060019392505050565b336001600160a01b0383160361096e5760405162461bcd60e51b81526004016109659061428b565b60405180910390fd5b610979338383611f8f565b5050565b60006109976000805160206148da833981519152336115ec565b806109aa575061016054610100900460ff165b6109c65760405162461bcd60e51b8152600401610965906142e8565b6109d18484846120e8565b90505b9392505050565b60006109e68161213c565b6109fe60008051602061489a833981519152336115ec565b80610a0c57506101605460ff165b610a285760405162461bcd60e51b81526004016109659061432d565b610160805460ff19169055335b6101605460405160ff909116151581526001600160a01b0391909116907f373d051cc9c39a097512f5befac8840dd3395ef720e43a8d0f62d1756e0bb924906020015b60405180910390a250565b60006109108242612146565b600082815260fb6020526040902060010154610aaa8161213c565b610ab4838361222d565b505050565b6001600160a01b0381163314610b295760405162461bcd60e51b815260206004820152602f60248201527f416363657373436f6e74726f6c3a2063616e206f6e6c792072656e6f756e636560448201526e103937b632b9903337b91039b2b63360891b6064820152608401610965565b61097982826122b3565b600033610933818585610b468383611bb5565b610b50919061437a565b611e6b565b60006109d4838361231a565b6000610b6c8161213c565b6101605460ff1615610bc05760405162461bcd60e51b815260206004820152601c60248201527f4275726e61626c653a206275726e696e6720697320656e61626c6564000000006044820152606401610965565b610160805460ff19166001179055610a353390565b6000610be0336123a6565b90506001600160a01b038116610c445760405162461bcd60e51b8152602060048201526024808201527f566f7465733a204e6f206163746976652064656c65676174696f6e20746f20636044820152633632b0b960e11b6064820152608401610965565b6040516370a0823160e01b815233600482015260009030906370a0823190602401602060405180830381865afa158015610c82573d6000803e3d6000fd5b505050506040513d601f19601f82011682018060405250810190610ca6919061438d565b90506000610cb333611803565b9050336001600160a01b03841603610ce457610cdf836000848411610cd857836123d1565b845b6123d1565b610cf0565b610cf0836000846123d1565b610ab433612465565b6000610d048161213c565b7f28cb24054e210488ccd16d253d841d8a5ddb99cc6014fbe4ad307e7eaff5b6e3546001600160a01b03908116908316819003610d985760405162461bcd60e51b815260206004820152602c60248201527f4c325374616e6461726445524332303a204c32206272696467652076616c756560448201526b206d757374206368616e676560a01b6064820152608401610965565b6001600160a01b038316610e085760405162461bcd60e51b815260206004820152603160248201527f4c325374616e6461726445524332303a204c32206272696467652063616e6e6f60448201527074206265207a65726f206164647265737360781b6064820152608401610965565b7f28cb24054e210488ccd16d253d841d8a5ddb99cc6014fbe4ad307e7eaff5b6e380546001600160a01b0319166001600160a01b0385811691821790925560405190918316907ffbeaf70015f6ad12833bc6726f03af9bb91a7ee52827c6413c6c250c77854c9590600090a3505050565b848314610eee5760405162461bcd60e51b815260206004820152603c60248201527f5472616e736665724c6f636b3a20726563697069656e747320616e6420616d6f60448201527f756e7473206d757374206265207468652073616d65206c656e677468000000006064820152608401610965565b848114610f635760405162461bcd60e51b815260206004820152603e60248201527f5472616e736665724c6f636b3a20726563697069656e747320616e642064656160448201527f646c696e6573206d757374206265207468652073616d65206c656e67746800006064820152608401610965565b60005b85811015610fe157610fcf878783818110610f8357610f836143a6565b9050602002016020810190610f989190613f4f565b868684818110610faa57610faa6143a6565b90506020020135858585818110610fc357610fc36143a6565b90506020020135611be0565b80610fd9816143bc565b915050610f66565b50505050505050565b60008051602061491a8339815191526110028161213c565b61100a6124d0565b50565b60008051602061495a8339815191526110258161213c565b610ab48383612522565b61104760008051602061489a833981519152336115ec565b8061105557506101605460ff165b6110715760405162461bcd60e51b81526004016109659061432d565b61100a8161257f565b600054610100900460ff161580801561109a5750600054600160ff909116105b806110b45750303b1580156110b4575060005460ff166001145b6111175760405162461bcd60e51b815260206004820152602e60248201527f496e697469616c697a61626c653a20636f6e747261637420697320616c72656160448201526d191e481a5b9a5d1a585b1a5e995960921b6064820152608401610965565b6000805460ff19166001179055801561113a576000805461ff0019166101001790555b6001600160a01b0385166111905760405162461bcd60e51b815260206004820152601c60248201527f41646d696e20616464726573732063616e6e6f74206265207a65726f000000006044820152606401610965565b60408051602080820152600091810182905260600160405160208183030381529060405280519060200120905080856040516020016111cf9190613e3d565b60405160208183030381529060405280519060200120036112405760405162461bcd60e51b815260206004820152602560248201527f4552433230426173653a20546f6b656e206e616d652063616e6e6f7420626520604482015264656d70747960d81b6064820152608401610965565b80846040516020016112529190613e3d565b60405160208183030381529060405280519060200120036112c55760405162461bcd60e51b815260206004820152602760248201527f4552433230426173653a20546f6b656e2073796d626f6c2063616e6e6f7420626044820152666520656d70747960c81b6064820152608401610965565b6112cd612589565b6112d5612589565b6112de836125b2565b6112e885856125e2565b6112f0612613565b6112fb60008761222d565b61131360008051602061495a8339815191528761222d565b61132b60008051602061491a8339815191528761222d565b50610160805461ffff19169055801561137e576000805461ff0019169055604051600181527f7f26b83ff96e1f2b6a682f133852f6798a09c465da95921460cefb38474024989060200160405180910390a15b5050505050565b6001600160a01b0380831660009081527fde59cf009759767a48aa56366ad77af93d2a112ef08516a1a2a182a8146539116020908152604080832093851683529290529081205460ff166109d4565b6000610910826123a6565b61100a3382612642565b336001600160a01b038316036114115760405162461bcd60e51b81526004016109659061428b565b61097933838361272f565b60006109108242611d54565b600061091082612866565b60007f8b73c3c69bb8fe3d512ecc4cf759cc79239f7b179b0ffacaa9a75d522b39400f306001600160a01b03166306fdde036040518163ffffffff1660e01b8152600401600060405180830381865afa158015611494573d6000803e3d6000fd5b505050506040513d6000823e601f3d908101601f191682016040526114bc91908101906143d5565b80519060200120306001600160a01b03166354fd4d506040518163ffffffff1660e01b8152600401600060405180830381865afa158015611501573d6000803e3d6000fd5b505050506040513d6000823e601f3d908101601f1916820160405261152991908101906143d5565b805160209182012060408051928301949094529281019190915260608101919091524660808201523060a082015260c00160405160208183030381529060405280519060200120905090565b61158d60008051602061489a833981519152336115ec565b8061159b57506101605460ff165b6115b75760405162461bcd60e51b81526004016109659061432d565b6109798282612884565b60008051602061491a8339815191526115d98161213c565b61100a612899565b6000610910826128d6565b600091825260fb602090815260408084206001600160a01b0393909316845291905290205460ff1690565b60006116228161213c565b60008051602061493a833981519152546001600160a01b039081169083168190036116a35760405162461bcd60e51b815260206004820152602b60248201527f4c325374616e6461726445524332303a204c3120746f6b656e2076616c75652060448201526a6d757374206368616e676560a81b6064820152608401610965565b6001600160a01b0383166117125760405162461bcd60e51b815260206004820152603060248201527f4c325374616e6461726445524332303a204c3120746f6b656e2063616e6e6f7460448201526f206265207a65726f206164647265737360801b6064820152608401610965565b8260008051602061493a83398151915280546001600160a01b0319166001600160a01b03928316179055604051848216918316907f2c718543b67feaa6cc2f7d2e8a80d03b83ac2441e0d84ee2defc766f137e234590600090a3505050565b60606037805461178090614443565b80601f01602080910402602001604051908101604052809291908181526020018280546117ac90614443565b80156117f95780601f106117ce576101008083540402835291602001916117f9565b820191906000526020600020905b8154815290600101906020018083116117dc57829003601f168201915b5050505050905090565b60006109108261291c565b60008051602061489a8339815191526118268161213c565b611830838361299e565b826001600160a01b03167fcc16f5dbb4873280815c1ee09dbd06736cffcc184412cf7a71a0fdb75d397ca58360405161186b91815260200190565b60405180910390a2505050565b600033816118868286611bb5565b9050838110156118e65760405162461bcd60e51b815260206004820152602560248201527f45524332303a2064656372656173656420616c6c6f77616e63652062656c6f77604482015264207a65726f60d81b6064820152608401610965565b6118f38286868403611e6b565b506001949350505050565b60006119186000805160206148da833981519152336115ec565b8061192b575061016054610100900460ff165b6119475760405162461bcd60e51b8152600401610965906142e8565b6109d48383612ae5565b600061195c8161213c565b6119746000805160206148da833981519152336115ec565b80611987575061016054610100900460ff165b6119a35760405162461bcd60e51b8152600401610965906142e8565b610160805461ff0019169055335b6001600160a01b03167f750bc2ec2b9643783080f064b960113af5a2a708345c7e3cf509ca7fec55e24461016060019054906101000a900460ff16604051610a78911515815260200190565b83421115611a415760405162461bcd60e51b815260206004820152601160248201527014da59db985d1d5c9948195e1c1a5c9959607a1b6044820152606401610965565b60008051602061497a8339815191526000611ae9611ae1611a60611433565b604080517fe48329057bfd03d55e49b547132e39cffd9c1820ad7b9d4c5307691425d15adf60208201526001600160a01b038d1691810191909152606081018b9052608081018a905260a0016040516020818303038152906040528051906020012060405161190160f01b8152600281019290925260228201526042902090565b868686612b38565b6001600160a01b03811660009081526001840160205260409020549091508714611b455760405162461bcd60e51b815260206004820152600d60248201526c496e76616c6964206e6f6e636560981b6044820152606401610965565b6001600160a01b03811660009081526001830160205260408120805491611b6b836143bc565b9190505550611b7a8189612642565b5050505050505050565b600082815260fb6020526040902060010154611b9f8161213c565b610ab483836122b3565b60006109d48383612146565b6001600160a01b03918216600090815260346020908152604080832093909416825291909152205490565b818160008211611c025760405162461bcd60e51b81526004016109659061447d565b428111611c215760405162461bcd60e51b8152600401610965906144cb565b611c2b3342611d54565b821115611c4a5760405162461bcd60e51b815260040161096590614517565b6001600160a01b03851615801590611c6b57506001600160a01b0385163314155b611cb75760405162461bcd60e51b815260206004820152601f60248201527f5472616e736665724c6f636b3a20696e76616c696420726563697069656e74006044820152606401610965565b611cc385336001611f8f565b611cce338686612b60565b61137e858585612d1c565b818160008211611cfb5760405162461bcd60e51b81526004016109659061447d565b428111611d1a5760405162461bcd60e51b8152600401610965906144cb565b611d243342611d54565b821115611d435760405162461bcd60e51b815260040161096590614517565b611d4e338585612d1c565b50505050565b600080611d618484612146565b905080611d6d85611428565b611d77919061456b565b949350505050565b6000611d8a8161213c565b61016054610100900460ff1615611def5760405162461bcd60e51b8152602060048201526024808201527f5472616e736665727261626c653a207472616e73666572732061726520656e61604482015263189b195960e21b6064820152608401610965565b610160805461ff0019166101001790556119b13390565b60006001600160e01b03198216631d1d8b6360e01b1480611e3757506001600160e01b031982166301ffc9a760e01b145b80611e5257506001600160e01b0319821663ae1f6aaf60e01b145b80610910575061091082613020565b6060610920613045565b6001600160a01b038316611ecd5760405162461bcd60e51b8152602060048201526024808201527f45524332303a20617070726f76652066726f6d20746865207a65726f206164646044820152637265737360e01b6064820152608401610965565b6001600160a01b038216611f2e5760405162461bcd60e51b815260206004820152602260248201527f45524332303a20617070726f766520746f20746865207a65726f206164647265604482015261737360f01b6064820152608401610965565b6001600160a01b0383811660008181526034602090815260408083209487168084529482529182902085905590518481527f8c5be1e5ebec7d5bd14f71427d1e84f3dd0314c0f7b2291e5b200ac8c7c3b925910160405180910390a3505050565b6001600160a01b0383811660009081527fde59cf009759767a48aa56366ad77af93d2a112ef08516a1a2a182a81465391160209081526040808320938616835292905220546000805160206148ba8339815191529060ff838116911610156120475760405162461bcd60e51b815260206004820152602560248201527f5472616e736665724c6f636b733a20696e73756666696369656e7420616c6c6f60448201526477616e636560d81b6064820152608401610965565b6001600160a01b03841660009081526003820160205260408120805484929061207490849060ff1661457e565b82546101009290920a60ff8181021990931691831602179091556001600160a01b03868116600090815260018501602090815260408083209389168352929052908120805486945090926120ca9185911661457e565b92506101000a81548160ff021916908360ff16021790555050505050565b60006121026000805160206148da833981519152336115ec565b80612115575061016054610100900460ff165b6121315760405162461bcd60e51b8152600401610965906142e8565b6109d1848484613054565b61100a813361306d565b6001600160a01b03821660009081527fde59cf009759767a48aa56366ad77af93d2a112ef08516a1a2a182a81465391460205260408120546000805160206148ba83398151915290829060ff165b6001600160a01b038616600090815260058401602052604090205460ff168111612224576001600160a01b0386166000908152602084815260408083208484529091529020600101548511612212576001600160a01b03861660009081526020848152604080832084845290915290205461220f908361437a565b91505b8061221c816143bc565b915050612194565b50949350505050565b61223782826115ec565b61097957600082815260fb602090815260408083206001600160a01b03851684529091529020805460ff1916600117905561226f3390565b6001600160a01b0316816001600160a01b0316837f2f8788117e7eff1d82e926ec794901d17c78024a50270940304540a733656f0d60405160405180910390a45050565b6122bd82826115ec565b1561097957600082815260fb602090815260408083206001600160a01b0385168085529252808320805460ff1916905551339285917ff6391f5c32d9c69d2a47ea670b442974b53935d1edc7fd64eb21e047a839171b9190a45050565b6001600160a01b03821660009081527fee4ae5af77c122a0dd9754efb22d3c0c090d029d2b3ef538a7acea090eeece5160209081526040808320547fee4ae5af77c122a0dd9754efb22d3c0c090d029d2b3ef538a7acea090eeece5290925282206000805160206148fa8339815191529163ffffffff169061239d9082866130c6565b95945050505050565b6001600160a01b03908116600090815260008051602061497a83398151915260205260409020541690565b816001600160a01b0316836001600160a01b0316141580156123f35750600081115b15610ab4576001600160a01b038316156124305760006124128461291c565b90506000612420838361456b565b905061242d858383613234565b50505b6001600160a01b03821615610ab457600061244a8361291c565b90506000612458838361437a565b905061137e848383613234565b6001600160a01b03818116600081815260008051602061497a8339815191526020819052604080832080546001600160a01b0319811690915590519194169283917f3134e8a2e6d97e929a7e54011ea5485d7d196dd5f0ba4d4ef95803e8e3fc257f908490a4505050565b6124d8613356565b6097805460ff191690557f5db9ee0a495bf2e6ff9c91a7834c1ba4fdd244a5e8aa4e537bd38aeae4b073aa335b6040516001600160a01b03909116815260200160405180910390a1565b60008051602061495a83398151915261253a8161213c565b612544838361339f565b826001600160a01b03167f0f6798a560793a54c3bcfe86a93cde1e73087d944c0ea20544137d41213968858360405161186b91815260200190565b61100a338261299e565b600054610100900460ff166125b05760405162461bcd60e51b815260040161096590614597565b565b600054610100900460ff166125d95760405162461bcd60e51b815260040161096590614597565b61100a816133a9565b600054610100900460ff166126095760405162461bcd60e51b815260040161096590614597565b610979828261341e565b600054610100900460ff1661263a5760405162461bcd60e51b815260040161096590614597565b6125b061345e565b6001600160a01b0381166126a85760405162461bcd60e51b815260206004820152602760248201527f566f7465733a2064656c6567617465652063616e6e6f74206265207a65726f206044820152666164647265737360c81b6064820152608401610965565b60006126b3836123a6565b90506126bf8383613491565b6040516370a0823160e01b81526001600160a01b0384166004820152610ab4908290849030906370a0823190602401602060405180830381865afa15801561270b573d6000803e3d6000fd5b505050506040513d601f19601f82011682018060405250810190610cda919061438d565b6001600160a01b03831660009081527fde59cf009759767a48aa56366ad77af93d2a112ef08516a1a2a182a81465391360209081526040808320547fde59cf009759767a48aa56366ad77af93d2a112ef08516a1a2a182a814653912909252909120546000805160206148ba833981519152916127b29160ff91821691166145e2565b60ff168260ff6127c2919061457e565b60ff1610156127e35760405162461bcd60e51b8152600401610965906145fb565b6001600160a01b03841660009081526003820160205260408120805484929061281090849060ff166145e2565b82546101009290920a60ff8181021990931691831602179091556001600160a01b03868116600090815260018501602090815260408083209389168352929052908120805486945090926120ca918591166145e2565b6001600160a01b038116600090815260336020526040812054610910565b61288f823383613588565b610979828261299e565b6128a16135fc565b6097805460ff191660011790557f62e78cea01bee320cd4e420270b5ea74000d11b0c9f74754ebdbfc544b05a2586125053390565b6000805160206148fa83398151915280546000919063ffffffff16611d777fee4ae5af77c122a0dd9754efb22d3c0c090d029d2b3ef538a7acea090eeece5082866130c6565b6001600160a01b03811660009081527fee4ae5af77c122a0dd9754efb22d3c0c090d029d2b3ef538a7acea090eeece5160209081526040808320547fee4ae5af77c122a0dd9754efb22d3c0c090d029d2b3ef538a7acea090eeece5290925282206000805160206148fa8339815191529163ffffffff1690611d779082613642565b6001600160a01b0382166129fe5760405162461bcd60e51b815260206004820152602160248201527f45524332303a206275726e2066726f6d20746865207a65726f206164647265736044820152607360f81b6064820152608401610965565b612a0a82600083613687565b6001600160a01b03821660009081526033602052604090205481811015612a7e5760405162461bcd60e51b815260206004820152602260248201527f45524332303a206275726e20616d6f756e7420657863656564732062616c616e604482015261636560f01b6064820152608401610965565b6001600160a01b03831660008181526033602090815260408083208686039055603580548790039055518581529192917fddf252ad1be2c89b69c2b068fc378daa952ba7f163c4a11628f55a4df523b3ef910160405180910390a3610ab483600084613692565b6000612aff6000805160206148da833981519152336115ec565b80612b12575061016054610100900460ff165b612b2e5760405162461bcd60e51b8152600401610965906142e8565b6109d4838361369d565b6000806000612b49878787876136ab565b91509150612b568161376f565b5095945050505050565b6001600160a01b038316612bc45760405162461bcd60e51b815260206004820152602560248201527f45524332303a207472616e736665722066726f6d20746865207a65726f206164604482015264647265737360d81b6064820152608401610965565b6001600160a01b038216612c265760405162461bcd60e51b815260206004820152602360248201527f45524332303a207472616e7366657220746f20746865207a65726f206164647260448201526265737360e81b6064820152608401610965565b612c31838383613687565b6001600160a01b03831660009081526033602052604090205481811015612ca95760405162461bcd60e51b815260206004820152602660248201527f45524332303a207472616e7366657220616d6f756e7420657863656564732062604482015265616c616e636560d01b6064820152608401610965565b6001600160a01b0380851660008181526033602052604080822086860390559286168082529083902080548601905591517fddf252ad1be2c89b69c2b068fc378daa952ba7f163c4a11628f55a4df523b3ef90612d099086815260200190565b60405180910390a3611d4e848484613692565b6000805160206148ba8339815191525b6001600160a01b038416600090815260028201602052604090205460ff1615801590612d8757506001600160a01b0384166000908152602082815260408083206004850183528184205460ff16845290915290206001015442115b15612e54576001600160a01b03841660008181526020838152604080832060048601808452828520805460ff908116875292855292852085815560018181018790556002820187905560039091018690559585529092528054909291612def918591166145e2565b82546101009290920a60ff8181021990931691831602179091556001600160a01b038616600090815260028401602052604081208054600194509092612e379185911661457e565b92506101000a81548160ff021916908360ff160217905550612d2c565b6001600160a01b03841660009081526003820160209081526040808320546002850190925290912054612e8d9160ff90811691166145e2565b60ff16600160ff612e9e919061457e565b60ff161015612ebf5760405162461bcd60e51b8152600401610965906145fb565b6001600160a01b03841660008181526002808401602090815260408084205481516080810183528981528084018981528184018781526060830188815298885289865284882060ff9094168089529390955292862090518155915160018301559151928101929092559251600390910155819003612f75576001600160a01b03851660009081526004830160209081526040808320805460ff199081169091556005860190925290912080549091169055612fd3565b6001600160a01b03851660008181526005840160208181526040808420805488845282862060ff898116808952828752858920938216600390940193909355835416875284529185206002018290559490935252815460ff19161790555b6001600160a01b0385166000908152600283016020526040812080546001929061300190849060ff166145e2565b92506101000a81548160ff021916908360ff1602179055505050505050565b60006001600160e01b03198216632c892b1760e11b14806109105750610910826138b9565b60606036805461178090614443565b600033613062858285613588565b6118f3858585612b60565b61307782826115ec565b61097957613084816138c4565b61308f8360206138d6565b6040516020016130a0929190614658565b60408051601f198184030181529082905262461bcd60e51b825261096591600401613e3d565b60008263ffffffff166000036130de575060006109d4565b818460006130ed6001876146cd565b63ffffffff1681526020810191909152604001600020541161313c578360006131176001866146cd565b63ffffffff1663ffffffff1681526020019081526020016000206001015490506109d4565b60008080526020859052604090205482101561315a575060006109d4565b6000806131686001866146cd565b90505b8163ffffffff168163ffffffff161115613212576000600261318d84846146cd565b61319791906146f1565b6131a190836146cd565b63ffffffff8116600090815260208981526040918290208251808401909352805480845260019091015491830191909152919250908690036131ec576020015193506109d492505050565b80518611156131fd5781935061320b565b6132086001836146cd565b92505b505061316b565b5063ffffffff1660009081526020859052604090206001015490509392505050565b6001600160a01b03831660008181527fee4ae5af77c122a0dd9754efb22d3c0c090d029d2b3ef538a7acea090eeece516020908152604080832054815180830183524281528084018781529585527fee4ae5af77c122a0dd9754efb22d3c0c090d029d2b3ef538a7acea090eeece52845282852063ffffffff9092168086529190935292209051815591516001928301556000805160206148fa833981519152916132e0908290614722565b6001600160a01b0386166000818152600285016020908152604091829020805463ffffffff191663ffffffff9590951694909417909355805187815292830186905290917fdec2bacdd2f05b59de34da9b523dff8be42e5e38e818c82fdb0bae774387a724910160405180910390a25050505050565b60975460ff166125b05760405162461bcd60e51b815260206004820152601460248201527314185d5cd8589b194e881b9bdd081c185d5cd95960621b6044820152606401610965565b6109798282613a72565b600054610100900460ff166133d05760405162461bcd60e51b815260040161096590614597565b600081116134185760405162461bcd60e51b8152602060048201526015602482015274045524332304361707065643a20636170206973203605c1b6044820152606401610965565b61012d55565b600054610100900460ff166134455760405162461bcd60e51b815260040161096590614597565b6036613451838261478d565b506037610ab4828261478d565b600054610100900460ff166134855760405162461bcd60e51b815260040161096590614597565b6097805460ff19169055565b6001600160a01b03828116600090815260008051602061497a833981519152602081905260409091205490919081169083168190036135285760405162461bcd60e51b815260206004820152602d60248201527f44656c65676174653a20616c72656164792064656c65676174656420746f207460448201526c6869732064656c65676174656560981b6064820152608401610965565b6001600160a01b0384811660008181526020859052604080822080546001600160a01b03191688861690811790915590519093851692917f3134e8a2e6d97e929a7e54011ea5485d7d196dd5f0ba4d4ef95803e8e3fc257f91a450505050565b60006135948484611bb5565b90506000198114611d4e57818110156135ef5760405162461bcd60e51b815260206004820152601d60248201527f45524332303a20696e73756666696369656e7420616c6c6f77616e63650000006044820152606401610965565b611d4e8484848403611e6b565b60975460ff16156125b05760405162461bcd60e51b815260206004820152601060248201526f14185d5cd8589b194e881c185d5cd95960821b6044820152606401610965565b600063ffffffff82161561367e57600061365d6001846146cd565b63ffffffff1660009081526020859052604090206001015491506109109050565b50600092915050565b610ab4838383613ae2565b610ab4838383613b93565b600033610933818585612b60565b6000807f7fffffffffffffffffffffffffffffff5d576e7357a4501ddfe92f46681b20a08311156136e25750600090506003613766565b6040805160008082526020820180845289905260ff881692820192909252606081018690526080810185905260019060a0016020604051602081039080840390855afa158015613736573d6000803e3d6000fd5b5050604051601f1901519150506001600160a01b03811661375f57600060019250925050613766565b9150600090505b94509492505050565b60008160048111156137835761378361484d565b0361378b5750565b600181600481111561379f5761379f61484d565b036137ec5760405162461bcd60e51b815260206004820152601860248201527f45434453413a20696e76616c6964207369676e617475726500000000000000006044820152606401610965565b60028160048111156138005761380061484d565b0361384d5760405162461bcd60e51b815260206004820152601f60248201527f45434453413a20696e76616c6964207369676e6174757265206c656e677468006044820152606401610965565b60038160048111156138615761386161484d565b0361100a5760405162461bcd60e51b815260206004820152602260248201527f45434453413a20696e76616c6964207369676e6174757265202773272076616c604482015261756560f01b6064820152608401610965565b600061091082613b9e565b60606109106001600160a01b03831660145b606060006138e5836002614863565b6138f090600261437a565b67ffffffffffffffff81111561390857613908614073565b6040519080825280601f01601f191660200182016040528015613932576020820181803683370190505b509050600360fc1b8160008151811061394d5761394d6143a6565b60200101906001600160f81b031916908160001a905350600f60fb1b8160018151811061397c5761397c6143a6565b60200101906001600160f81b031916908160001a90535060006139a0846002614863565b6139ab90600161437a565b90505b6001811115613a23576f181899199a1a9b1b9c1cb0b131b232b360811b85600f16601081106139df576139df6143a6565b1a60f81b8282815181106139f5576139f56143a6565b60200101906001600160f81b031916908160001a90535060049490941c93613a1c81614882565b90506139ae565b5083156109d45760405162461bcd60e51b815260206004820181905260248201527f537472696e67733a20686578206c656e67746820696e73756666696369656e746044820152606401610965565b61012d5481613a8060355490565b613a8a919061437a565b1115613ad85760405162461bcd60e51b815260206004820152601960248201527f45524332304361707065643a20636170206578636565646564000000000000006044820152606401610965565b6109798282613bd3565b6000613aed84610a83565b9050600081118015613b07575081613b0485611428565b10155b15613b88578082613b1786611428565b613b21919061456b565b1015613b885760405162461bcd60e51b815260206004820152603060248201527f5472616e736665724c6f636b3a2074686973206578636565647320796f75722060448201526f756e6c6f636b65642062616c616e636560801b6064820152608401610965565b611d4e848484613ca8565b610ab4838383613cb0565b60006001600160e01b03198216637965db0b60e01b148061091057506301ffc9a760e01b6001600160e01b0319831614610910565b6001600160a01b038216613c295760405162461bcd60e51b815260206004820152601f60248201527f45524332303a206d696e7420746f20746865207a65726f2061646472657373006044820152606401610965565b613c3560008383613687565b8060356000828254613c47919061437a565b90915550506001600160a01b0382166000818152603360209081526040808320805486019055518481527fddf252ad1be2c89b69c2b068fc378daa952ba7f163c4a11628f55a4df523b3ef910160405180910390a361097960008383613692565b610ab46135fc565b6001600160a01b038316613cd957613cd981613cca613d18565b613cd4919061437a565b613d64565b6001600160a01b038216613cfd57613cfd81613cf3613d18565b613cd4919061456b565b610ab4613d09846123a6565b613d12846123a6565b836123d1565b6000805160206148fa83398151915280546000919063ffffffff16613d5d7fee4ae5af77c122a0dd9754efb22d3c0c090d029d2b3ef538a7acea090eeece5082613642565b9250505090565b6000805160206148fa8339815191528054604080518082018252428152602080820186815263ffffffff90941660008181527fee4ae5af77c122a0dd9754efb22d3c0c090d029d2b3ef538a7acea090eeece5090925292902090518155915160019283015590613dd5908290614722565b825463ffffffff191663ffffffff91909116179091555050565b600060208284031215613e0157600080fd5b81356001600160e01b0319811681146109d457600080fd5b60005b83811015613e34578181015183820152602001613e1c565b50506000910152565b6020815260008251806020840152613e5c816040850160208701613e19565b601f01601f19169190910160400192915050565b80356001600160a01b0381168114613e8757600080fd5b919050565b60008060408385031215613e9f57600080fd5b613ea883613e70565b946020939093013593505050565b803560ff81168114613e8757600080fd5b60008060408385031215613eda57600080fd5b613ee383613e70565b9150613ef160208401613eb6565b90509250929050565b600080600060608486031215613f0f57600080fd5b613f1884613e70565b9250613f2660208501613e70565b9150604084013590509250925092565b600060208284031215613f4857600080fd5b5035919050565b600060208284031215613f6157600080fd5b6109d482613e70565b60008060408385031215613f7d57600080fd5b82359150613ef160208401613e70565b60008083601f840112613f9f57600080fd5b50813567ffffffffffffffff811115613fb757600080fd5b6020830191508360208260051b8501011115613fd257600080fd5b9250929050565b60008060008060008060608789031215613ff257600080fd5b863567ffffffffffffffff8082111561400a57600080fd5b6140168a838b01613f8d565b9098509650602089013591508082111561402f57600080fd5b61403b8a838b01613f8d565b9096509450604089013591508082111561405457600080fd5b5061406189828a01613f8d565b979a9699509497509295939492505050565b634e487b7160e01b600052604160045260246000fd5b604051601f8201601f1916810167ffffffffffffffff811182821017156140b2576140b2614073565b604052919050565b600067ffffffffffffffff8211156140d4576140d4614073565b50601f01601f191660200190565b600082601f8301126140f357600080fd5b8135614106614101826140ba565b614089565b81815284602083860101111561411b57600080fd5b816020850160208301376000918101602001919091529392505050565b6000806000806080858703121561414e57600080fd5b61415785613e70565b9350602085013567ffffffffffffffff8082111561417457600080fd5b614180888389016140e2565b9450604087013591508082111561419657600080fd5b506141a3878288016140e2565b949793965093946060013593505050565b600080604083850312156141c757600080fd5b6141d083613e70565b9150613ef160208401613e70565b60008060008060008060c087890312156141f757600080fd5b61420087613e70565b9550602087013594506040870135935061421c60608801613eb6565b92506080870135915060a087013590509295509295509295565b60008060006060848603121561424b57600080fd5b61425484613e70565b95602085013595506040909401359392505050565b6000806040838503121561427c57600080fd5b50508035926020909101359150565b60208082526038908201527f5472616e736665724c6f636b3a206163636f756e747320646f206e6f74206e6560408201527f656420746f20617070726f7665207468656d73656c7665730000000000000000606082015260800190565b60208082526025908201527f5472616e736665727261626c653a207472616e7366657273206172652064697360408201526418589b195960da1b606082015260800190565b6020808252601d908201527f4275726e61626c653a206275726e696e672069732064697361626c6564000000604082015260600190565b634e487b7160e01b600052601160045260246000fd5b8082018082111561091057610910614364565b60006020828403121561439f57600080fd5b5051919050565b634e487b7160e01b600052603260045260246000fd5b6000600182016143ce576143ce614364565b5060010190565b6000602082840312156143e757600080fd5b815167ffffffffffffffff8111156143fe57600080fd5b8201601f8101841361440f57600080fd5b805161441d614101826140ba565b81815285602083850101111561443257600080fd5b61239d826020830160208601613e19565b600181811c9082168061445757607f821691505b60208210810361447757634e487b7160e01b600052602260045260246000fd5b50919050565b6020808252602e908201527f5472616e736665724c6f636b3a20616d6f756e74206d7573742062652067726560408201526d61746572207468616e207a65726f60901b606082015260800190565b6020808252602c908201527f5472616e736665724c6f636b3a20646561646c696e65206d757374206265206960408201526b6e207468652066757475726560a01b606082015260800190565b60208082526034908201527f5472616e736665724c6f636b3a20616d6f756e742063616e6e6f742065786365604082015273656420617661696c61626c652062616c616e636560601b606082015260800190565b8181038181111561091057610910614364565b60ff828116828216039081111561091057610910614364565b6020808252602b908201527f496e697469616c697a61626c653a20636f6e7472616374206973206e6f74206960408201526a6e697469616c697a696e6760a81b606082015260800190565b60ff818116838216019081111561091057610910614364565b6020808252603d908201527f5472616e736665724c6f636b733a2063616e6e6f7420657863656564206d617860408201527f206163636f756e74206c6f636b7320616e6420616c6c6f77616e636573000000606082015260800190565b7f416363657373436f6e74726f6c3a206163636f756e7420000000000000000000815260008351614690816017850160208801613e19565b7001034b99036b4b9b9b4b733903937b6329607d1b60179184019182015283516146c1816028840160208801613e19565b01602801949350505050565b63ffffffff8281168282160390808211156146ea576146ea614364565b5092915050565b600063ffffffff8084168061471657634e487b7160e01b600052601260045260246000fd5b92169190910492915050565b63ffffffff8181168382160190808211156146ea576146ea614364565b601f821115610ab457600081815260208120601f850160051c810160208610156147665750805b601f850160051c820191505b8181101561478557828155600101614772565b505050505050565b815167ffffffffffffffff8111156147a7576147a7614073565b6147bb816147b58454614443565b8461473f565b602080601f8311600181146147f057600084156147d85750858301515b600019600386901b1c1916600185901b178555614785565b600085815260208120601f198616915b8281101561481f57888601518255948401946001909101908401614800565b508582101561483d5787850151600019600388901b60f8161c191681555b5050505050600190811b01905550565b634e487b7160e01b600052602160045260246000fd5b600081600019048311821515161561487d5761487d614364565b500290565b60008161489157614891614364565b50600019019056fe3c11d16cbaffd01df69ce1c404f6340ee057498f5f00246190ea54220576a848de59cf009759767a48aa56366ad77af93d2a112ef08516a1a2a182a8146539109c0b3a9882e11a6bfb8283b46d1e79513afb8024ee864cd3a5b3a9050c42a7d7ee4ae5af77c122a0dd9754efb22d3c0c090d029d2b3ef538a7acea090eeece4f65d7a28e3265b37a6474929f336521b332c1681b933f6cb9f3376673440d862a28cb24054e210488ccd16d253d841d8a5ddb99cc6014fbe4ad307e7eaff5b6e29f2df0fed2c77648de5860a4cc508cd0818c85b8b8a1ab4ceeef8d981c8956a69445b0664c72f3ea82b4b0b66945b3e984dc3f563e04a52fd810eae883d2840ea2646970667358221220b111f176372f29dcba1238fcd61260ddbb323d42c7f5bccea740413a2777b2f364736f6c63430008100033",
    "linkReferences": {}
  },
  "methodIdentifiers": {
    "BURNER_ROLE()": "282c51f3",
    "DEFAULT_ADMIN_ROLE()": "a217fddf",
    "DELEGATION_TYPEHASH()": "e7a324dc",
    "EIP712_TYPEHASH()": "253d2c7d",
    "L2BRIDGE_INFO_STORAGE_POSITION()": "e0557045",
    "MINTER_ROLE()": "d5391393",
    "PAUSER_ROLE()": "e63ab1e9",
    "TRANSFERRER_ROLE()": "63ac5d97",
    "addTransferLock(uint256,uint256)": "e672ce3a",
    "allowance(address,address)": "dd62ed3e",
    "allowances(address,address)": "55b6ed5c",
    "approve(address,uint256)": "095ea7b3",
    "balanceOf(address)": "70a08231",
    "batchTransferWithLocks(address[],uint256[],uint256[])": "3def6038",
    "burn(address,uint256)": "9dc29fac",
    "burn(uint256)": "42966c68",
    "burnFrom(address,uint256)": "79cc6790",
    "burnable()": "a07c7ce4",
    "cap()": "355274ea",
    "clearDelegation()": "3b632bb9",
    "decimals()": "313ce567",
    "decreaseAllowance(address,uint256)": "a457c2d7",
    "decreaseTransferLockAllowance(address,uint8)": "1f1eb79b",
    "delegate(address)": "5c19a95c",
    "delegateBySig(address,uint256,uint256,uint8,bytes32,bytes32)": "c3cda520",
    "delegates(address)": "587cde1e",
    "disableBurn()": "2403c08e",
    "disableTransfer()": "b187984f",
    "domainSeparatorV4()": "78e890ba",
    "enableBurn()": "3b37d1d6",
    "enableTransfer()": "f1b50c1d",
    "getAvailableBalance(address)": "6c24a76f",
    "getAvailableBalanceAt(address,uint256)": "e851b720",
    "getDelegatorNonce(address)": "6ab6cd6c",
    "getPastTotalSupply(uint256)": "8e539e8c",
    "getPastVotes(address,uint256)": "3a46b1a8",
    "getRoleAdmin(bytes32)": "248a9ca3",
    "getTransferLockTotal(address)": "2909ae01",
    "getTransferLockTotalAt(address,uint256)": "d90964cd",
    "getVotes(address)": "9ab24eb0",
    "grantRole(bytes32,address)": "2f2ff15d",
    "hasRole(bytes32,address)": "91d14854",
    "increaseAllowance(address,uint256)": "39509351",
    "increaseTransferLockAllowance(address,uint8)": "6239d4a3",
    "initialize(address,string,string,uint256)": "4d12d4b6",
    "l1Token()": "c01e1bd6",
    "l2Bridge()": "ae1f6aaf",
    "mint(address,uint256)": "40c10f19",
    "name()": "06fdde03",
    "pause()": "8456cb59",
    "paused()": "5c975abb",
    "renounceRole(bytes32,address)": "36568abe",
    "revokeRole(bytes32,address)": "d547741f",
    "setL1Token(address)": "94c36f99",
    "setL2Bridge(address)": "3d36d971",
    "supportsInterface(bytes4)": "01ffc9a7",
    "symbol()": "95d89b41",
    "totalSupply()": "18160ddd",
    "transfer(address,uint256)": "a9059cbb",
    "transferFrom(address,address,uint256)": "23b872dd",
    "transferWithLock(address,uint256,uint256)": "de6baccb",
    "transferrable()": "047a7ef1",
    "unpause()": "3f4ba83a",
    "version()": "54fd4d50"
  },
  "id": 1
}