{
  "abi": [
    {
      "inputs": [],
      "name": "MAX_LOCKS_PER_ACCOUNT",
      "outputs": [
        {
          "internalType": "uint8",
          "name": "",
          "type": "uint8"
        }
      ],
      "stateMutability": "view",
      "type": "function"
    },
    {
      "inputs": [],
      "name": "TRANSFER_LOCKS_STORAGE_POSITION",
      "outputs": [
        {
          "internalType": "bytes32",
          "name": "",
          "type": "bytes32"
        }
      ],
      "stateMutability": "view",
      "type": "function"
    }
  ],
  "bytecode": {
    "object": "0x60c9610039600b82828239805160001a60731461002c57634e487b7160e01b600052600060045260246000fd5b30600052607381538281f3fe7300000000000000000000000000000000000000003014608060405260043610603d5760003560e01c80637fb1f30314604257806393f3309f14607b575b600080fd5b60687fde59cf009759767a48aa56366ad77af93d2a112ef08516a1a2a182a81465391081565b6040519081526020015b60405180910390f35b608260ff81565b60405160ff9091168152602001607256fea26469706673582212203c07a28293304432858b280be59f190902538da940f9710d14c7803caa73be2664736f6c63430008100033",
    "linkReferences": {}
  },
  "methodIdentifiers": {
    "MAX_LOCKS_PER_ACCOUNT()": "93f3309f",
    "TRANSFER_LOCKS_STORAGE_POSITION()": "7fb1f303"
  },
  "id": 12
}